:20e0000010ce7f007f011abde3ce20fe3416a661e6633d3406a662e6653debe4e7e4a66339
:20e02000e6643debe4e7e435063264393416a8621f02ece42a048d15ede4ec622a048d0db9
:20e04000ed621f204d35162a0a8d0d1f104353c30001398d031f103934164f5f8e00111c5f
:20e06000fe69636962301f270d594910a3e425efa3e41a0120eb326235901e018c00002763
:20e08000065849301f26fa391e018c000027f84456301f26fa393406ace12e29201e34068f
:20e0a000ace12c2120163406ace12d19200e3406ace12f1120063406ace127094f5f3934d6
:20e0c00006ace127f7cc0001393406ace122f620eb3406ace124ee20e33406ace125e620d1
:20e0e000db3406ace123de20d31083000026cd20d4aec1270710a3c126f76e846ed4ec6260
:20e100001f01cc000abde0d110270011ec621f01cc000abde0533406bde0fe3262ec621f49
:20e1200001cc000abde058c300301d3406bdef46326239327eec648e8000bde0b610270072
:20e140000dccec173406bdef2f32627ee193ec641f01cc0000bde0a610270013cc002d3452
:20e1600006bdef463262ec644353c30001ed64ec64ed60ec60108300001027000cec6034d9
:20e1800006bde0fe32627ee193cc00303406bdef463262326239ec62108300001027000cab
:20e1a000ec623406bde0fe32627ee1b6cc00303406bdef46326239327eec641f01cc0010a2
:20e1c000bde0d110270011ec641f01cc0004bde0883406bde1b73262ec648400c40fed600d
:20e1e000ec601f01cc000abde0a610270010ec60c300301d3406bdef4632627ee20eec607d
:20e20000c3004183000a1d3406bdef463262326239327ecc0000ed60ec601f01ec64bde0a1
:20e22000a61027000aec60c30001ed607ee218ec60326239327ccc0000ed62cc0000ed6027
:20e24000ec601f01ec66bde0a6102700152009ec60c30001ed6020e8ec62c30001ed627e04
:20e26000e24fec62326439327ecc0000ed60ec60c30001ed60ec601f01ec64bde0a61026f5
:20e28000ffecec60326239327ecc0000ed60ec601f01cc0005bde0a6102700272009ec605e
:20e2a000c30001ed6020e7ec605849ce010633cbecc41f01ec64bde09e102700037ee2c3ce
:20e2c0007ee29eec608e0005bde0b610270006ccffff7ee2d7ec60326239327ccc0000ed50
:20e2e00062cc0000ed60ec601f01cc0005bde0a6102700372009ec60c30001ed6020e7ec3c
:20e30000605849ce011033cbecc48400c40110830000102700037ee2f6ec605849ce011037
:20e3200033cbec62e3c4ed627ee2f6ec62326439327acc0000ed64cc0000ed60ec601f01da
:20e34000ec68bde0a6102700442009ec60c30001ed6020e8cc0000ed62ec621f01ec68bd83
:20e36000e0a6102700242009ec62c30001ed6220e8ec60e3621f01ec68bde0a610270007a4
:20e38000ec64c30001ed647ee3687ee34bec64326639ec621f01cc0000bde0a610270006c8
:20e3a000ccffff7ee3cdec62108300001027001aec621f01cc000abde0a610270006cc00a3
:20e3c000017ee3cdcc00027ee3cdcc000039327eccec1e3406bdef2f3262cc0000ce01063d
:20e3e00033cbcc0002edc4cc0002ce010633cbcc0005edc4cc0004ce010633cbcc0007ed1a
:20e40000c4cc0006ce010633cbcc000aedc4cc0008ce010633cbcc000eedc4cc0000ce013f
:20e420001033cbcc0002edc4cc0002ce011033cbcc0005edc4cc0004ce011033cbcc0007a2
:20e44000edc4cc0006ce011033cbcc000aedc4cc0008ce011033cbcc000eedc4cc00053494
:20e4600006bde392326283000110270045ccec2f3406bdef2f3262cc00053406bde39232d1
:20e48000623406bde1333262ccec413406bdef2f3262cc00013406bde1333262ccec47343a
:20e4a00006bdef2f3262fc0104c30001fd01047ee4c5ccec4a3406bdef2f3262fc0102c38c
:20e4c0000001fd0102ccffff3406bde392326283ffff10270045ccec563406bdef2f3262bd
:20e4e000ccffff3406bde39232623406bde1333262ccec673406bdef2f3262ccffff3406e7
:20e50000bde1333262ccec6d3406bdef2f3262fc0104c30001fd01047ee52eccec7034060e
:20e52000bdef2f3262fc0102c30001fd0102cc00003406bde392326283000010270045cc12
:20e54000ec7b3406bdef2f3262cc00003406bde39232623406bde1333262ccec8d3406bd04
:20e56000ef2f3262cc00003406bde1333262ccec933406bdef2f3262fc0104c30001fd01c7
:20e58000047ee597ccec963406bdef2f3262fc0102c30001fd0102cc002a3406bde392322f
:20e5a0006283000210270045cceca23406bdef2f3262cc002a3406bde39232623406bde127
:20e5c000333262ccecb23406bdef2f3262cc00023406bde1333262ccecb83406bdef2f323d
:20e5e00062fc0104c30001fd01047ee600ccecbb3406bdef2f3262fc0102c30001fd0102af
:20e60000cc00003406bde211326283000010270045ccecc53406bdef2f3262cc0000340685
:20e62000bde21132623406bde1333262ccecd73406bdef2f3262cc00003406bde133326254
:20e64000ccecdd3406bdef2f3262fc0104c30001fd01047ee669ccece03406bdef2f3262a7
:20e66000fc0102c30001fd0102cc00013406bde211326283000110270045ccecec3406bdf1
:20e68000ef2f3262cc00013406bde21132623406bde1333262ccecfe3406bdef2f3262ccb3
:20e6a00000013406bde1333262cced043406bdef2f3262fc0104c30001fd01047ee6d2cc8b
:20e6c000ed073406bdef2f3262fc0102c30001fd0102cc000a3406bde211326283000a10e9
:20e6e000270045cced133406bdef2f3262cc000a3406bde21132623406bde1333262cced8d
:20e70000263406bdef2f3262cc000a3406bde1333262cced2c3406bdef2f3262fc0104c363
:20e720000001fd01047ee73bcced2f3406bdef2f3262fc0102c30001fd0102cc00003406dc
:20e74000bde234326283000010270045cced3c3406bdef2f3262cc00003406bde234326248
:20e760003406bde1333262cced4c3406bdef2f3262cc00003406bde1333262cced5234069c
:20e78000bdef2f3262fc0104c30001fd01047ee7a4cced553406bdef2f3262fc0102c300c1
:20e7a00001fd0102cc00053406bde234326283000510270045cced5f3406bdef2f3262cc55
:20e7c00000053406bde23432623406bde1333262cced6f3406bdef2f3262cc00053406bd5b
:20e7e000e1333262cced753406bdef2f3262fc0104c30001fd01047ee80dcced783406bd38
:20e80000ef2f3262fc0102c30001fd0102cc00143406bde234326283001410270045cced36
:20e82000823406bdef2f3262cc00143406bde23432623406bde1333262cced933406bdef5b
:20e840002f3262cc00143406bde1333262cced993406bdef2f3262fc0104c30001fd0104b4
:20e860007ee876cced9c3406bdef2f3262fc0102c30001fd0102cc00013406bde26732625a
:20e8800083000110270045cceda73406bdef2f3262cc00013406bde26732623406bde133c3
:20e8a0003262ccedbb3406bdef2f3262cc00013406bde1333262ccedc13406bdef2f326218
:20e8c000fc0104c30001fd01047ee8dfccedc43406bdef2f3262fc0102c30001fd0102cc77
:20e8e00000053406bde267326283000510270045ccedd23406bdef2f3262cc00053406bd3f
:20e90000e26732623406bde1333262ccede63406bdef2f3262cc00053406bde1333262ccf7
:20e92000edec3406bdef2f3262fc0104c30001fd01047ee948ccedef3406bdef2f3262fc92
:20e940000102c30001fd0102cc00073406bde287326283000210270045ccedfd3406bdef8c
:20e960002f3262cc00073406bde28732623406bde1333262ccee133406bdef2f3262cc002c
:20e98000023406bde1333262ccee193406bdef2f3262fc0104c30001fd01047ee9b1cceec1
:20e9a0001c3406bdef2f3262fc0102c30001fd0102cc00013406bde2873262830000102754
:20e9c0000045ccee2c3406bdef2f3262cc00013406bde28732623406bde1333262ccee4207
:20e9e0003406bdef2f3262cc00003406bde1333262ccee483406bdef2f3262fc0104c30094
:20ea000001fd01047eea1accee4b3406bdef2f3262fc0102c30001fd0102cc00633406bdda
:20ea2000e287326283ffff10270045ccee5b3406bdef2f3262cc00633406bde287326234c7
:20ea400006bde1333262ccee703406bdef2f3262ccffff3406bde1333262ccee763406bde8
:20ea6000ef2f3262fc0104c30001fd01047eea83ccee793406bdef2f3262fc0102c3000193
:20ea8000fd0102bde2daed60ec6083001a1027003dccee883406bdef2f3262ec603406bd25
:20eaa000e1333262cceea13406bdef2f3262cc001a3406bde1333262cceea73406bdef2faf
:20eac0003262fc0104c30001fd01047eeae1cceeaa3406bdef2f3262fc0102c30001fd01c4
:20eae00002cc00033406bde330326283000610270045cceebd3406bdef2f3262cc0003347f
:20eb000006bde33032623406bde1333262cceed03406bdef2f3262cc00063406bde13332aa
:20eb200062cceed63406bdef2f3262fc0104c30001fd01047eeb4acceed93406bdef2f32e6
:20eb400062fc0102c30001fd0102cc00043406bde330326283000a10270045cceee634063f
:20eb6000bdef2f3262cc00043406bde33032623406bde1333262cceef93406bdef2f3262bd
:20eb8000cc000a3406bde1333262cceeff3406bdef2f3262fc0104c30001fd01047eebb3bb
:20eba000ccef023406bdef2f3262fc0102c30001fd0102fc01041083000010270038ccef6e
:20ebc0000f3406bdef2f3262fc01043406bde1333262ccef1b3406bdef2f3262fc0102f36c
:20ebe00001043406bde1333262ccef1d3406bdef2f32627eec14ccef203406bdef2f3262ee
:20ec0000fc01023406bde1333262ccef2c3406bdef2f32623262392d33323736380074301e
:20ec2000315f636f6e74726f6c666c6f770a0069662d747275653a4641494c28676f743dc0
:20ec4000002c6578703d00290a0069662d747275653a4f4b0a0069662d6e65673a464149f1
:20ec60004c28676f743d002c6578703d00290a0069662d6e65673a4f4b0a0069662d7a65c1
:20ec8000726f3a4641494c28676f743d002c6578703d00290a0069662d7a65726f3a4f4b15
:20eca0000a0069662d68693a4641494c28676f743d002c6578703d00290a0069662d6869c2
:20ecc0003a4f4b0a007768696c652d303a4641494c28676f743d002c6578703d00290a00f2
:20ece0007768696c652d303a4f4b0a007768696c652d313a4641494c28676f743d002c65b3
:20ed000078703d00290a007768696c652d313a4f4b0a007768696c652d31303a4641494c49
:20ed200028676f743d002c6578703d00290a007768696c652d31303a4f4b0a00666f722d42
:20ed4000303a4641494c28676f743d002c6578703d00290a00666f722d303a4f4b0a0066ad
:20ed60006f722d353a4641494c28676f743d002c6578703d00290a00666f722d353a4f4be5
:20ed80000a00666f722d32303a4641494c28676f743d002c6578703d00290a00666f722d31
:20eda00032303a4f4b0a00646f7768696c652d313a4641494c28676f743d002c6578703d0e
:20edc00000290a00646f7768696c652d313a4f4b0a00646f7768696c652d353a4641494c34
:20ede00028676f743d002c6578703d00290a00646f7768696c652d353a4f4b0a0062726516
:20ee0000616b2d666f756e643a4641494c28676f743d002c6578703d00290a006272656155
:20ee20006b2d666f756e643a4f4b0a00627265616b2d66697273743a4641494c28676f741e
:20ee40003d002c6578703d00290a00627265616b2d66697273743a4f4b0a00627265616b4f
:20ee60002d6d6973733a4641494c28676f743d002c6578703d00290a00627265616b2d6d1c
:20ee80006973733a4f4b0a00636f6e74696e75652d6576656e733a4641494c28676f743d8d
:20eea000002c6578703d00290a00636f6e74696e75652d6576656e733a4f4b0a006e657392
:20eec0007465642d333a4641494c28676f743d002c6578703d00290a006e65737465642df7
:20eee000333a4f4b0a006e65737465642d343a4641494c28676f743d002c6578703d002939
:20ef00000a006e65737465642d343a4f4b0a0053554954453a4641494c28002f00290a00bb
:20ef200053554954453a504153532800290a00ae62e68027048d0520f839ec62c10a2608b0
:20ef40008d06c60d2002ec62b6c000850227f9f7c00139b6c00085012614ccffff39b6c01e
:20ef6000005f8401398d07c10d2602c60a39b6c000850127f9f6c0014f39ee648e00008d19
:20ef8000e4c17f2714c1082710c10a2723ac6224eee7c030018db120e68c000027e1c6085f
:17efa0008da6c6208da2c6088d9e301f335f20cf6fc48d881f103999
:10fff000e000e000e000e000e000e000e000e00001
:00000001FF
