:20e0000010ce7f007f0112bde35b20fe3416a661e6633d3406a662e6653debe4e7e4a663b4
:20e02000e6643debe4e7e435063264393416a8621f02ece42a048d15ede4ec622a048d0db9
:20e04000ed621f204d35162a0a8d0d1f104353c30001398d031f103934164f5f8e00111c5f
:20e06000fe69636962301f270d594910a3e425efa3e41a0120eb326235901e018c00002763
:20e08000065849301f26fa391e018c000027f84456301f26fa393406ace12e29201e34068f
:20e0a000ace12c2120163406ace12d19200e3406ace12f1120063406ace127094f5f3934d6
:20e0c00006ace127f7cc0001393406ace122f620eb3406ace124ee20e33406ace125e620d1
:20e0e000db3406ace123de20d31083000026cd20d4aec1270710a3c126f76e846ed4ec6260
:20e100001f01cc000abde0d110270011ec621f01cc000abde0533406bde0fe3262ec621f49
:20e1200001cc000abde058c300301d3406bdee38326239327eec648e8000bde0b610270081
:20e140000dcceb213406bdee2132627ee193ec641f01cc0000bde0a610270013cc002d3458
:20e1600006bdee383262ec644353c30001ed64ec64ed60ec60108300001027000cec6034e8
:20e1800006bde0fe32627ee193cc00303406bdee383262326239ec62108300001027000cba
:20e1a000ec623406bde0fe32627ee1b6cc00303406bdee38326239327eec641f01cc0010b1
:20e1c000bde0d110270011ec641f01cc0004bde0883406bde1b73262ec648400c40fed600d
:20e1e000ec601f01cc000abde0a610270010ec60c300301d3406bdee3832627ee20eec608c
:20e20000c3004183000a1d3406bdee383262326239ec62cee22b7ee0f1cc00007ee237cc2b
:20e2200000007ee237cc00017ee237e21f0006e21900000000e22539327ecc0000ed60ecec
:20e2400064cee2667ee0f1ec60c30001ed60ec60c30001ed60ec60c30001ed60ec60c300cf
:20e2600001ed607ee27ae25c0000e2550001e24e0002e24700030000e263ec60326239e65e
:20e28000631dcee2947ee0f1cc00017ee2accc00007ee2ace2880075e288006fe28800692f
:20e2a000e2880065e28800610000e28e39327ccc0000ed62cc0000ed60ec601f01cc0006fb
:20e2c000bde0a61027005e2009ec60c30001ed6020e7ec605849ce010633cbecc41f01cc7d
:20e2e0000003bde058cee3127ee0f1ec605849ce010633cbec62e3c4ed627ee322ec6058e9
:20e3000049ce010633cbec62a3c4ed627ee3227ee322e30f0002e2fd0001e2eb0000000036
:20e32000e3227ee2c9ec62326439ec62cee34a7ee0f1cc00017ee35acc00027ee35acc001d
:20e34000037ee35acc00007ee35ae33e012ce33800c8e33200640000e34439327ecceb28df
:20e360003406bdee213262cc0000ce010633cbcc0000edc4cc0002ce010633cbcc0001ed8c
:20e38000c4cc0004ce010633cbcc0002edc4cc0006ce010633cbcc0003edc4cc0008ce01cf
:20e3a0000633cbcc0004edc4cc000ace010633cbcc0005edc4cc00003406bde211326283e0
:20e3c000000010270045cceb343406bdee213262cc00003406bde21132623406bde13332b5
:20e3e00062cceb453406bdee213262cc00003406bde1333262cceb4b3406bdee213262fc22
:20e400000104c30001fd01047ee41ecceb4e3406bdee213262fc0102c30001fd0102cc0083
:20e42000063406bde211326283000010270045cceb593406bdee213262cc00063406bde204
:20e440001132623406bde1333262cceb6a3406bdee213262cc00003406bde1333262cceb9b
:20e46000703406bdee213262fc0104c30001fd01047ee487cceb733406bdee213262fc0121
:20e4800002c30001fd0102cc00013406bde211326283000110270045cceb7e3406bdee2130
:20e4a0003262cc00013406bde21132623406bde1333262cceb8f3406bdee213262cc000131
:20e4c0003406bde1333262cceb953406bdee213262fc0104c30001fd01047ee4f0cceb984f
:20e4e0003406bdee213262fc0102c30001fd0102cc00053406bde2113262830001102700b5
:20e5000045cceba33406bdee213262cc00053406bde21132623406bde1333262ccebb43435
:20e5200006bdee213262cc00013406bde1333262ccebba3406bdee213262fc0104c3000139
:20e54000fd01047ee559ccebbd3406bdee213262fc0102c30001fd0102cc00633406bde224
:20e5600011326283000110270045ccebc83406bdee213262cc00633406bde21132623406f6
:20e58000bde1333262ccebd93406bdee213262cc00013406bde1333262ccebdf3406bdee05
:20e5a000213262fc0104c30001fd01047ee5c2ccebe23406bdee213262fc0102c30001fdc7
:20e5c0000102cc00033406bde238326283000410270045ccebed3406bdee213262cc0003b4
:20e5e0003406bde23832623406bde1333262ccebfe3406bdee213262cc00043406bde133ad
:20e600003262ccec043406bdee213262fc0104c30001fd01047ee62bccec073406bdee21f5
:20e620003262fc0102c30001fd0102cc00023406bde238326283000310270045ccec123410
:20e6400006bdee213262cc00023406bde23832623406bde1333262ccec233406bdee21322f
:20e6600062cc00033406bde1333262ccec293406bdee213262fc0104c30001fd01047ee624
:20e6800094ccec2c3406bdee213262fc0102c30001fd0102cc00013406bde23832628300b0
:20e6a0000210270045ccec373406bdee213262cc00013406bde23832623406bde133326242
:20e6c000ccec483406bdee213262cc00023406bde1333262ccec4e3406bdee213262fc0196
:20e6e00004c30001fd01047ee6fdccec513406bdee213262fc0102c30001fd0102cc0000bd
:20e700003406bde238326283000110270045ccec5c3406bdee213262cc00003406bde238c9
:20e7200032623406bde1333262ccec6d3406bdee213262cc00013406bde1333262ccec7350
:20e740003406bdee213262fc0104c30001fd01047ee766ccec763406bdee213262fc0102c6
:20e76000c30001fd0102cc00633406bde238326283000010270045ccec813406bdee213291
:20e7800062cc00633406bde23832623406bde1333262ccec933406bdee213262cc000034bf
:20e7a00006bde1333262ccec993406bdee213262fc0104c30001fd01047ee7cfccec9c3480
:20e7c00006bdee213262fc0102c30001fd0102cc00613406bde27f3262108300001027002d
:20e7e00016cceca83406bdee213262fc0102c30001fd01027ee80accecb43406bdee213232
:20e8000062fc0104c30001fd0104cc00653406bde27f32621083000010270016ccecc8341e
:20e8200006bdee213262fc0102c30001fd01027ee845ccecd43406bdee213262fc0104c31a
:20e840000001fd0104cc00623406bde27f32621083000010260016ccece83406bdee2132e4
:20e8600062fc0102c30001fd01027ee880ccecf43406bdee213262fc0104c30001fd010480
:20e88000cc007a3406bde27f32621083000010260016cced0b3406bdee213262fc0102c347
:20e8a0000001fd01027ee8bbcced173406bdee213262fc0104c30001fd0104bde2aded606c
:20e8c000ec6083fffe1027003dcced2e3406bdee213262ec603406bde1333262cced40345f
:20e8e00006bdee213262ccfffe3406bde1333262cced463406bdee213262fc0104c30001ec
:20e90000fd01047ee919cced493406bdee213262fc0102c30001fd0102cc00643406bde30c
:20e920002a326283000110270045cced553406bdee213262cc00643406bde32a326234066f
:20e94000bde1333262cced693406bdee213262cc00013406bde1333262cced6f3406bdee1d
:20e96000213262fc0104c30001fd01047ee982cced723406bdee213262fc0102c30001fdad
:20e980000102cc00c83406bde32a326283000210270045cced803406bdee213262cc00c8e0
:20e9a0003406bde32a32623406bde1333262cced943406bdee213262cc00023406bde13360
:20e9c0003262cced9a3406bdee213262fc0104c30001fd01047ee9ebcced9d3406bdee2141
:20e9e0003262fc0102c30001fd0102cc012c3406bde32a326283000310270045ccedab3495
:20ea000006bdee213262cc012c3406bde32a32623406bde1333262ccedbf3406bdee2132b0
:20ea200062cc00033406bde1333262ccedc53406bdee213262fc0104c30001fd01047eeabf
:20ea400054ccedc83406bdee213262fc0102c30001fd0102cc00323406bde32a326283006b
:20ea60000010270045ccedd63406bdee213262cc00323406bde32a32623406bde1333262bc
:20ea8000ccedea3406bdee213262cc00003406bde1333262ccedf03406bdee213262fc018e
:20eaa00004c30001fd01047eeabdccedf33406bdee213262fc0102c30001fd0102fc01045d
:20eac0001083000010270038ccee013406bdee213262fc01043406bde1333262ccee0d3444
:20eae00006bdee213262fc0102f301043406bde1333262ccee0f3406bdee2132627eeb1e30
:20eb0000ccee123406bdee213262fc01023406bde1333262ccee1e3406bdee2132623262eb
:20eb2000392d3332373638007430325f7377697463680a0073772d73756e3a4641494c28a9
:20eb4000676f743d002c6578703d00290a0073772d73756e3a4f4b0a0073772d7361743a61
:20eb60004641494c28676f743d002c6578703d00290a0073772d7361743a4f4b0a007377ba
:20eb80002d6d6f6e3a4641494c28676f743d002c6578703d00290a0073772d6d6f6e3a4f26
:20eba0004b0a0073772d6672693a4641494c28676f743d002c6578703d00290a0073772da3
:20ebc0006672693a4f4b0a0073772d6465663a4641494c28676f743d002c6578703d0029ec
:20ebe0000a0073772d6465663a4f4b0a0066616c6c2d333a4641494c28676f743d002c6552
:20ec000078703d00290a0066616c6c2d333a4f4b0a0066616c6c2d323a4641494c28676f6d
:20ec2000743d002c6578703d00290a0066616c6c2d323a4f4b0a0066616c6c2d313a4641a0
:20ec4000494c28676f743d002c6578703d00290a0066616c6c2d313a4f4b0a0066616c6c0d
:20ec60002d303a4641494c28676f743d002c6578703d00290a0066616c6c2d303a4f4b0a6f
:20ec80000066616c6c2d39393a4641494c28676f743d002c6578703d00290a0066616c6ca9
:20eca0002d39393a4f4b0a00766f77656c2d613a4f4b0a00766f77656c2d613a4641494c2d
:20ecc000287a65726f290a00766f77656c2d653a4f4b0a00766f77656c2d653a4641494c67
:20ece000287a65726f290a00766f77656c2d623a4f4b0a00766f77656c2d623a4641494c4d
:20ed0000286e6f6e7a65726f290a00766f77656c2d7a3a4f4b0a00766f77656c2d7a3a4687
:20ed200041494c286e6f6e7a65726f290a0073772d6c6f6f703a4641494c28676f743d00c1
:20ed40002c6578703d00290a0073772d6c6f6f703a4f4b0a006c617267652d3130303a46d2
:20ed600041494c28676f743d002c6578703d00290a006c617267652d3130303a4f4b0a007e
:20ed80006c617267652d3230303a4641494c28676f743d002c6578703d00290a006c61727c
:20eda00067652d3230303a4f4b0a006c617267652d3330303a4641494c28676f743d002cee
:20edc0006578703d00290a006c617267652d3330303a4f4b0a006c617267652d6465663a2c
:20ede0004641494c28676f743d002c6578703d00290a006c617267652d6465663a4f4b0a1a
:20ee00000053554954453a4641494c28002f00290a0053554954453a504153532800290a32
:20ee200000ae62e68027048d0520f839ec62c10a26088d06c60d2002ec62b6c0008502270d
:20ee4000f9f7c00139b6c00085012614ccffff39b6c0005f8401398d07c10d2602c60a3969
:20ee6000b6c000850127f9f6c0014f39ee648e00008de4c17f2714c1082710c10a2723acaa
:20ee80006224eee7c030018db120e68c000027e1c6088da6c6208da2c6088d9e301f335f5e
:09eea00020cf6fc48d881f1039ca
:10fff000e000e000e000e000e000e000e000e00001
:00000001FF
