:20e0000010ce7f007f0132bde39b20fe3416a661e6633d3406a662e6653debe4e7e4a66354
:20e02000e6643debe4e7e435063264393416a8621f02ece42a048d15ede4ec622a048d0db9
:20e04000ed621f204d35162a0a8d0d1f104353c30001398d031f103934164f5f8e00111c5f
:20e06000fe69636962301f270d594910a3e425efa3e41a0120eb326235901e018c00002763
:20e08000065849301f26fa391e018c000027f84456301f26fa393406ace12e29201e34068f
:20e0a000ace12c2120163406ace12d19200e3406ace12f1120063406ace127094f5f3934d6
:20e0c00006ace127f7cc0001393406ace122f620eb3406ace124ee20e33406ace125e620d1
:20e0e000db3406ace123de20d31083000026cd20d4aec1270710a3c126f76e846ed4ec6260
:20e100001f01cc000abde0d110270011ec621f01cc000abde0533406bde0fe3262ec621f49
:20e1200001cc000abde058c300301d3406bdf153326239327eec648e8000bde0b610270063
:20e140000dcced653406bdf13c32627ee193ec641f01cc0000bde0a610270013cc002d34f4
:20e1600006bdf1533262ec644353c30001ed64ec64ed60ec60108300001027000cec6034ca
:20e1800006bde0fe32627ee193cc00303406bdf1533262326239ec62108300001027000c9c
:20e1a000ec623406bde0fe32627ee1b6cc00303406bdf153326239327eec641f01cc001093
:20e1c000bde0d110270011ec641f01cc0004bde0883406bde1b73262ec648400c40fed600d
:20e1e000ec601f01cc000abde0a610270010ec60c300301d3406bdf15332627ee20eec606e
:20e20000c3004183000a1d3406bdf1533262326239327ecc0000ed60ec64830001ed64c303
:20e22000000110270015ec66c30002ed668300021f03ec60e3c4ed607ee218ec60326239af
:20e24000327acc0000ed60ec68830001ed62ec601f01ec62bde0a61027003fec605849ee84
:20e260006a33cbecc4ed64ec605849ee6a33cb3440ec645849ee6c33cbecc4edf1ec625801
:20e2800049ee6a33cbec64edc4ec60c30001ed60ec62830001ed627ee24e326639327eec45
:20e2a00064ed60ee60e6c41027000aec60c30001ed607ee2a3ec60a364326239327aec6cf0
:20e2c000ed64cc0000ed60ec601f01ec6abde0a61027001e2009ec60c30001ed6020e8ec00
:20e2e00064c30001ed648300011f03e669e7c47ee2d6cc0000ed62ec6ced64cc0000ed60f2
:20e30000ec601f01ec6abde0a6102700212009ec60c30001ed6020e8ec64c30001ed64832a
:20e3200000011f03e6c41de362ed627ee30fec62326639327ccc0000ed60ec601f01cc00d1
:20e3400003bde0a6102700502009ec60c30001ed6020e7cc0000ed62ec621f01cc0004bd4d
:20e36000e0a61027002f2009ec62c30001ed6220e7ec605849584958493406ec645849e3e3
:20e38000e1ce010633cbec608e000abde00ce362edc47ee3687ee34a3264393278cced6c34
:20e3a0003406bdf13c3262cc0000ce011e33cbcc0001edc4cc0002ce011e33cbcc0002edfc
:20e3c000c4cc0004ce011e33cbcc0003edc4cc0006ce011e33cbcc0004edc4cc0008ce015d
:20e3e0001e33cbcc0005edc4cc000ace011e33cbcc0006edc4cc0000ce011e33cbecc48351
:20e40000000110270045cced7a3406bdf13c3262cc0000ce011e33cbecc43406bde13332f0
:20e4200062cced8a3406bdf13c3262cc00013406bde1333262cced903406bdf13c3262fc16
:20e440000104c30001fd01047ee45ecced933406bdf13c3262fc0102c30001fd0102cc009e
:20e460000ace011e33cbecc483000610270045cced9d3406bdf13c3262cc000ace011e33ee
:20e48000cbecc43406bde1333262ccedad3406bdf13c3262cc00063406bde1333262cced1a
:20e4a000b33406bdf13c3262fc0104c30001fd01047ee4c7ccedb63406bdf13c3262fc01dd
:20e4c00002c30001fd0102ce011e1f303406cc00063406bde21132648300151027004cccc7
:20e4e000edc03406bdf13c3262ce011e1f303406cc00063406bde21132643406bde13332b2
:20e5000062ccedd23406bdf13c3262cc00153406bde1333262ccedd83406bdf13c3262fc91
:20e520000104c30001fd01047ee53ecceddb3406bdf13c3262fc0102c30001fd0102cc0094
:20e540002aed6233621f30ed60ee60ecc483002a1027003fccede73406bdf13c3262ee604a
:20e56000ecc43406bde1333262ccedfc3406bdf13c3262cc002a3406bde1333262ccee028e
:20e580003406bdf13c3262fc0104c30001fd01047ee5a6ccee053406bdf13c3262fc01027d
:20e5a000c30001fd0102ee60cc0063edc4ec628300631027003dccee143406bdf13c32623b
:20e5c000ec623406bde1333262ccee2c3406bdf13c3262cc00633406bde1333262ccee32f6
:20e5e0003406bdf13c3262fc0104c30001fd01047ee606ccee353406bdf13c3262fc01028c
:20e60000c30001fd0102ce011e1f30ed60cc0000ee6033cbecc483000110270044ccee47e5
:20e620003406bdf13c3262cc0000ee6033cbecc43406bde1333262ccee583406bdf13c3253
:20e6400062cc00013406bde1333262ccee5e3406bdf13c3262fc0104c30001fd01047ee6f1
:20e6600074ccee613406bdf13c3262fc0102c30001fd0102cc0002ee6033cbecc483000241
:20e6800010270044ccee6c3406bdf13c3262cc0002ee6033cbecc43406bde1333262cceefe
:20e6a0007d3406bdf13c3262cc00023406bde1333262ccee833406bdf13c3262fc0104c3ff
:20e6c0000001fd01047ee6dbccee863406bdf13c3262fc0102c30001fd0102cc000aee6019
:20e6e00033cbecc483000610270044ccee913406bdf13c3262cc000aee6033cbecc4340659
:20e70000bde1333262cceea23406bdf13c3262cc00063406bde1333262cceea83406bdf1c5
:20e720003c3262fc0104c30001fd01047ee742cceeab3406bdf13c3262fc0102c30001fdbe
:20e740000102ce011e1f30ed60ec60c30002ed608300021f03ecc483000110270049cceeba
:20e76000b63406bdf13c3262ec60c30002ed608300021f03ecc43406bde1333262cceecc51
:20e780003406bdf13c3262cc00013406bde1333262cceed23406bdf13c3262fc0104c3004d
:20e7a00001fd01047ee7bacceed53406bdf13c3262fc0102c30001fd0102ee60ecc48300ac
:20e7c000021027003fcceee53406bdf13c3262ee60ecc43406bde1333262cceef93406bd23
:20e7e000f13c3262cc00023406bde1333262cceeff3406bdf13c3262fc0104c30001fd01b7
:20e80000047ee817ccef023406bdf13c3262fc0102c30001fd0102ec60830002ed601f03ff
:20e82000ecc483000110270046ccef103406bdf13c3262ec60830002ed601f03ecc434067a
:20e84000bde1333262ccef253406bdf13c3262cc00013406bde1333262ccef2b3406bdf181
:20e860003c3262fc0104c30001fd01047ee882ccef2e3406bdf13c3262fc0102c30001fdb8
:20e880000102ce011e1f303406cc00063406bde2403264cc0000ce011e33cbecc48300068e
:20e8a00010270045ccef3d3406bdf13c3262cc0000ce011e33cbecc43406bde1333262cc5a
:20e8c000ef4d3406bdf13c3262cc00063406bde1333262ccef533406bdf13c3262fc01040c
:20e8e000c30001fd01047ee8fcccef563406bdf13c3262fc0102c30001fd0102cc000acec0
:20e90000011e33cbecc483000110270045ccef603406bdf13c3262cc000ace011e33cbecaa
:20e92000c43406bde1333262ccef703406bdf13c3262cc00013406bde1333262ccef7634c0
:20e9400006bdf13c3262fc0104c30001fd01047ee965ccef793406bdf13c3262fc0102c3f2
:20e960000001fd0102ccef833406bde29d326283000010270045ccef843406bdf13c326258
:20e98000ccef9a3406bde29d32623406bde1333262ccef9b3406bdf13c3262cc0000340665
:20e9a000bde1333262ccefa13406bdf13c3262fc0104c30001fd01047ee9ceccefa4340649
:20e9c000bdf13c3262fc0102c30001fd0102ccefb43406bde29d326283000510270045ccad
:20e9e000efba3406bdf13c3262ccefd03406bde29d32623406bde1333262ccefd63406bdfa
:20ea0000f13c3262cc00053406bde1333262ccefdc3406bdf13c3262fc0104c30001fd01b3
:20ea2000047eea37ccefdf3406bdf13c3262fc0102c30001fd0102ce012a1f303406cc00d0
:20ea4000043406cc00031d3406bde2bc3266ed66ec6683000c1027003dccefef3406bdf125
:20ea60003c3262ec663406bde1333262ccf0023406bdf13c3262cc000c3406bde1333262e8
:20ea8000ccf0083406bdf13c3262fc0104c30001fd01047eeaa9ccf00b3406bdf13c3262a3
:20eaa000fc0102c30001fd0102bde333cc0000ce010633cbecc483000010270045ccf0189e
:20eac0003406bdf13c3262cc0000ce010633cbecc43406bde1333262ccf02b3406bdf13c85
:20eae0003262cc00003406bde1333262ccf0313406bdf13c3262fc0104c30001fd01047e2d
:20eb0000eb15ccf0343406bdf13c3262fc0102c30001fd0102cc000cce010633cbecc483ac
:20eb2000000c10270045ccf0413406bdf13c3262cc000cce010633cbecc43406bde1333200
:20eb400062ccf0543406bdf13c3262cc000c3406bde1333262ccf05a3406bdf13c3262fc4a
:20eb60000104c30001fd01047eeb7eccf05d3406bdf13c3262fc0102c30001fd0102cc0083
:20eb800016ce010633cbecc483001710270045ccf06a3406bdf13c3262cc0016ce010633fe
:20eba000cbecc43406bde1333262ccf07d3406bdf13c3262cc00173406bde1333262ccf00c
:20ebc000833406bdf13c3262fc0104c30001fd01047eebe7ccf0863406bdf13c3262fc01ec
:20ebe00002c30001fd0102cc0002ed64ec648300021027003dccf0933406bdf13c3262ecf4
:20ec0000643406bde1333262ccf0a83406bdf13c3262cc00023406bde1333262ccf0ae34ca
:20ec200006bdf13c3262fc0104c30001fd01047eec45ccf0b13406bdf13c3262fc0102c3f3
:20ec40000001fd0102cc0001ed64ec648300011027003dccf0c03406bdf13c3262ec643495
:20ec600006bde1333262ccf0d63406bdf13c3262cc00013406bde1333262ccf0dc3406bde4
:20ec8000f13c3262fc0104c30001fd01047eeca3ccf0df3406bdf13c3262fc0102c30001c9
:20eca000fd0102cc000ced64ec6483000c1027003dccf0ef3406bdf13c3262ec643406bd2e
:20ecc000e1333262ccf1043406bdf13c3262cc000c3406bde1333262ccf10a3406bdf13cb1
:20ece0003262fc0104c30001fd01047eed01ccf10d3406bdf13c3262fc0102c30001fd010a
:20ed000002fc01041083000010270038ccf11c3406bdf13c3262fc01043406bde1333262bd
:20ed2000ccf1283406bdf13c3262fc0102f301043406bde1333262ccf12a3406bdf13c3263
:20ed4000627eed62ccf12d3406bdf13c3262fc01023406bde1333262ccf1393406bdf13c2a
:20ed600032623268392d3332373638007430335f706f696e746572730a006964782d303a65
:20ed80004641494c28676f743d002c6578703d00290a006964782d303a4f4b0a00696478fa
:20eda0002d353a4641494c28676f743d002c6578703d00290a006964782d353a4f4b0a007e
:20edc00073756d2d7074723a4641494c28676f743d002c6578703d00290a0073756d2d707b
:20ede00074723a4f4b0a00616464722d64657265663a4641494c28676f743d002c65787003
:20ee00003d00290a00616464722d64657265663a4f4b0a0073746f72652d7669612d70742b
:20ee2000723a4641494c28676f743d002c6578703d00290a0073746f72652d7669612d703b
:20ee400074723a4f4b0a00707375622d303a4641494c28676f743d002c6578703d00290ae9
:20ee600000707375622d303a4f4b0a00707375622d313a4641494c28676f743d002c657877
:20ee8000703d00290a00707375622d313a4f4b0a00707375622d353a4641494c28676f74b8
:20eea0003d002c6578703d00290a00707375622d353a4f4b0a007074722d706f7374696e12
:20eec000633a4641494c28676f743d002c6578703d00290a007074722d706f7374696e635e
:20eee0003a4f4b0a007074722d61667465723a4641494c28676f743d002c6578703d0029bb
:20ef00000a007074722d61667465723a4f4b0a007074722d7072656465633a4641494c2800
:20ef2000676f743d002c6578703d00290a007074722d7072656465633a4f4b0a0072657640
:20ef40002d303a4641494c28676f743d002c6578703d00290a007265762d303a4f4b0a00de
:20ef60007265762d353a4641494c28676f743d002c6578703d00290a007265762d353a4fbc
:20ef80004b0a00006d792d7374726c656e2d303a4641494c28676f743d00002c6578703d59
:20efa00000290a006d792d7374726c656e2d303a4f4b0a0068656c6c6f006d792d737472b8
:20efc0006c656e2d353a4641494c28676f743d0068656c6c6f002c6578703d00290a006d21
:20efe000792d7374726c656e2d353a4f4b0a0066696c6c2d73756d3a4641494c28676f74a2
:20f000003d002c6578703d00290a0066696c6c2d73756d3a4f4b0a00677269642d302d3063
:20f020003a4641494c28676f743d002c6578703d00290a00677269642d302d303a4f4b0aa4
:20f0400000677269642d312d323a4641494c28676f743d002c6578703d00290a006772691d
:20f06000642d312d323a4f4b0a00677269642d322d333a4641494c28676f743d002c65781e
:20f08000703d00290a00677269642d322d333a4f4b0a0073697a656f662d696e743a464184
:20f0a000494c28676f743d002c6578703d00290a0073697a656f662d696e743a4f4b0a003d
:20f0c00073697a656f662d636861723a4641494c28676f743d002c6578703d00290a007374
:20f0e000697a656f662d636861723a4f4b0a0073697a656f662d6172723a4641494c286763
:20f100006f743d002c6578703d00290a0073697a656f662d6172723a4f4b0a0053554954c1
:20f12000453a4641494c28002f00290a0053554954453a504153532800290a00ae62e680de
:20f1400027048d0520f839ec62c10a26088d06c60d2002ec62b6c000850227f9f7c0013976
:20f16000b6c00085012614ccffff39b6c0005f8401398d07c10d2602c60a39b6c000850134
:20f1800027f9f6c0014f39ee648e00008de4c17f2714c1082710c10a2723ac6224eee7c068
:20f1a00030018db120e68c000027e1c6088da6c6208da2c6088d9e301f335f20cf6fc48da7
:04f1c000881f10395b
:10fff000e000e000e000e000e000e000e000e00001
:00000001FF
