:20e0000010ce7f007f0146bde21120fe3416a661e6633d3406a662e6653debe4e7e4a663cb
:20e02000e6643debe4e7e435063264393416a8621f02ece42a048d15ede4ec622a048d0db9
:20e04000ed621f204d35162a0a8d0d1f104353c30001398d031f103934164f5f8e00111c5f
:20e06000fe69636962301f270d594910a3e425efa3e41a0120eb326235901e018c00002763
:20e08000065849301f26fa391e018c000027f84456301f26fa393406ace12e29201e34068f
:20e0a000ace12c2120163406ace12d19200e3406ace12f1120063406ace127094f5f3934d6
:20e0c00006ace127f7cc0001393406ace122f620eb3406ace124ee20e33406ace125e620d1
:20e0e000db3406ace123de20d31083000026cd20d4aec1270710a3c126f76e846ed4ec6260
:20e100001f01cc000abde0d110270011ec621f01cc000abde0533406bde0fe3262ec621f49
:20e1200001cc000abde058c300301d3406bdf2ec326239327eec648e8000bde0b6102700c9
:20e140000dcced313406bdf2d532627ee193ec641f01cc0000bde0a610270013cc002d348e
:20e1600006bdf2ec3262ec644353c30001ed64ec64ed60ec60108300001027000cec603430
:20e1800006bde0fe32627ee193cc00303406bdf2ec3262326239ec62108300001027000c02
:20e1a000ec623406bde0fe32627ee1b6cc00303406bdf2ec326239327eec641f01cc0010f9
:20e1c000bde0d110270011ec641f01cc0004bde0883406bde1b73262ec648400c40fed600d
:20e1e000ec601f01cc000abde0a610270010ec60c300301d3406bdf2ec32627ee20eec60d4
:20e20000c3004183000a1d3406bdf2ec3262326239327ecced383406bdf2d53262cced4529
:20e220003406bdf376326283000010270045cced463406bdf2d53262cced5d3406bdf37624
:20e2400032623406bde1333262cced5e3406bdf2d53262cc00003406bde1333262cced649a
:20e260003406bdf2d53262fc0104c30001fd01047ee286cced673406bdf2d53262fc01022e
:20e28000c30001fd0102cced783406bdf376326283000110270045cced7a3406bdf2d53272
:20e2a00062cced8d3406bdf37632623406bde1333262cced8f3406bdf2d53262cc00013488
:20e2c00006bde1333262cced953406bdf2d53262fc0104c30001fd01047ee2efcced983498
:20e2e00006bdf2d53262fc0102c30001fd0102cceda53406bdf376326283000510270045e7
:20e30000ccedab3406bdf2d53262ccedc23406bdf37632623406bde1333262ccedc834067e
:20e32000bdf2d53262cc00053406bde1333262ccedce3406bdf2d53262fc0104c30001fdba
:20e3400001047ee358ccedd13406bdf2d53262fc0102c30001fd0102ccede23406bdf37665
:20e36000326283000610270045ccede93406bdf2d53262ccee003406bdf37632623406bd6b
:20e38000e1333262ccee073406bdf2d53262cc00063406bde1333262ccee0d3406bdf2d5cc
:20e3a0003262fc0104c30001fd01047ee3c1ccee103406bdf2d53262fc0102c30001fd0103
:20e3c00002ce01061f303406ccee213406bdf38d3264ce01061f303406ccee273406bdf3cc
:20e3e0005d32641083000010260016ccee2d3406bdf2d53262fc0102c30001fd01027ee4ed
:20e400003eccee3e3406bdf2d53262ce01061f303406bdf2d53262ccee513406bdf2d53203
:20e4200062ccee543406bdf2d53262ccee5a3406bdf2d53262fc0104c30001fd0104ce011e
:20e44000061f303406ccee5d3406bdf38d3264ce01061f303406ccee5e3406bdf35d3264b6
:20e460001083000010260016ccee5f3406bdf2d53262fc0102c30001fd01027ee4bbcceeb8
:20e48000703406bdf2d53262ce01061f303406bdf2d53262ccee833406bdf2d53262cceefb
:20e4a000863406bdf2d53262ccee873406bdf2d53262fc0104c30001fd0104ce01061f3006
:20e4c0003406ccee8a3406bdf38d3264ce01061f303406bdf376326283000710270047ccc5
:20e4e000ee923406bdf2d53262ce01061f303406bdf37632623406bde1333262cceea734fe
:20e5000006bdf2d53262cc00073406bde1333262cceead3406bdf2d53262fc0104c30001ed
:20e52000fd01047ee539cceeb03406bdf2d53262fc0102c30001fd0102ce01061f30340660
:20e54000cceebf3406bdf38d3264ce01061f303406cceec33406bdf3833264ce01061f3033
:20e560003406cceec73406bdf35d32641083000010260016cceece3406bdf2d53262fc014d
:20e5800002c30001fd01027ee5c7cceedf3406bdf2d53262ce01061f303406bdf2d532622a
:20e5a000cceef23406bdf2d53262cceef53406bdf2d53262cceefc3406bdf2d53262fc0157
:20e5c00004c30001fd0104ce01061f303406bdf376326283000610270047cceeff3406bda2
:20e5e000f2d53262ce01061f303406bdf37632623406bde1333262ccef143406bdf2d5324a
:20e6000062cc00063406bde1333262ccef1a3406bdf2d53262fc0104c30001fd01047ee6d5
:20e6200034ccef1d3406bdf2d53262fc0102c30001fd0102ce01061f303406ccef2c34063a
:20e64000bdf38d3264ce01061f303406ccef2d3406bdf3833264ce01061f303406ccef3154
:20e660003406bdf35d32641083000010260016ccef353406bdf2d53262fc0102c30001fddc
:20e6800001027ee6c2ccef4a3406bdf2d53262ce01061f303406bdf2d53262ccef6134062e
:20e6a000bdf2d53262ccef643406bdf2d53262ccef683406bdf2d53262fc0104c30001fd9a
:20e6c0000104ce01061f303406ccef6b3406bdf38d3264ce01061f303406ccef713406bd23
:20e6e000f3833264ce01061f303406ccef723406bdf35d32641083000010260016ccef7894
:20e700003406bdf2d53262fc0102c30001fd01027ee750ccef8d3406bdf2d53262ce0106c0
:20e720001f303406bdf2d53262ccefa43406bdf2d53262ccefa73406bdf2d53262ccefad6b
:20e740003406bdf2d53262fc0104c30001fd0104ccefb03406ccefb43406bdf35d3264109f
:20e7600083000010260016ccefb83406bdf2d53262fc0102c30001fd01027ee790ccefc6cc
:20e780003406bdf2d53262fc0104c30001fd0104ccefdf3406ccefe03406bdf35d32641004
:20e7a00083000010260016ccefe13406bdf2d53262fc0102c30001fd01027ee7d0cceff2f7
:20e7c0003406bdf2d53262fc0104c30001fd0104ccf00e3406ccf0123406bdf35d32641061
:20e7e00083000010270016ccf0163406bdf2d53262fc0102c30001fd01027ee810ccf0260a
:20e800003406bdf2d53262fc0104c30001fd0104ccf03e3406ccf0423406bdf35d3264834d
:20e8200000011027004accf0463406bdf2d53262ccf05e3406ccf0623406bdf35d3264347f
:20e8400006bde1333262ccf0663406bdf2d53262cc00013406bde1333262ccf06c3406bd4e
:20e86000f2d53262fc0104c30001fd01047ee883ccf06f3406bdf2d53262fc0102c300014d
:20e88000fd0102ccf0813406ccf0853406bdf35d326483ffff1027004accf0893406bdf2b3
:20e8a000d53262ccf0a13406ccf0a53406bdf35d32643406bde1333262ccf0a93406bdf22d
:20e8c000d53262ccffff3406bde1333262ccf0af3406bdf2d53262fc0104c30001fd0104e2
:20e8e0007ee8f6ccf0b23406bdf2d53262fc0102c30001fd0102ce01261f303406ccf0c43b
:20e900003406bdf38d3264ce01061f303406ce01261f303406bdf38d3264ce01061f3034e3
:20e9200006ccf0cf3406bdf35d32641083000010260016ccf0da3406bdf2d53262fc0102a3
:20e94000c30001fd01027ee986ccf0e83406bdf2d53262ce01061f303406bdf2d53262ccce
:20e96000f0f83406bdf2d53262ccf0fb3406bdf2d53262ccf1063406bdf2d53262fc01043e
:20e98000c30001fd0104ce01061f303406ccf1093406bdf38d3264ce01061f303406cc0056
:20e9a0006f3406bdf3983264ed60ec6010270016ccf1153406bdf2d53262fc0102c3000103
:20e9c000fd01027ee9d9ccf1263406bdf2d53262fc0104c30001fd0104ee60e6c41d830063
:20e9e0006f10270040ccf13f3406bdf2d53262ee60e6c41d3406bde1333262ccf1553406e3
:20ea0000bdf2d53262cc006f3406bde1333262ccf15b3406bdf2d53262fc0104c30001fdd8
:20ea200001047eea38ccf15e3406bdf2d53262fc0102c30001fd0102ce01061f30fd0100df
:20ea4000ec60b3010083000410270048ccf16e3406bdf2d53262ce01061f30fd0100ec60c5
:20ea6000b301003406bde1333262ccf1863406bdf2d53262cc00043406bde1333262ccf182
:20ea80008c3406bdf2d53262fc0104c30001fd01047eeaa7ccf18f3406bdf2d53262fc0127
:20eaa00002c30001fd0102ce01061f303406cc00773406bdf3983264ed60ec6010270016f1
:20eac000ccf1a13406bdf2d53262fc0102c30001fd01027eeae9ccf1ae3406bdf2d53262b5
:20eae000fc0104c30001fd0104ce01061f30fd0100ec60b3010083000610270048ccf1c3a5
:20eb00003406bdf2d53262ce01061f30fd0100ec60b301003406bde1333262ccf1da340611
:20eb2000bdf2d53262cc00063406bde1333262ccf1e03406bdf2d53262fc0104c30001fd9b
:20eb400001047eeb58ccf1e33406bdf2d53262fc0102c30001fd0102ce01061f303406cc10
:20eb6000007a3406bdf3983264ed60ec6010260016ccf1f43406bdf2d53262fc0102c30059
:20eb800001fd01027eeb9accf2073406bdf2d53262fc0104c30001fd0104ce01061f30343b
:20eba00006cc00683406bdf3983264ed60ce01061f30fd0100ec60b30100830000102700da
:20ebc00048ccf2253406bdf2d53262ce01061f30fd0100ec60b301003406bde1333262cc2b
:20ebe000f23c3406bdf2d53262cc00003406bde1333262ccf2423406bdf2d53262fc0104d7
:20ec0000c30001fd01047eec1cccf2453406bdf2d53262fc0102c30001fd0102ce01061f9c
:20ec2000303406cc00003406bdf3983264ed60ec6010270016ccf2563406bdf2d53262fc3e
:20ec40000102c30001fd01027eec5eccf2663406bdf2d53262fc0104c30001fd0104ce0119
:20ec6000061f30fd0100ec60b3010083000b10270048ccf27e3406bdf2d53262ce01061fb2
:20ec800030fd0100ec60b301003406bde1333262ccf2983406bdf2d53262cc000b3406bd31
:20eca000e1333262ccf29e3406bdf2d53262fc0104c30001fd01047eeccdccf2a13406bdaa
:20ecc000f2d53262fc0102c30001fd0102fc01041083000010270038ccf2b53406bdf2d5e2
:20ece0003262fc01043406bde1333262ccf2c13406bdf2d53262fc0102f301043406bde140
:20ed0000333262ccf2c33406bdf2d532627eed2eccf2c63406bdf2d53262fc01023406bdf4
:20ed2000e1333262ccf2d23406bdf2d532623262392d3332373638007430345f737472694c
:20ed40006e67730a00007374726c656e2d656d7074793a4641494c28676f743d00002c65d7
:20ed600078703d00290a007374726c656e2d656d7074793a4f4b0a0078007374726c656e59
:20ed80002d313a4641494c28676f743d0078002c6578703d00290a007374726c656e2d31b9
:20eda0003a4f4b0a0068656c6c6f007374726c656e2d68656c6c6f3a4641494c28676f74c0
:20edc0003d0068656c6c6f002c6578703d00290a007374726c656e2d68656c6c6f3a4f4b4c
:20ede0000a00616263313233007374726c656e2d6d697865643a4641494c28676f743d006c
:20ee0000616263313233002c6578703d00290a007374726c656e2d6d697865643a4f4b0a93
:20ee20000068656c6c6f0068656c6c6f007374726370792d62617369633a4f4b0a00737411
:20ee4000726370792d62617369633a4641494c2800213d0068656c6c6f00290a000000732f
:20ee600074726370792d656d7074793a4f4b0a007374726370792d656d7074793a4641491b
:20ee80004c2800213d0000290a004d6963726f2d43007374726370792d6c656e3a464149e8
:20eea0004c28676f743d002c6578703d00290a007374726370792d6c656e3a4f4b0a006619
:20eec0006f6f0062617200666f6f626172007374726361742d62617369633a4f4b0a007395
:20eee00074726361742d62617369633a4641494c2800213d00666f6f62617200290a0073ca
:20ef000074726361742d6c656e3a4641494c28676f743d002c6578703d00290a0073747220
:20ef20006361742d6c656e3a4f4b0a000062617a0062617a007374726361742d656d707461
:20ef4000792d6473743a4f4b0a007374726361742d656d7074792d6473743a4641494c28ff
:20ef600000213d0062617a00290a0068656c6c6f000068656c6c6f007374726361742d6578
:20ef80006d7074792d7372633a4f4b0a007374726361742d656d7074792d7372633a464131
:20efa000494c2800213d0068656c6c6f00290a006162630061626300737472636d702d6578
:20efc000713a4f4b0a00737472636d702d65713a4641494c286e6f6e7a65726f290a00008a
:20efe00000737472636d702d656d7074793a4f4b0a00737472636d702d656d7074793a46c9
:20f0000041494c286e6f6e7a65726f290a006162630061626400737472636d702d6469666e
:20f02000663a4f4b0a00737472636d702d646966663a4641494c287a65726f290a006162f9
:20f04000630061626400737472636d702d696e762d6c743a4641494c28676f743d0061623e
:20f060006300616264002c6578703d00290a00737472636d702d696e762d6c743a4f4b0a1f
:20f08000006162640061626300737472636d702d696e762d67743a4641494c28676f743d03
:20f0a0000061626400616263002c6578703d00290a00737472636d702d696e762d67743ac5
:20f0c0004f4b0a00726f756e642d7472697000726f756e642d7472697000726f756e6474c8
:20f0e0007269703a4f4b0a00726f756e64747269703a4641494c2800213d00726f756e64fc
:20f100002d7472697000290a0068656c6c6f20776f726c64007374726368722d666f756ef9
:20f12000643a4f4b0a007374726368722d666f756e643a4641494c287a65726f290a0073ca
:20f1400074726368722d636861723a4641494c28676f743d002c6578703d00290a007374ec
:20f16000726368722d636861723a4f4b0a007374726368722d6f66667365743a4641494c97
:20f1800028676f743d002c6578703d00290a007374726368722d6f66667365743a4f4b0aaf
:20f1a000007374726368722d773a4f4b0a007374726368722d773a4641494c287a65726fbf
:20f1c000290a007374726368722d772d6f66663a4641494c28676f743d002c6578703d009f
:20f1e000290a007374726368722d772d6f66663a4f4b0a007374726368722d6d6973736974
:20f200006e673a4f4b0a007374726368722d6d697373696e673a4641494c286e6f6e7a65d6
:20f22000726f290a007374726368722d66697273743a4641494c28676f743d002c65787051
:20f240003d00290a007374726368722d66697273743a4f4b0a007374726368722d6e756c63
:20f260006c3a4f4b0a007374726368722d6e756c6c3a4641494c287a65726f290a0073746e
:20f28000726368722d6e756c6c2d6f66663a4641494c28676f743d002c6578703d00290a81
:20f2a000007374726368722d6e756c6c2d6f66663a4f4b0a0053554954453a4641494c2882
:20f2c000002f00290a0053554954453a504153532800290a00ae62e68027048d0520f839f2
:20f2e000ec62c10a26088d06c60d2002ec62b6c000850227f9f7c00139b6c00085012614ad
:20f30000ccffff39b6c0005f8401398d07c10d2602c60a39b6c000850127f9f6c0014f3969
:20f32000ee648e00008de4c17f2714c1082710c10a2723ac6224eee7c030018db120e68c24
:20f34000000027e1c6088da6c6208da2c6088d9e301f335f20cf6fc48d881f1039ae62ee18
:20f3600064a680a1c0250722094d26f55f39ccffff39cc000139ae624f5f6d802719c30094
:20f380000120f7ee64a6c026fc335f2002ee64ae62e680e7c026fa39ae64ec62e18427070c
:0af3a0006d8026f88e00001f103962
:10fff000e000e000e000e000e000e000e000e00001
:00000001FF
