:20e0000010ce7f007f0124bde29f20fe3416a661e6633d3406a662e6653debe4e7e4a6635f
:20e02000e6643debe4e7e435063264393416a8621f02ece42a048d15ede4ec622a048d0db9
:20e04000ed621f204d35162a0a8d0d1f104353c30001398d031f103934164f5f8e00111c5f
:20e06000fe69636962301f270d594910a3e425efa3e41a0120eb326235901e018c00002763
:20e08000065849301f26fa391e018c000027f84456301f26fa393406ace12e29201e34068f
:20e0a000ace12c2120163406ace12d19200e3406ace12f1120063406ace127094f5f3934d6
:20e0c00006ace127f7cc0001393406ace122f620eb3406ace124ee20e33406ace125e620d1
:20e0e000db3406ace123de20d31083000026cd20d4aec1270710a3c126f76e846ed4ec6260
:20e100001f01cc000abde0d110270011ec621f01cc000abde0533406bde0fe3262ec621f49
:20e1200001cc000abde058c300301d3406bdf309326239327eec648e8000bde0b6102700ab
:20e140000dccee813406bdf2f232627ee193ec641f01cc0000bde0a610270013cc002d3420
:20e1600006bdf3093262ec644353c30001ed64ec64ed60ec60108300001027000cec603412
:20e1800006bde0fe32627ee193cc00303406bdf3093262326239ec62108300001027000ce4
:20e1a000ec623406bde0fe32627ee1b6cc00303406bdf309326239327eec641f01cc0010db
:20e1c000bde0d110270011ec641f01cc0004bde0883406bde1b73262ec648400c40fed600d
:20e1e000ec601f01cc000abde0a610270010ec60c300301d3406bdf30932627ee20eec60b6
:20e20000c3004183000a1d3406bdf3093262326239ee66ec64edc4ee66cc000233cbec6239
:20e22000edc439ee643440ee64ecc4edf1ee64cc000233cb3440ee64cc000233cbecc4ed01
:20e24000f139327cee66cc000433cb3440ee68ecf1a3c4ed60ee66cc000433cbcc00023346
:20e26000cb3440ee68cc000233cbecf1a3c4ed62ec60ae62bde00c326439ee643440ee64be
:20e28000ecf1e3c4ee643406cc000233cbece1e3c4ee623406cc000233cbece1e3c43932f9
:20e2a0007eccee883406bdf2f23262ce0106cc000aedc4ce0106cc000233cbcc0014edc4a1
:20e2c000ce0106ecc483000a10270040ccee953406bdf2f23262ce0106ecc43406bde13367
:20e2e0003262cceea53406bdf2f23262cc000a3406bde1333262cceeab3406bdf2f2326273
:20e30000fc0104c30001fd01047ee31fcceeae3406bdf2f23262fc0102c30001fd0102ce4e
:20e320000106cc000233cbecc483001410270045cceeb83406bdf2f23262ce0106cc0002c3
:20e3400033cbecc43406bde1333262cceec83406bdf2f23262cc00143406bde1333262cc34
:20e36000eece3406bdf2f23262fc0104c30001fd01047ee388cceed13406bdf2f23262fccc
:20e380000102c30001fd0102ce01061f303406cc00033406cc00073406bde2113266ce012b
:20e3a00006ecc483000310270040cceedb3406bdf2f23262ce0106ecc43406bde133326282
:20e3c000cceeed3406bdf2f23262cc00033406bde1333262cceef33406bdf2f23262fc01a0
:20e3e00004c30001fd01047ee3fdcceef63406bdf2f23262fc0102c30001fd0102ce01063e
:20e40000cc000233cbecc483000710270045ccef023406bdf2f23262ce0106cc000233cbad
:20e42000ecc43406bde1333262ccef143406bdf2f23262cc00073406bde1333262ccef1a08
:20e440003406bdf2f23262fc0104c30001fd01047ee466ccef1d3406bdf2f23262fc010278
:20e46000c30001fd0102ce010a1f303406ce01061f303406bde2233264ce010aecc48300b4
:20e480000310270040ccef293406bdf2f23262ce010aecc43406bde1333262ccef3a340658
:20e4a000bdf2f23262cc00033406bde1333262ccef403406bdf2f23262fc0104c30001fd8d
:20e4c00001047ee4d8ccef433406bdf2f23262fc0102c30001fd0102ce010acc000233cb28
:20e4e000ecc483000710270045ccef4e3406bdf2f23262ce010acc000233cbecc43406bda2
:20e50000e1333262ccef5f3406bdf2f23262cc00073406bde1333262ccef653406bdf2f25d
:20e520003262fc0104c30001fd01047ee541ccef683406bdf2f23262fc0102c30001fd0189
:20e5400002ce010acc0063edc4ce0106ecc483000310270040ccef733406bdf2f23262ce13
:20e560000106ecc43406bde1333262ccef873406bdf2f23262cc00033406bde1333262cc5a
:20e58000ef8d3406bdf2f23262fc0104c30001fd01047ee5a8ccef903406bdf2f23262fc08
:20e5a0000102c30001fd0102ce010aecc483006310270040ccef9e3406bdf2f23262ce0117
:20e5c0000aecc43406bde1333262ccefb13406bdf2f23262cc00633406bde1333262ccef7e
:20e5e000b73406bdf2f23262fc0104c30001fd01047ee607ccefba3406bdf2f23262fc01e2
:20e6000002c30001fd0102ce010ecc0000edc4ce010ecc000233cbcc0000edc4ce010ecc0b
:20e62000000433cbcc0008edc4ce010ecc000433cbcc000233cbcc0005edc4ce010eecc4cd
:20e6400083000010270040ccefc73406bdf2f23262ce010eecc43406bde1333262ccefdb0d
:20e660003406bdf2f23262cc00003406bde1333262ccefe13406bdf2f23262fc0104c300f1
:20e6800001fd01047ee69accefe43406bdf2f23262fc0102c30001fd0102ce010ecc0004fb
:20e6a00033cbcc000233cbecc48300051027004acceff23406bdf2f23262ce010ecc00040e
:20e6c00033cbcc000233cbecc43406bde1333262ccf0063406bdf2f23262cc00053406bd28
:20e6e000e1333262ccf00c3406bdf2f23262fc0104c30001fd01047ee70dccf00f3406bd40
:20e70000f2f23262fc0102c30001fd0102ce010e1f303406bde242326283002810270047ba
:20e72000ccf01d3406bdf2f23262ce010e1f303406bde24232623406bde1333262ccf02c2f
:20e740003406bdf2f23262cc00283406bde1333262ccf0323406bdf2f23262fc0104c30096
:20e7600001fd01047ee77accf0353406bdf2f23262fc0102c30001fd0102ce0106cc0001f2
:20e78000edc4ce0106cc000233cbcc0002edc4ce010acc0003edc4ce010acc000233cbccde
:20e7a0000004edc4ce01061f303406ce010a1f303406bde27a326483000a1027004eccf067
:20e7c0003e3406bdf2f23262ce01061f303406ce010a1f303406bde27a32643406bde13312
:20e7e0003262ccf0513406bdf2f23262cc000a3406bde1333262ccf0573406bdf2f2326212
:20e80000fc0104c30001fd01047ee81fccf05a3406bdf2f23262fc0102c30001fd0102ce96
:20e820000106ecc483000110270040ccf0673406bdf2f23262ce0106ecc43406bde13332d2
:20e8400062ccf07d3406bdf2f23262cc00013406bde1333262ccf0833406bdf2f23262fc98
:20e860000104c30001fd01047ee87eccf0863406bdf2f23262fc0102c30001fd0102ce01a6
:20e8800006cc000233cbecc483000210270045ccf0963406bdf2f23262ce0106cc0002335e
:20e8a000cbecc43406bde1333262ccf0ac3406bdf2f23262cc00023406bde1333262ccf03e
:20e8c000b23406bdf2f23262fc0104c30001fd01047ee8e7ccf0b53406bdf2f23262fc0126
:20e8e00002c30001fd0102cc0000ce011633cbc6ffe7c4cc0000ce011633cbcc000133cbb9
:20e90000c600e7c4cc0000ce011633cbcc000233cbc600e7c4cc0004ce011633cbc600e73a
:20e92000c4cc0004ce011633cbcc000133cbc6c8e7c4cc0004ce011633cbcc000233cbc617
:20e9400000e7c4cc0008ce011633cbc600e7c4cc0008ce011633cbcc000133cbc600e7c4f1
:20e96000cc0008ce011633cbcc000233cbc680e7c4cc0000ce011633cbe6c44f8300ff10e9
:20e98000270046ccf0c53406bdf2f23262cc0000ce011633cbe6c44f3406bde1333262cc07
:20e9a000f0d93406bdf2f23262cc00ff3406bde1333262ccf0df3406bdf2f23262fc0104aa
:20e9c000c30001fd01047ee9dcccf0e23406bdf2f23262fc0102c30001fd0102cc0004cec0
:20e9e000011633cbcc000133cbe6c44f8300c81027004bccf0f03406bdf2f23262cc000486
:20ea0000ce011633cbcc000133cbe6c44f3406bde1333262ccf1043406bdf2f23262cc00b4
:20ea2000c83406bde1333262ccf10a3406bdf2f23262fc0104c30001fd01047eea51ccf1fc
:20ea40000d3406bdf2f23262fc0102c30001fd0102cc0008ce011633cbcc000233cbe6c44a
:20ea60004f8300801027004bccf11b3406bdf2f23262cc0008ce011633cbcc000233cbe612
:20ea8000c44f3406bde1333262ccf12f3406bdf2f23262cc00803406bde1333262ccf1358c
:20eaa0003406bdf2f23262fc0104c30001fd01047eeac6ccf1383406bdf2f23262fc01028f
:20eac000c30001fd0102cc0004ed60ec608300041027003dccf1463406bdf2f23262ec6050
:20eae0003406bde1333262ccf15a3406bdf2f23262cc00043406bde1333262ccf16034062b
:20eb0000bdf2f23262fc0104c30001fd01047eeb24ccf1633406bdf2f23262fc0102c3001b
:20eb200001fd0102cc0004ed60ec608300041027003dccf1713406bdf2f23262ec6034064d
:20eb4000bde1333262ccf1853406bdf2f23262cc00043406bde1333262ccf18b3406bdf2ff
:20eb6000f23262fc0104c30001fd01047eeb82ccf18e3406bdf2f23262fc0102c30001fde3
:20eb80000102cc0008ed60ec608300081027003dccf19c3406bdf2f23262ec603406bde11a
:20eba000333262ccf1b03406bdf2f23262cc00083406bde1333262ccf1b63406bdf2f232bf
:20ebc00062fc0104c30001fd01047eebe0ccf1b93406bdf2f23262fc0102c30001fd01021b
:20ebe000ce0122cc1234edc4ce0122ecc48400c4ff83003410270044ccf1c73406bdf2f2e8
:20ec00003262ce0122ecc48400c4ff3406bde1333262ccf1df3406bdf2f23262cc0034349a
:20ec200006bde1333262ccf1e53406bdf2f23262fc0104c30001fd01047eec4fccf1e834ff
:20ec400006bdf2f23262fc0102c30001fd0102ce0122ecc41f01cc0008bde0888400c4ffb5
:20ec60008300121027004cccf1fa3406bdf2f23262ce0122ecc41f01cc0008bde088840018
:20ec8000c4ff3406bde1333262ccf2123406bdf2f23262cc00123406bde1333262ccf21880
:20eca0003406bdf2f23262fc0104c30001fd01047eecc6ccf21b3406bdf2f23262fc0102a7
:20ecc000c30001fd0102ce0122cc5678edc4ce0122e6c41d8400c4ff83005610270045cc14
:20ece000f22d3406bdf2f23262ce0122e6c41d8400c4ff3406bde1333262ccf2453406bdee
:20ed0000f2f23262cc00563406bde1333262ccf24b3406bdf2f23262fc0104c30001fd017f
:20ed2000047eed37ccf24e3406bdf2f23262fc0102c30001fd0102ce0122cc0000edc4ceb3
:20ed40000122cc00421de7c4ce0122ecc41f01cc0008bde0888400c4ff8300421027004c71
:20ed6000ccf2603406bdf2f23262ce0122ecc41f01cc0008bde0888400c4ff3406bde133fa
:20ed80003262ccf27f3406bdf2f23262cc00423406bde1333262ccf2853406bdf2f23262d4
:20eda000fc0104c30001fd01047eedbfccf2883406bdf2f23262fc0102c30001fd0102cc1e
:20edc0000002ed60ec608300021027003dccf2a13406bdf2f23262ec603406bde1333262e6
:20ede000ccf2b83406bdf2f23262cc00023406bde1333262ccf2be3406bdf2f23262fc01d9
:20ee000004c30001fd01047eee1dccf2c13406bdf2f23262fc0102c30001fd0102fc0104ed
:20ee20001083000010270038ccf2d23406bdf2f23262fc01043406bde1333262ccf2de3461
:20ee400006bdf2f23262fc0102f301043406bde1333262ccf2e03406bdf2f232627eee7eea
:20ee6000ccf2e33406bdf2f23262fc01023406bde1333262ccf2ef3406bdf2f23262326234
:20ee8000392d3332373638007430355f737472756374730a00646f742d783a4641494c283e
:20eea000676f743d002c6578703d00290a00646f742d783a4f4b0a00646f742d793a46416a
:20eec000494c28676f743d002c6578703d00290a00646f742d793a4f4b0a006172726f770f
:20eee0002d783a4641494c28676f743d002c6578703d00290a006172726f772d783a4f4bdb
:20ef00000a006172726f772d793a4641494c28676f743d002c6578703d00290a00617272e3
:20ef20006f772d793a4f4b0a00636f70792d783a4641494c28676f743d002c6578703d004c
:20ef4000290a00636f70792d783a4f4b0a00636f70792d793a4641494c28676f743d002cae
:20ef60006578703d00290a00636f70792d793a4f4b0a00636f70792d6f7269673a464149f2
:20ef80004c28676f743d002c6578703d00290a00636f70792d6f7269673a4f4b0a00636f44
:20efa00070792d6e65773a4641494c28676f743d002c6578703d00290a00636f70792d6ead
:20efc00065773a4f4b0a006e6573742d746c2d783a4641494c28676f743d002c6578703d50
:20efe00000290a006e6573742d746c2d783a4f4b0a006e6573742d62722d793a4641494cdd
:20f0000028676f743d002c6578703d00290a006e6573742d62722d793a4f4b0a00617265e1
:20f02000613a4641494c28676f743d002c6578703d00290a00617265613a4f4b0a00706139
:20f0400073732d76616c3a4641494c28676f743d002c6578703d00290a00706173732d7612
:20f06000616c3a4f4b0a007076616c2d6f7269672d783a4641494c28676f743d002c6578a1
:20f08000703d00290a007076616c2d6f7269672d783a4f4b0a007076616c2d6f7269672dbe
:20f0a000793a4641494c28676f743d002c6578703d00290a007076616c2d6f7269672d79b2
:20f0c0003a4f4b0a006172722d7078302d723a4641494c28676f743d002c6578703d002945
:20f0e0000a006172722d7078302d723a4f4b0a006172722d7078312d673a4641494c2867fb
:20f100006f743d002c6578703d00290a006172722d7078312d673a4f4b0a006172722d7007
:20f1200078322d623a4641494c28676f743d002c6578703d00290a006172722d7078322def
:20f14000623a4f4b0a0073697a656f662d70743a4641494c28676f743d002c6578703d0013
:20f16000290a0073697a656f662d70743a4f4b0a0073697a656f662d70783a4641494c28ba
:20f18000676f743d002c6578703d00290a0073697a656f662d70783a4f4b0a0073697a65c1
:20f1a0006f662d72633a4641494c28676f743d002c6578703d00290a0073697a656f662dcd
:20f1c00072633a4f4b0a00756e696f6e2d6c6f2d6d61736b3a4641494c28676f743d002c41
:20f1e0006578703d00290a00756e696f6e2d6c6f2d6d61736b3a4f4b0a00756e696f6e2d14
:20f2000068692d6d61736b3a4641494c28676f743d002c6578703d00290a00756e696f6e2d
:20f220002d68692d6d61736b3a4f4b0a00756e696f6e2d636861722d68693a4641494c28a9
:20f24000676f743d002c6578703d00290a00756e696f6e2d636861722d68693a4f4b0a006e
:20f26000756e696f6e2d636861722d746f2d696e742d68693a4641494c28676f743d002ce3
:20f280006578703d00290a00756e696f6e2d636861722d746f2d696e742d68693a4f4b0a59
:20f2a0000073697a656f662d756e696f6e3a4641494c28676f743d002c6578703d00290a7a
:20f2c0000073697a656f662d756e696f6e3a4f4b0a0053554954453a4641494c28002f0033
:20f2e000290a0053554954453a504153532800290a00ae62e68027048d0520f839ec62c1f2
:20f300000a26088d06c60d2002ec62b6c000850227f9f7c00139b6c00085012614ccffffd1
:20f3200039b6c0005f8401398d07c10d2602c60a39b6c000850127f9f6c0014f39ee648e33
:20f3400000008de4c17f2714c1082710c10a2723ac6224eee7c030018db120e68c000027bd
:1af36000e1c6088da6c6208da2c6088d9e301f335f20cf6fc48d881f103923
:10fff000e000e000e000e000e000e000e000e00001
:00000001FF
