:20e0000010ce7f007f0108bde2b220fe3416a661e6633d3406a662e6653debe4e7e4a66368
:20e02000e6643debe4e7e435063264393416a8621f02ece42a048d15ede4ec622a048d0db9
:20e04000ed621f204d35162a0a8d0d1f104353c30001398d031f103934164f5f8e00111c5f
:20e06000fe69636962301f270d594910a3e425efa3e41a0120eb326235901e018c00002763
:20e08000065849301f26fa391e018c000027f84456301f26fa393406ace12e29201e34068f
:20e0a000ace12c2120163406ace12d19200e3406ace12f1120063406ace127094f5f3934d6
:20e0c00006ace127f7cc0001393406ace122f620eb3406ace124ee20e33406ace125e620d1
:20e0e000db3406ace123de20d31083000026cd20d4aec1270710a3c126f76e846ed4ec6260
:20e100001f01cc000abde0d110270011ec621f01cc000abde0533406bde0fe3262ec621f49
:20e1200001cc000abde058c300301d3406bdf6dd326239327eec648e8000bde0b6102700d4
:20e140000dccf0fd3406bdf6c632627ee193ec641f01cc0000bde0a610270013cc002d34ca
:20e1600006bdf6dd3262ec644353c30001ed64ec64ed60ec60108300001027000cec60343b
:20e1800006bde0fe32627ee193cc00303406bdf6dd3262326239ec62108300001027000c0d
:20e1a000ec623406bde0fe32627ee1b6cc00303406bdf6dd326239327eec641f01cc001004
:20e1c000bde0d110270011ec641f01cc0004bde0883406bde1b73262ec648400c40fed600d
:20e1e000ec601f01cc000abde0a610270010ec60c300301d3406bdf6dd32627ee20eec60df
:20e20000c3004183000a1d3406bdf6dd3262326239327cec66a368c30001ed62cc00011f1b
:20e2200001ec62bde07a830001ed60ec6a1f01ec68bde088a460e461326439327ecc000024
:20e24000ed60ec6410270019ec648400c401e360ed60ec641f01cc0001bde088ed647ee295
:20e2600042ec60326239cc00011f01ec62bde07aba0106fa0107fd010639cc00011f01ec18
:20e2800062bde07a4353b40106f40107fd010639cc00011f01ec62bde07ab80106f801076a
:20e2a000fd010639ec641f01ec62bde0888400c401393278ccf1043406bdf6c632627ee2aa
:20e2c000ffccf1113406bdf6c63262cc000f3406bde1333262ccf1253406bdf6c63262ccbb
:20e2e000000f3406bde1333262ccf12b3406bdf6c63262fc0104c30001fd01047ee312cc3b
:20e30000f12e3406bdf6c63262fc0102c30001fd01027ee353ccf13c3406bdf6c63262cc14
:20e3200000003406bde1333262ccf14f3406bdf6c63262cc00003406bde1333262ccf1556e
:20e340003406bdf6c63262fc0104c30001fd01047ee366ccf1583406bdf6c63262fc01028d
:20e36000c30001fd01027ee3a7ccf1653406bdf6c63262cc12343406bde1333262ccf17981
:20e380003406bdf6c63262cc12343406bde1333262ccf17f3406bdf6c63262fc0104c3003e
:20e3a00001fd01047ee3baccf1823406bdf6c63262fc0102c30001fd01027ee3fbccf1904d
:20e3c0003406bdf6c63262cc00ff3406bde1333262ccf1a33406bdf6c63262cc00ff3406e0
:20e3e000bde1333262ccf1a93406bdf6c63262fc0104c30001fd01047ee40eccf1ac340631
:20e40000bdf6c63262fc0102c30001fd01027ee44fccf1b93406bdf6c63262cc000f3406a9
:20e42000bde1333262ccf1ce3406bdf6c63262cc000f3406bde1333262ccf1d43406bdf6ad
:20e44000c63262fc0104c30001fd01047ee462ccf1d73406bdf6c63262fc0102c30001fd3c
:20e4600001027ee4a3ccf1e63406bdf6c63262cc00aa3406bde1333262ccf1f83406bdf6f3
:20e48000c63262cc00aa3406bde1333262ccf1fe3406bdf6c63262fc0104c30001fd010444
:20e4a0007ee4b6ccf2013406bdf6c63262fc0102c30001fd01027ee4f7ccf20d3406bdf66a
:20e4c000c63262cc00f03406bde1333262ccf2203406bdf6c63262cc00f03406bde1333269
:20e4e00062ccf2263406bdf6c63262fc0104c30001fd01047ee50accf2293406bdf6c6328f
:20e5000062fc0102c30001fd01027ee54bccf2363406bdf6c63262cc00003406bde13332e4
:20e5200062ccf2493406bdf6c63262cc00003406bde1333262ccf24f3406bdf6c63262fc70
:20e540000104c30001fd01047ee55eccf2523406bdf6c63262fc0102c30001fd01027ee5b2
:20e560009fccf25f3406bdf6c63262cc00ff3406bde1333262ccf2743406bdf6c63262cce9
:20e5800000ff3406bde1333262ccf27a3406bdf6c63262fc0104c30001fd01047ee5b2ccb6
:20e5a000f27d3406bdf6c63262fc0102c30001fd0102cc00ffed66ec668300ff1027003d7c
:20e5c000ccf28c3406bdf6c63262ec663406bde1333262ccf29f3406bdf6c63262cc00ff4a
:20e5e0003406bde1333262ccf2a53406bdf6c63262fc0104c30001fd01047ee610ccf2a831
:20e600003406bdf6c63262fc0102c30001fd0102cc0000ed66ec668300001027003dccf2ca
:20e62000b53406bdf6c63262ec663406bde1333262ccf2c63406bdf6c63262cc000034061c
:20e64000bde1333262ccf2cc3406bdf6c63262fc0104c30001fd01047ee66eccf2cf340624
:20e66000bdf6c63262fc0102c30001fd0102cc00f0ed66ec668300f01027003dccf2da34b6
:20e6800006bdf6c63262ec663406bde1333262ccf2eb3406bdf6c63262cc00f03406bde1f2
:20e6a000333262ccf2f13406bdf6c63262fc0104c30001fd01047ee6ccccf2f43406bdf607
:20e6c000c63262fc0102c30001fd0102cca5a5ed62cca5a5ed64ec62a3641027003cccf2cb
:20e6e000ff3406bdf6c63262ec623406bde1963262ccf3123406bdf6c63262ec643406bd25
:20e70000e1963262ccf3183406bdf6c63262fc0104c30001fd01047ee72dccf31b3406bda6
:20e72000f6c63262fc0102c30001fd01027ee76eccf3283406bdf6c63262cc00023406bd00
:20e74000e1333262ccf3383406bdf6c63262cc00023406bde1333262ccf33e3406bdf6c6b6
:20e760003262fc0104c30001fd01047ee781ccf3413406bdf6c63262fc0102c30001fd0150
:20e78000027ee7c2ccf34b3406bdf6c63262cc00103406bde1333262ccf35b3406bdf6c6b7
:20e7a0003262cc00103406bde1333262ccf3613406bdf6c63262fc0104c30001fd01047e9e
:20e7c000e7d5ccf3643406bdf6c63262fc0102c30001fd01027ee816ccf36e3406bdf6c6f4
:20e7e0003262cc01003406bde1333262ccf37e3406bdf6c63262cc01003406bde133326229
:20e80000ccf3843406bdf6c63262fc0104c30001fd01047ee829ccf3873406bdf6c632628b
:20e82000fc0102c30001fd01027ee86accf3913406bdf6c63262cc00183406bde13332622b
:20e84000ccf3a33406bdf6c63262cc00183406bde1333262ccf3a93406bdf6c63262fc01e0
:20e8600004c30001fd01047ee87dccf3ac3406bdf6c63262fc0102c30001fd01027ee8be52
:20e88000ccf3b83406bdf6c63262cc00803406bde1963262ccf3c83406bdf6c63262cc00d2
:20e8a000803406bde1963262ccf3ce3406bdf6c63262fc0104c30001fd01047ee8d1ccf345
:20e8c000d13406bdf6c63262fc0102c30001fd01027ee912ccf3db3406bdf6c63262cc0037
:20e8e000103406bde1963262ccf3eb3406bdf6c63262cc00103406bde1963262ccf3f13453
:20e9000006bdf6c63262fc0104c30001fd01047ee925ccf3f43406bdf6c63262fc0102c3d5
:20e920000001fd01027ee966ccf3fe3406bdf6c63262cc40003406bde1963262ccf41034f3
:20e9400006bdf6c63262cc40003406bde1963262ccf4163406bdf6c63262fc0104c30001b4
:20e96000fd01047ee979ccf4193406bdf6c63262fc0102c30001fd0102cc00ffed60ec606e
:20e980008400c40fed60ec6083000f1027003dccf4253406bdf6c63262ec603406bde133fe
:20e9a0003262ccf4363406bdf6c63262cc000f3406bde1333262ccf43c3406bdf6c63262c9
:20e9c000fc0104c30001fd01047ee9dfccf43f3406bdf6c63262fc0102c30001fd0102cc55
:20e9e0000000ed60ec608a00caa5ed60ec608300a51027003dccf44a3406bdf6c63262ec13
:20ea0000603406bde1333262ccf45a3406bdf6c63262cc00a53406bde1333262ccf4603432
:20ea200006bdf6c63262fc0104c30001fd01047eea45ccf4633406bdf6c63262fc0102c323
:20ea40000001fd0102cc00ffed60ec608800c80fed60ec608300f01027003dccf46d34060b
:20ea6000bdf6c63262ec603406bde1333262ccf47e3406bdf6c63262cc00f03406bde13352
:20ea80003262ccf4843406bdf6c63262fc0104c30001fd01047eeaabccf4873406bdf6c683
:20eaa0003262fc0102c30001fd0102cc0001ed60ec601f01cc0003bde07aed60ec60830077
:20eac000081027003dccf4923406bdf6c63262ec603406bde1333262ccf4a33406bdf6c620
:20eae0003262cc00083406bde1333262ccf4a93406bdf6c63262fc0104c30001fd01047e1a
:20eb0000eb15ccf4ac3406bdf6c63262fc0102c30001fd0102cc0100ed60ec601f01cc002d
:20eb200004bde088ed60ec608300101027003dccf4b73406bdf6c63262ec603406bde133f7
:20eb40003262ccf4c83406bdf6c63262cc00103406bde1333262ccf4ce3406bdf6c6326202
:20eb6000fc0104c30001fd01047eeb7fccf4d13406bdf6c63262fc0102c30001fd0102cc7f
:20eb80000000fd0106cc00003406bde2663262fc01068300011027003eccf4dc3406bdf64d
:20eba000c63262fc01063406bde1333262ccf4ed3406bdf6c63262cc00013406bde133325b
:20ebc00062ccf4f33406bdf6c63262fc0104c30001fd01047eebeaccf4f63406bdf6c63224
:20ebe00062fc0102c30001fd0102cc00073406bde2663262fc01068300811027003eccf50d
:20ec0000013406bdf6c63262fc01063406bde1333262ccf5123406bdf6c63262cc0081346f
:20ec200006bde1333262ccf5183406bdf6c63262fc0104c30001fd01047eec4fccf51b34b9
:20ec400006bdf6c63262fc0102c30001fd0102cc00003406bde27a3262fc01068300801015
:20ec600027003eccf5263406bdf6c63262fc01063406bde1333262ccf5373406bdf6c63282
:20ec800062cc00803406bde1333262ccf53d3406bdf6c63262fc0104c30001fd01047eecb1
:20eca000b4ccf5403406bdf6c63262fc0102c30001fd0102cc00033406bde2903262fc01cc
:20ecc000063406cc00033406bde2a432648300011027004accf54b3406bdf6c63262fc01bd
:20ece000063406cc00033406bde2a432643406bde1333262ccf55c3406bdf6c63262cc0023
:20ed0000013406bde1333262ccf5623406bdf6c63262fc0104c30001fd01047eed31ccf5c5
:20ed2000653406bdf6c63262fc0102c30001fd0102cc00033406bde2903262fc010634065b
:20ed4000cc00033406bde2a432648300001027004accf5703406bdf6c63262fc0106340618
:20ed6000cc00033406bde2a432643406bde1333262ccf5823406bdf6c63262cc0000340682
:20ed8000bde1333262ccf5883406bdf6c63262fc0104c30001fd01047eedaeccf58b340618
:20eda000bdf6c63262fc0102c30001fd0102cc00003406bde23b326283000010270045cc44
:20edc000f5973406bdf6c63262cc00003406bde23b32623406bde1333262ccf5a73406bdee
:20ede000f6c63262cc00003406bde1333262ccf5ad3406bdf6c63262fc0104c30001fd01e0
:20ee0000047eee17ccf5b03406bdf6c63262fc0102c30001fd0102cc00013406bde23b32dd
:20ee20006283000110270045ccf5ba3406bdf6c63262cc00013406bde23b32623406bde161
:20ee4000333262ccf5ca3406bdf6c63262cc00013406bde1333262ccf5d03406bdf6c63237
:20ee600062fc0104c30001fd01047eee80ccf5d33406bdf6c63262fc0102c30001fd0102df
:20ee8000cc00ff3406bde23b326283000810270045ccf5dd3406bdf6c63262cc00ff34060e
:20eea000bde23b32623406bde1333262ccf5ee3406bdf6c63262cc00083406bde1333262dc
:20eec000ccf5f43406bdf6c63262fc0104c30001fd01047eeee9ccf5f73406bdf6c632621b
:20eee000fc0102c30001fd0102cc55553406bde23b326283000810270045ccf6023406bd6f
:20ef0000f6c63262cc55553406bde23b32623406bde1333262ccf6153406bdf6c63262ccfa
:20ef200000083406bde1333262ccf61b3406bdf6c63262fc0104c30001fd01047eef52ccb4
:20ef4000f61e3406bdf6c63262fc0102c30001fd0102ccffff3406bde23b3262830010107e
:20ef6000270045ccf62b3406bdf6c63262ccffff3406bde23b32623406bde1333262ccf61e
:20ef80003e3406bdf6c63262cc00103406bde1333262ccf6443406bdf6c63262fc0104c360
:20efa0000001fd01047eefbbccf6473406bdf6c63262fc0102c30001fd0102ccabcd340695
:20efc000cc00043406cc00073406bde2113266ed66ec6683000c1027003dccf6543406bd1d
:20efe000f6c63262ec663406bde1333262ccf6673406bdf6c63262cc000c3406bde133324b
:20f0000062ccf66d3406bdf6c63262fc0104c30001fd01047ef02accf6703406bdf6c632a2
:20f0200062fc0102c30001fd0102cc12343406cc00003406cc00033406bde2113266ed66b5
:20f04000ec668300041027003dccf67d3406bdf6c63262ec663406bde1333262ccf6903466
:20f0600006bdf6c63262cc00043406bde1333262ccf6963406bdf6c63262fc0104c30001aa
:20f08000fd01047ef099ccf6993406bdf6c63262fc0102c30001fd0102fc0104108300006e
:20f0a00010270038ccf6a63406bdf6c63262fc01043406bde1333262ccf6b23406bdf6c66b
:20f0c0003262fc0102f301043406bde1333262ccf6b43406bdf6c632627ef0faccf6b73434
:20f0e00006bdf6c63262fc01023406bde1333262ccf6c33406bdf6c632623268392d33322e
:20f10000373638007430365f626974776973650a00616e642d62617369633a4641494c2830
:20f12000676f743d002c6578703d00290a00616e642d62617369633a4f4b0a00616e642dbf
:20f140007a65726f3a4641494c28676f743d002c6578703d00290a00616e642d7a65726fe1
:20f160003a4f4b0a00616e642d6964656e743a4641494c28676f743d002c6578703d002959
:20f180000a00616e642d6964656e743a4f4b0a006f722d62617369633a4641494c28676faf
:20f1a000743d002c6578703d00290a006f722d62617369633a4f4b0a006f722d6f766572fd
:20f1c0006c61703a4641494c28676f743d002c6578703d00290a006f722d6f7665726c616d
:20f1e000703a4f4b0a006f722d73616d653a4641494c28676f743d002c6578703d00290a1f
:20f20000006f722d73616d653a4f4b0a00786f722d646966663a4641494c28676f743d0038
:20f220002c6578703d00290a00786f722d646966663a4f4b0a00786f722d73616d653a463c
:20f2400041494c28676f743d002c6578703d00290a00786f722d73616d653a4f4b0a0078be
:20f260006f722d746f67676c653a4641494c28676f743d002c6578703d00290a00786f72b7
:20f280002d746f67676c653a4f4b0a006e6f742d7a65726f3a4641494c28676f743d002c72
:20f2a0006578703d00290a006e6f742d7a65726f3a4f4b0a006e6f742d66663a4641494cd5
:20f2c00028676f743d002c6578703d00290a006e6f742d66663a4f4b0a006e6f742d30665a
:20f2e0003a4641494c28676f743d002c6578703d00290a006e6f742d30663a4f4b0a006ec0
:20f300006f742d776f72643a4641494c28676f743d002c6578703d00290a006e6f742d773e
:20f320006f72643a4f4b0a0073686c2d313a4641494c28676f743d002c6578703d00290a17
:20f340000073686c2d313a4f4b0a0073686c2d343a4641494c28676f743d002c6578703dc7
:20f3600000290a0073686c2d343a4f4b0a0073686c2d383a4641494c28676f743d002c6592
:20f3800078703d00290a0073686c2d383a4f4b0a0073686c2d6d756c3a4641494c28676f75
:20f3a000743d002c6578703d00290a0073686c2d6d756c3a4f4b0a007368722d313a4641a7
:20f3c000494c28676f743d002c6578703d00290a007368722d313a4f4b0a007368722d34c9
:20f3e0003a4641494c28676f743d002c6578703d00290a007368722d343a4f4b0a007368b8
:20f40000722d6d73623a4641494c28676f743d002c6578703d00290a007368722d6d736261
:20f420003a4f4b0a00616e642d65713a4641494c28676f743d002c6578703d00290a006169
:20f440006e642d65713a4f4b0a006f722d65713a4641494c28676f743d002c6578703d005a
:20f46000290a006f722d65713a4f4b0a00786f722d65713a4641494c28676f743d002c65a5
:20f4800078703d00290a00786f722d65713a4f4b0a0073686c2d65713a4641494c28676f3c
:20f4a000743d002c6578703d00290a0073686c2d65713a4f4b0a007368722d65713a464179
:20f4c000494c28676f743d002c6578703d00290a007368722d65713a4f4b0a007365742d58
:20f4e00062303a4641494c28676f743d002c6578703d00290a007365742d62303a4f4b0aa3
:20f50000007365742d62373a4641494c28676f743d002c6578703d00290a007365742d6210
:20f52000373a4f4b0a00636c722d62303a4641494c28676f743d002c6578703d00290a00c8
:20f54000636c722d62303a4f4b0a00746f672d6f6e3a4641494c28676f743d002c657870fb
:20f560003d00290a00746f672d6f6e3a4f4b0a00746f672d6f66663a4641494c28676f746f
:20f580003d002c6578703d00290a00746f672d6f66663a4f4b0a00706f702d303a464149ff
:20f5a0004c28676f743d002c6578703d00290a00706f702d303a4f4b0a00706f702d313af6
:20f5c0004641494c28676f743d002c6578703d00290a00706f702d313a4f4b0a00706f709d
:20f5e0002d66663a4641494c28676f743d002c6578703d00290a00706f702d66663a4f4b08
:20f600000a00706f702d353535353a4641494c28676f743d002c6578703d00290a00706fc3
:20f62000702d353535353a4f4b0a00706f702d666666663a4641494c28676f743d002c65d1
:20f6400078703d00290a00706f702d666666663a4f4b0a00626974666c642d633a46414951
:20f660004c28676f743d002c6578703d00290a00626974666c642d633a4f4b0a0062697484
:20f68000666c642d343a4641494c28676f743d002c6578703d00290a00626974666c642d43
:20f6a000343a4f4b0a0053554954453a4641494c28002f00290a0053554954453a50415326
:20f6c000532800290a00ae62e68027048d0520f839ec62c10a26088d06c60d2002ec62b625
:20f6e000c000850227f9f7c00139b6c00085012614ccffff39b6c0005f8401398d07c10d84
:20f700002602c60a39b6c000850127f9f6c0014f39ee648e00008de4c17f2714c108271091
:20f72000c10a2723ac6224eee7c030018db120e68c000027e1c6088da6c6208da2c6088d73
:0ef740009e301f335f20cf6fc48d881f10399d
:10fff000e000e000e000e000e000e000e000e00001
:00000001FF
