:20e0000010ce7f007f0111bde23520fe3416a661e6633d3406a662e6653debe4e7e4a663dc
:20e02000e6643debe4e7e435063264393416a8621f02ece42a048d15ede4ec622a048d0db9
:20e04000ed621f204d35162a0a8d0d1f104353c30001398d031f103934164f5f8e00111c5f
:20e06000fe69636962301f270d594910a3e425efa3e41a0120eb326235901e018c00002763
:20e08000065849301f26fa391e018c000027f84456301f26fa393406ace12e29201e34068f
:20e0a000ace12c2120163406ace12d19200e3406ace12f1120063406ace127094f5f3934d6
:20e0c00006ace127f7cc0001393406ace122f620eb3406ace124ee20e33406ace125e620d1
:20e0e000db3406ace123de20d31083000026cd20d4aec1270710a3c126f76e846ed4ec6260
:20e100001f01cc000abde0d110270011ec621f01cc000abde0533406bde0fe3262ec621f49
:20e1200001cc000abde058c300301d3406bdf639326239327eec648e8000bde0b610270078
:20e140000dccf05b3406bdf62232627ee193ec641f01cc0000bde0a610270013cc002d3410
:20e1600006bdf6393262ec644353c30001ed64ec64ed60ec60108300001027000cec6034df
:20e1800006bde0fe32627ee193cc00303406bdf6393262326239ec62108300001027000cb1
:20e1a000ec623406bde0fe32627ee1b6cc00303406bdf639326239327eec641f01cc0010a8
:20e1c000bde0d110270011ec641f01cc0004bde0883406bde1b73262ec648400c40fed600d
:20e1e000ec601f01cc000abde0a610270010ec60c300301d3406bdf63932627ee20eec6083
:20e20000c3004183000a1d3406bdf6393262326239ec621d39ec621df70106f601061d3969
:20e22000ec6239ec641f01ec62bde0c92704ec642002ec6239327eccf0623406bdf6223200
:20e2400062cc00413406bde211326283004110270045ccf06f3406bdf6223262cc00413482
:20e2600006bde21132623406bde1333262ccf0843406bdf6223262cc00413406bde1333288
:20e2800062ccf08a3406bdf6223262fc0104c30001fd01047ee2aaccf08d3406bdf62232d8
:20e2a00062fc0102c30001fd0102cc01413406bde211326283004110270045ccf09c3406db
:20e2c000bdf6223262cc01413406bde21132623406bde1333262ccf0b23406bdf622326299
:20e2e000cc00413406bde1333262ccf0b83406bdf6223262fc0104c30001fd01047ee31320
:20e30000ccf0bb3406bdf6223262fc0102c30001fd0102cc00ff3406bde211326283ffff56
:20e3200010270045ccf0cb3406bdf6223262cc00ff3406bde21132623406bde1333262cc83
:20e34000f0e03406bdf6223262ccffff3406bde1333262ccf0e63406bdf6223262fc01049b
:20e36000c30001fd01047ee37cccf0e93406bdf6223262fc0102c30001fd0102cc0080346f
:20e3800006bde211326283ff8010270045ccf0f83406bdf6223262cc00803406bde21132f6
:20e3a000623406bde1333262ccf10e3406bdf6223262ccff803406bde1333262ccf11434ff
:20e3c00006bdf6223262fc0104c30001fd01047ee3e5ccf1173406bdf6223262fc0102c388
:20e3e0000001fd0102cc00003406bde211326283000010270045ccf1273406bdf62232624c
:20e40000cc00003406bde21132623406bde1333262ccf13d3406bdf6223262cc0000340670
:20e42000bde1333262ccf1433406bdf6223262fc0104c30001fd01047ee44eccf146340620
:20e44000bdf6223262fc0102c30001fd0102cc7fff3406bde211326283ffff10270045ccff
:20e46000f1563406bdf6223262cc7fff3406bde21132623406bde1333262ccf16b3406bd2c
:20e48000f6223262ccffff3406bde1333262ccf1713406bdf6223262fc0104c30001fd01d3
:20e4a000047ee4b7ccf1743406bdf6223262fc0102c30001fd0102cc00413406bde215327b
:20e4c0006283004110270045ccf1833406bdf6223262cc00413406bde21532623406bde150
:20e4e000333262ccf1973406bdf6223262cc00413406bde1333262ccf19d3406bdf6223217
:20e5000062fc0104c30001fd01047ee520ccf1a03406bdf6223262fc0102c30001fd01028c
:20e52000cc01413406bde215326283004110270045ccf1ae3406bdf6223262cc01413406b5
:20e54000bde21532623406bde1333262ccf1c33406bdf6223262cc00413406bde133326205
:20e56000ccf1c93406bdf6223262fc0104c30001fd01047ee589ccf1cc3406bdf622326293
:20e58000fc0102c30001fd0102cc00ff3406bde215326283ffff10270045ccf1db3406bddf
:20e5a000f6223262cc00ff3406bde21532623406bde1333262ccf1ef3406bdf6223262cca8
:20e5c000ffff3406bde1333262ccf1f53406bdf6223262fc0104c30001fd01047ee5f2cc61
:20e5e000f1f83406bdf6223262fc0102c30001fd0102cc00803406bde215326283ff8010ec
:20e60000270045ccf2063406bdf6223262cc00803406bde21532623406bde1333262ccf2fc
:20e620001b3406bdf6223262ccff803406bde1333262ccf2213406bdf6223262fc0104c3ec
:20e640000001fd01047ee65bccf2243406bdf6223262fc0102c30001fd0102cc00003406aa
:20e66000bde215326283000010270045ccf2333406bdf6223262cc00003406bde215326271
:20e680003406bde1333262ccf2483406bdf6223262cc00003406bde1333262ccf24e340681
:20e6a000bdf6223262fc0104c30001fd01047ee6c4ccf2513406bdf6223262fc0102c3008e
:20e6c00001fd0102ce0107c6ffe7c4ce0107cc000133cbc680e7c4ce0107cc000233cbc6f9
:20e6e00000e7c4ce0107e6c44f8300ff10270041ccf2603406bdf6223262ce0107e6c44f16
:20e700003406bde1333262ccf2783406bdf6223262cc00ff3406bde1333262ccf27e3406a1
:20e72000bdf6223262fc0104c30001fd01047ee744ccf2813406bdf6223262fc0102c3005c
:20e7400001fd0102ce0107cc000133cbe6c44f83008010270046ccf2933406bdf6223262aa
:20e76000ce0107cc000133cbe6c44f3406bde1333262ccf2ab3406bdf6223262cc008034d4
:20e7800006bde1333262ccf2b13406bdf6223262fc0104c30001fd01047ee7afccf2b4347b
:20e7a00006bdf6223262fc0102c30001fd0102ce0107cc000233cbe6c44f830000102700d2
:20e7c00046ccf2c63406bdf6223262ce0107cc000233cbe6c44f3406bde1333262ccf2def6
:20e7e0003406bdf6223262cc00003406bde1333262ccf2e43406bdf6223262fc0104c30002
:20e8000001fd01047ee81accf2e73406bdf6223262fc0102c30001fd0102ce0107e6c44f9b
:20e820008400c4ff8300ff10270045ccf2f93406bdf6223262ce0107e6c44f8400c4ff34ef
:20e8400006bde1333262ccf30f3406bdf6223262cc00ff3406bde1333262ccf3153406bda7
:20e86000f6223262fc0104c30001fd01047ee883ccf3183406bdf6223262fc0102c30001ff
:20e88000fd0102ce0107cc000133cbe6c44f8400c4ff8300801027004accf3283406bdf63f
:20e8a000223262ce0107cc000133cbe6c44f8400c4ff3406bde1333262ccf33e3406bdf638
:20e8c000223262cc00803406bde1333262ccf3443406bdf6223262fc0104c30001fd01042a
:20e8e0007ee8f6ccf3473406bdf6223262fc0102c30001fd0102ccffff3406bde2203262f9
:20e90000ed60ec6083ffff1027003dccf3573406bdf6223262ec603406bde1963262ccf3a3
:20e920006b3406bdf6223262ccffff3406bde1963262ccf3713406bdf6223262fc0104c366
:20e940000001fd01047ee95bccf3743406bdf6223262fc0102c30001fd0102cc80003406d3
:20e96000bde2203262ed60ec608380001027003dccf3823406bdf6223262ec603406bde12c
:20e98000963262ccf3953406bdf6223262cc80003406bde1963262ccf39b3406bdf622326d
:20e9a00062fc0104c30001fd01047ee9c0ccf39e3406bdf6223262fc0102c30001fd010244
:20e9c000cc7fff3406bde2203262ed60ec60837fff1027003dccf3ab3406bdf6223262ec59
:20e9e000603406bde1963262ccf3be3406bdf6223262cc7fff3406bde1963262ccf3c43492
:20ea000006bdf6223262fc0104c30001fd01047eea25ccf3c73406bdf6223262fc0102c348
:20ea20000001fd0102cc00ff1df7010ef6010e1dfd010ffc010f83ffff1027003eccf3d423
:20ea40003406bdf6223262fc010f3406bde1333262ccf3e63406bdf6223262ccffff34061c
:20ea6000bde1333262ccf3ec3406bdf6223262fc0104c30001fd01047eea8eccf3ef34063e
:20ea8000bdf6223262fc0102c30001fd0102cc00801df7010ef6010e1dfd010ffc010f831d
:20eaa000ff801027003eccf3fb3406bdf6223262fc010f3406bde1333262ccf40d3406bd96
:20eac000f6223262ccff803406bde1333262ccf4133406bdf6223262fc0104c30001fd0167
:20eae000047eeaf7ccf4163406bdf6223262fc0102c30001fd0102cc007f1df7010ef60112
:20eb00000e1dfd010ffc010f83007f1027003eccf4223406bdf6223262fc010f3406bde1d1
:20eb2000333262ccf4343406bdf6223262cc007f3406bde1333262ccf43a3406bdf6223252
:20eb400062fc0104c30001fd01047eeb60ccf43d3406bdf6223262fc0102c30001fd010260
:20eb6000cc00001df7010ef6010e1dfd010ffc010f8300001027003eccf4493406bdf6225b
:20eb80003262fc010f3406bde1333262ccf45b3406bdf6223262cc00003406bde13332620d
:20eba000ccf4613406bdf6223262fc0104c30001fd01047eebc9ccf4643406bdf6223262d1
:20ebc000fc0102c30001fd0102cc00ff1df7010ef6010e1d8400c4fffd010ffc010f83007f
:20ebe000ff1027003eccf4703406bdf6223262fc010f3406bde1333262ccf4823406bdf6f4
:20ec0000223262cc00ff3406bde1333262ccf4883406bdf6223262fc0104c30001fd010422
:20ec20007eec36ccf48b3406bdf6223262fc0102c30001fd0102cc00801df7010ef6010e0f
:20ec40001d8400c4fffd010ffc010f8300801027003eccf4973406bdf6223262fc010f3485
:20ec600006bde1333262ccf4a93406bdf6223262cc00803406bde1333262ccf4af3406bdcc
:20ec8000f6223262fc0104c30001fd01047eeca3ccf4b23406bdf6223262fc0102c300011c
:20eca000fd0102ccfffffd010afc010ac30001fd010afc010a8300001027003eccf4be34fe
:20ecc00006bdf6223262fc010a3406bde1963262ccf4d23406bdf6223262cc00003406bdc4
:20ece000e1963262ccf4d83406bdf6223262fc0104c30001fd01047eed0dccf4db3406bdfd
:20ed0000f6223262fc0102c30001fd0102cc0000fd010afc010a830001fd010afc010a8393
:20ed2000ffff1027003eccf4e93406bdf6223262fc010a3406bde1963262ccf4fe3406bd56
:20ed4000f6223262ccffff3406bde1963262ccf5043406bdf6223262fc0104c30001fd0110
:20ed6000047eed77ccf5073406bdf6223262fc0102c30001fd0102cc7ffffd010cfc010c22
:20ed8000c30001fd010cfc010c8380001027003eccf5163406bdf6223262fc010c3406bdaa
:20eda000e1333262ccf5293406bdf6223262cc80003406bde1333262ccf52f3406bdf62234
:20edc0003262fc0104c30001fd01047eede1ccf5323406bdf6223262fc0102c30001fd0135
:20ede00002cc00643406cc00c83406bde22332648300c81027004accf53f3406bdf6223274
:20ee000062cc00643406cc00c83406bde22332643406bde1963262ccf5503406bdf62232ac
:20ee200062cc00c83406bde1963262ccf5563406bdf6223262fc0104c30001fd01047eeeed
:20ee400054ccf5593406bdf6223262fc0102c30001fd0102cc00c83406cc00643406bde207
:20ee60002332648300c81027004accf5643406bdf6223262cc00c83406cc00643406bde26e
:20ee80002332643406bde1963262ccf5753406bdf6223262cc00c83406bde1963262ccf587
:20eea0007b3406bdf6223262fc0104c30001fd01047eeec7ccf57e3406bdf6223262fc015b
:20eec00002c30001fd0102cc00323406cc00323406bde22332648300321027004accf58924
:20eee0003406bdf6223262cc00323406cc00323406bde22332643406bde1963262ccf59b49
:20ef00003406bdf6223262cc00323406bde1963262ccf5a13406bdf6223262fc0104c30085
:20ef200001fd01047eef3accf5a43406bdf6223262fc0102c30001fd01027eef7bccf5b003
:20ef40003406bdf6223262cc41423406bde1333262ccf5c33406bdf6223262cc4142340670
:20ef6000bde1333262ccf5c93406bdf6223262fc0104c30001fd01047eef8eccf5cc340676
:20ef8000bdf6223262fc0102c30001fd0102cc41423406bde211326283004210270045cc6b
:20efa000f5d93406bdf6223262cc41423406bde21132623406bde1333262ccf5ec3406bdd0
:20efc000f6223262cc00423406bde1333262ccf5f23406bdf6223262fc0104c30001fd01bf
:20efe000047eeff7ccf5f53406bdf6223262fc0102c30001fd0102fc0104108300001027c2
:20f000000038ccf6023406bdf6223262fc01043406bde1333262ccf60e3406bdf62232623e
:20f02000fc0102f301043406bde1333262ccf6103406bdf62232627ef058ccf6133406bd33
:20f04000f6223262fc01023406bde1333262ccf61f3406bdf62232623262392d3332373616
:20f0600038007430375f63617374696e670a006469726563742d706f733a4641494c28674c
:20f080006f743d002c6578703d00290a006469726563742d706f733a4f4b0a0064697265eb
:20f0a00063742d777261703a4641494c28676f743d002c6578703d00290a0064697265639d
:20f0c000742d777261703a4f4b0a006469726563742d6e65673a4641494c28676f743d0010
:20f0e0002c6578703d00290a006469726563742d6e65673a4f4b0a006469726563742d6e51
:20f100006567323a4641494c28676f743d002c6578703d00290a006469726563742d6e6588
:20f1200067323a4f4b0a006469726563742d7a65726f3a4641494c28676f743d002c6578e2
:20f14000703d00290a006469726563742d7a65726f3a4f4b0a006469726563742d626967af
:20f160003a4641494c28676f743d002c6578703d00290a006469726563742d6269673a4f3e
:20f180004b0a0073746f72652d706f733a4641494c28676f743d002c6578703d00290a0080
:20f1a00073746f72652d706f733a4f4b0a0073746f72652d777261703a4641494c28676f5d
:20f1c000743d002c6578703d00290a0073746f72652d777261703a4f4b0a0073746f726576
:20f1e0002d6e65673a4641494c28676f743d002c6578703d00290a0073746f72652d6e658d
:20f20000673a4f4b0a0073746f72652d6e6567323a4641494c28676f743d002c6578703d28
:20f2200000290a0073746f72652d6e6567323a4f4b0a0073746f72652d7a65726f3a46411c
:20f24000494c28676f743d002c6578703d00290a0073746f72652d7a65726f3a4f4b0a0089
:20f26000756368722d722d6469726563743a4641494c28676f743d002c6578703d00290aa7
:20f2800000756368722d722d6469726563743a4f4b0a00756368722d672d646972656374a9
:20f2a0003a4641494c28676f743d002c6578703d00290a00756368722d672d6469726563e6
:20f2c000743a4f4b0a00756368722d622d6469726563743a4641494c28676f743d002c655d
:20f2e00078703d00290a00756368722d622d6469726563743a4f4b0a00756368722d722d71
:20f300006d61736b3a4641494c28676f743d002c6578703d00290a00756368722d722d6d68
:20f3200061736b3a4f4b0a00756368722d672d6d61736b3a4641494c28676f743d002c65fb
:20f3400078703d00290a00756368722d672d6d61736b3a4f4b0a0075696e742d6e65673100
:20f360003a4641494c28676f743d002c6578703d00290a0075696e742d6e6567313a4f4b73
:20f380000a0075696e742d6d696e3a4641494c28676f743d002c6578703d00290a00756966
:20f3a0006e742d6d696e3a4f4b0a0075696e742d6d61783a4641494c28676f743d002c6553
:20f3c00078703d00290a0075696e742d6d61783a4f4b0a00736578742d66663a4641494cb1
:20f3e00028676f743d002c6578703d00290a00736578742d66663a4f4b0a00736578742de9
:20f4000038303a4641494c28676f743d002c6578703d00290a00736578742d38303a4f4b69
:20f420000a00736578742d37663a4641494c28676f743d002c6578703d00290a00736578f6
:20f44000742d37663a4f4b0a00736578742d30303a4641494c28676f743d002c6578703d84
:20f4600000290a00736578742d30303a4f4b0a00756368722d66663a4641494c28676f74b7
:20f480003d002c6578703d00290a00756368722d66663a4f4b0a00756368722d38303a46f6
:20f4a00041494c28676f743d002c6578703d00290a00756368722d38303a4f4b0a007569db
:20f4c0006e742d6f7665723a4641494c28676f743d002c6578703d00290a0075696e742d86
:20f4e0006f7665723a4f4b0a0075696e742d756e6465723a4641494c28676f743d002c65d1
:20f5000078703d00290a0075696e742d756e6465723a4f4b0a00696e742d6f7665723a46f6
:20f5200041494c28676f743d002c6578703d00290a00696e742d6f7665723a4f4b0a0075d6
:20f540006d61782d613a4641494c28676f743d002c6578703d00290a00756d61782d613a66
:20f560004f4b0a00756d61782d623a4641494c28676f743d002c6578703d00290a00756dcd
:20f5800061782d623a4f4b0a00756d61782d65713a4641494c28676f743d002c6578703dac
:20f5a00000290a00756d61782d65713a4f4b0a006d636861722d41423a4641494c28676f6d
:20f5c000743d002c6578703d00290a006d636861722d41423a4f4b0a006d636861722d6c54
:20f5e0006f3a4641494c28676f743d002c6578703d00290a006d636861722d6c6f3a4f4bc7
:20f600000a0053554954453a4641494c28002f00290a0053554954453a504153532800292a
:20f620000a00ae62e68027048d0520f839ec62c10a26088d06c60d2002ec62b6c000850222
:20f6400027f9f7c00139b6c00085012614ccffff39b6c0005f8401398d07c10d2602c60a73
:20f6600039b6c000850127f9f6c0014f39ee648e00008de4c17f2714c1082710c10a272315
:20f68000ac6224eee7c030018db120e68c000027e1c6088da6c6208da2c6088d9e301f3309
:0af6a0005f20cf6fc48d881f103962
:10fff000e000e000e000e000e000e000e000e00001
:00000001FF
