:20e0000010ce7f007f011abde33720fe3416a661e6633d3406a662e6653debe4e7e4a663d0
:20e02000e6643debe4e7e435063264393416a8621f02ece42a048d15ede4ec622a048d0db9
:20e04000ed621f204d35162a0a8d0d1f104353c30001398d031f103934164f5f8e00111c5f
:20e06000fe69636962301f270d594910a3e425efa3e41a0120eb326235901e018c00002763
:20e08000065849301f26fa391e018c000027f84456301f26fa393406ace12e29201e34068f
:20e0a000ace12c2120163406ace12d19200e3406ace12f1120063406ace127094f5f3934d6
:20e0c00006ace127f7cc0001393406ace122f620eb3406ace124ee20e33406ace125e620d1
:20e0e000db3406ace123de20d31083000026cd20d4aec1270710a3c126f76e846ed4ec6260
:20e100001f01cc000abde0d110270011ec621f01cc000abde0533406bde0fe3262ec621f49
:20e1200001cc000abde058c300301d3406bdee5b326239327eec648e8000bde0b61027005e
:20e140000dcceb5f3406bdee4432627ee193ec641f01cc0000bde0a610270013cc002d34f7
:20e1600006bdee5b3262ec644353c30001ed64ec64ed60ec60108300001027000cec6034c5
:20e1800006bde0fe32627ee193cc00303406bdee5b3262326239ec62108300001027000c97
:20e1a000ec623406bde0fe32627ee1b6cc00303406bdee5b326239327eec641f01cc00108e
:20e1c000bde0d110270011ec641f01cc0004bde0883406bde1b73262ec648400c40fed600d
:20e1e000ec601f01cc000abde0a610270010ec60c300301d3406bdee5b32627ee20eec6069
:20e20000c3004183000a1d3406bdee5b3262326239ec624353c3000139ec62ae62bde00cc7
:20e2200039ec6239ec64e36239ec64a36239ec64ae62bde00c39ec64cee2687ee0f1ec627b
:20e240003406bde21132627ee278ec623406bde21932627ee278ec623406bde22132627e62
:20e26000e278cc00007ee278e2560002e24a0001e23e00000000e26239ec66cee2b77ee085
:20e28000f1ec643406ec643406bde22432647ee2c7ec643406ec643406bde22932647ee227
:20e2a000c7ec643406ec643406bde22e32647ee2c7cc00007ee2c7e2a10002e2910001e22b
:20e2c0008100000000e2b139cce211fd010639cce219fd010639cce221fd010639ec623463
:20e2e00006be0106ad843262fd0108fc010839327ecc0000ed60ec601f01ec64bde0a61072
:20e300002700312009ec60c30001ed6020e8ec605849ce011233cb3440ec683406ec6458a1
:20e3200049ce010a33cbecc43406bde2363264edf17ee305326239cceb663406bdee4432df
:20e3400062cc00003406cc00053406bde236326483fffb1027004acceb733406bdee44325c
:20e3600062cc00003406cc00053406bde23632643406bde1333262cceb863406bdee443288
:20e3800062ccfffb3406bde1333262cceb8c3406bdee443262fc0104c30001fd01047ee38e
:20e3a000b4cceb8f3406bdee443262fc0102c30001fd0102cc00003406cc00003406bde238
:20e3c0003632648300001027004acceb9c3406bdee443262cc00003406cc00003406bde2b2
:20e3e0003632643406bde1333262ccebaf3406bdee443262cc00003406bde1333262cceb6d
:20e40000b53406bdee443262fc0104c30001fd01047ee427ccebb83406bdee443262fc0111
:20e4200002c30001fd0102cc00013406cc00043406bde23632648300101027004accebc50a
:20e440003406bdee443262cc00013406cc00043406bde23632643406bde1333262ccebd756
:20e460003406bdee443262cc00103406bde1333262ccebdd3406bdee443262fc0104c3004f
:20e4800001fd01047ee49accebe03406bdee443262fc0102c30001fd0102cc00023406cc92
:20e4a00000073406bde23632648300071027004accebec3406bdee443262cc00023406cc71
:20e4c00000073406bde23632643406bde1333262ccebfe3406bdee443262cc00073406bdb5
:20e4e000e1333262ccec043406bdee443262fc0104c30001fd01047ee50dccec073406bd0e
:20e50000ee443262fc0102c30001fd0102cc00093406cc00013406bde2363264830000105e
:20e5200027004accec133406bdee443262cc00093406cc00013406bde23632643406bde189
:20e54000333262ccec243406bdee443262cc00003406bde1333262ccec2a3406bdee4432b3
:20e5600062fc0104c30001fd01047ee580ccec2d3406bdee443262fc0102c30001fd01022a
:20e58000cc00003406cc00033406cc00043406bde27932668300071027004fccec38340678
:20e5a000bdee443262cc00003406cc00033406cc00043406bde27932663406bde133326270
:20e5c000ccec493406bdee443262cc00073406bde1333262ccec4f3406bdee443262fc014a
:20e5e00004c30001fd01047ee5fdccec523406bdee443262fc0102c30001fd0102cc00019a
:20e600003406cc000a3406cc00033406bde27932668300071027004fccec5d3406bdee44a9
:20e620003262cc00013406cc000a3406cc00033406bde27932663406bde1333262ccec6eb1
:20e640003406bdee443262cc00073406bde1333262ccec743406bdee443262fc0104c300de
:20e6600001fd01047ee67accec773406bdee443262fc0102c30001fd0102cc00023406cc36
:20e6800000063406cc00073406bde279326683002a1027004fccec823406bdee443262cc87
:20e6a00000023406cc00063406cc00073406bde27932663406bde1333262ccec933406bd74
:20e6c000ee443262cc002a3406bde1333262ccec993406bdee443262fc0104c30001fd010e
:20e6e000047ee6f7ccec9c3406bdee443262fc0102c30001fd0102cc0000ce010a33cbcc78
:20e700000001edc4cc0002ce010a33cbcc0002edc4cc0004ce010a33cbcc0003edc4cc0030
:20e7200006ce010a33cbcc0004edc4cc00013406cc00043406bde2ef3264cc0000ce011299
:20e7400033cbecc483000110270045cceca73406bdee443262cc0000ce011233cbecc43460
:20e7600006bde1333262ccecba3406bdee443262cc00013406bde1333262ccecc03406bd24
:20e78000ee443262fc0104c30001fd01047ee7a3ccecc33406bdee443262fc0102c30001e9
:20e7a000fd0102cc0002ce011233cbecc483000410270045ccecd03406bdee443262cc00e8
:20e7c00002ce011233cbecc43406bde1333262ccece33406bdee443262cc00043406bde109
:20e7e000333262ccece93406bdee443262fc0104c30001fd01047ee80cccecec3406bdee32
:20e80000443262fc0102c30001fd0102cc0004ce011233cbecc483000910270045ccecf945
:20e820003406bdee443262cc0004ce011233cbecc43406bde1333262cced0c3406bdee442f
:20e840003262cc00093406bde1333262cced123406bdee443262fc0104c30001fd01047ee3
:20e86000e875cced153406bdee443262fc0102c30001fd0102cc0006ce011233cbecc48309
:20e88000001010270045cced223406bdee443262cc0006ce011233cbecc43406bde13332b6
:20e8a00062cced353406bdee443262cc00103406bde1333262cced3b3406bdee443262fc23
:20e8c0000104c30001fd01047ee8decced3e3406bdee443262fc0102c30001fd0102bde213
:20e8e000c8cc00073406bde2dd326283fff910270045cced4b3406bdee443262cc00073474
:20e9000006bde2dd32623406bde1333262cced5f3406bdee443262ccfff93406bde133326c
:20e9200062cced653406bdee443262fc0104c30001fd01047ee94acced683406bdee4432a6
:20e9400062fc0102c30001fd0102bde2c8cc00003406bde2dd326283000010270045cced5d
:20e96000763406bdee443262cc00003406bde2dd32623406bde1333262cced8a3406bdee87
:20e98000443262cc00003406bde1333262cced903406bdee443262fc0104c30001fd010467
:20e9a0007ee9b6cced933406bdee443262fc0102c30001fd0102bde2cfcc00053406bde256
:20e9c000dd326283001910270045cceda13406bdee443262cc00053406bde2dd3262340642
:20e9e000bde1333262ccedb43406bdee443262cc00193406bde1333262ccedba3406bdeeac
:20ea0000443262fc0104c30001fd01047eea22ccedbd3406bdee443262fc0102c30001fdda
:20ea20000102bde2d6cc002a3406bde2dd326283002a10270045ccedca3406bdee443262b5
:20ea4000cc002a3406bde2dd32623406bde1333262ccedde3406bdee443262cc002a340653
:20ea6000bde1333262ccede43406bdee443262fc0104c30001fd01047eea8eccede7340640
:20ea8000bdee443262fc0102c30001fd0102bde2c8bde2cfcc00043406bde2dd32628300be
:20eaa0001010270045ccedf53406bdee443262cc00043406bde2dd32623406bde1333262a6
:20eac000ccee0b3406bdee443262cc00103406bde1333262ccee113406bdee443262fc01b4
:20eae00004c30001fd01047eeafdccee143406bdee443262fc0102c30001fd0102fc010498
:20eb00001083000010270038ccee243406bdee443262fc01043406bde1333262ccee30349a
:20eb200006bdee443262fc0102f301043406bde1333262ccee323406bdee4432627eeb5e46
:20eb4000ccee353406bdee443262fc01023406bde1333262ccee413406bdee443262392d4d
:20eb60003332373638007430385f66756e637074720a0073772d6e65672d353a4641494c3b
:20eb800028676f743d002c6578703d00290a0073772d6e65672d353a4f4b0a0073772d6ec7
:20eba00065672d303a4641494c28676f743d002c6578703d00290a0073772d6e65672d3090
:20ebc0003a4f4b0a0073772d73712d343a4641494c28676f743d002c6578703d00290a000d
:20ebe00073772d73712d343a4f4b0a0073772d69642d373a4641494c28676f743d002c65fd
:20ec000078703d00290a0073772d69642d373a4f4b0a0073772d6465663a4641494c28674b
:20ec20006f743d002c6578703d00290a0073772d6465663a4f4b0a0073772d6164643a46e7
:20ec400041494c28676f743d002c6578703d00290a0073772d6164643a4f4b0a0073772d11
:20ec60007375623a4641494c28676f743d002c6578703d00290a0073772d7375623a4f4b27
:20ec80000a0073772d6d756c3a4641494c28676f743d002c6578703d00290a0073772d6d93
:20eca000756c3a4f4b0a006d61702d73712d303a4641494c28676f743d002c6578703d002e
:20ecc000290a006d61702d73712d303a4f4b0a006d61702d73712d313a4641494c28676f76
:20ece000743d002c6578703d00290a006d61702d73712d313a4f4b0a006d61702d73712d73
:20ed0000323a4641494c28676f743d002c6578703d00290a006d61702d73712d323a4f4b51
:20ed20000a006d61702d73712d333a4641494c28676f743d002c6578703d00290a006d615e
:20ed4000702d73712d333a4f4b0a0061736d2d6e65672d373a4641494c28676f743d002cb7
:20ed60006578703d00290a0061736d2d6e65672d373a4f4b0a0061736d2d6e65672d303aad
:20ed80004641494c28676f743d002c6578703d00290a0061736d2d6e65672d303a4f4b0adc
:20eda0000061736d2d73712d353a4641494c28676f743d002c6578703d00290a0061736d70
:20edc0002d73712d353a4f4b0a0061736d2d69642d34323a4641494c28676f743d002c657e
:20ede00078703d00290a0061736d2d69642d34323a4f4b0a0061736d2d7265706f696e74a0
:20ee00003a4641494c28676f743d002c6578703d00290a0061736d2d7265706f696e743a5b
:20ee20004f4b0a0053554954453a4641494c28002f00290a0053554954453a5041535328a1
:20ee400000290a00ae62e68027048d0520f839ec62c10a26088d06c60d2002ec62b6c00068
:20ee6000850227f9f7c00139b6c00085012614ccffff39b6c0005f8401398d07c10d2602a4
:20ee8000c60a39b6c000850127f9f6c0014f39ee648e00008de4c17f2714c1082710c10a77
:20eea0002723ac6224eee7c030018db120e68c000027e1c6088da6c6208da2c6088d9e30f9
:0ceec0001f335f20cf6fc48d881f1039f6
:10fff000e000e000e000e000e000e000e000e00001
:00000001FF
