:20e0000010ce7f007f0146bde21120fe3416a661e6633d3406a662e6653debe4e7e4a663cb
:20e02000e6643debe4e7e435063264393416a8621f02ece42a048d15ede4ec622a048d0db9
:20e04000ed621f204d35162a0a8d0d1f104353c30001398d031f103934164f5f8e00111c5f
:20e06000fe69636962301f270d594910a3e425efa3e41a0120eb326235901e018c00002763
:20e08000065849301f26fa391e018c000027f84456301f26fa393406ace12e29201e34068f
:20e0a000ace12c2120163406ace12d19200e3406ace12f1120063406ace127094f5f3934d6
:20e0c00006ace127f7cc0001393406ace122f620eb3406ace124ee20e33406ace125e620d1
:20e0e000db3406ace123de20d31083000026cd20d4aec1270710a3c126f76e846ed4ec6260
:20e100001f01cc000abde0d110270011ec621f01cc000abde0533406bde0fe3262ec621f49
:20e1200001cc000abde058c300301d3406bdf3b9326239327eec648e8000bde0b6102700fb
:20e140000dcceeff3406bdf3a232627ee193ec641f01cc0000bde0a610270013cc002d34f1
:20e1600006bdf3b93262ec644353c30001ed64ec64ed60ec60108300001027000cec603462
:20e1800006bde0fe32627ee193cc00303406bdf3b93262326239ec62108300001027000c34
:20e1a000ec623406bde0fe32627ee1b6cc00303406bdf3b9326239327eec641f01cc00102b
:20e1c000bde0d110270011ec641f01cc0004bde0883406bde1b73262ec648400c40fed600d
:20e1e000ec601f01cc000abde0a610270010ec60c300301d3406bdf3b932627ee20eec6006
:20e20000c3004183000a1d3406bdf3b93262326239ccef063406bdf3a23262ce01061f3047
:20e220003406ccef123406cc00003406cc0003bdf3933266ce01061f303406ccef15340685
:20e24000bdf42a32641083000010260016ccef173406bdf3a23262fc0102c30001fd0102b9
:20e260007ee2a0ccef223406bdf3a23262ce01061f303406bdf3a23262ccef2f3406bdf389
:20e28000a23262ccef323406bdf3a23262ccef343406bdf3a23262fc0104c30001fd010465
:20e2a000ce01061f303406ccef373406cc002a3406cc0003bdf3933266ce01061f3034069c
:20e2c000ccef3a3406bdf42a32641083000010260016ccef3d3406bdf3a23262fc0102c3e5
:20e2e0000001fd01027ee325ccef493406bdf3a23262ce01061f303406bdf3a23262ccef74
:20e30000573406bdf3a23262ccef5a3406bdf3a23262ccef5d3406bdf3a23262fc0104c355
:20e320000001fd0104ce01061f303406ccef603406ccffff3406cc0003bdf3933266ce01aa
:20e34000061f303406ccef633406bdf42a32641083000010260016ccef663406bdf3a232a7
:20e3600062fc0102c30001fd01027ee3aaccef733406bdf3a23262ce01061f303406bdf311
:20e38000a23262ccef823406bdf3a23262ccef853406bdf3a23262ccef883406bdf3a23289
:20e3a00062fc0104c30001fd0104ce01061f303406ccef8b3406cc7fff3406cc0003bdf353
:20e3c000933266ce01061f303406ccef8e3406bdf42a32641083000010260016ccef94345e
:20e3e00006bdf3a23262fc0102c30001fd01027ee42fccefa13406bdf3a23262ce01061f6d
:20e40000303406bdf3a23262ccefb03406bdf3a23262ccefb33406bdf3a23262ccefb934eb
:20e4200006bdf3a23262fc0104c30001fd0104ce01061f303406ccefbc3406cc0000340614
:20e44000cc0003bdf3933266ce01061f303406ccefbf3406bdf42a326410830000102600c6
:20e4600016ccefc13406bdf3a23262fc0102c30001fd01027ee4b4ccefcc3406bdf3a232cc
:20e4800062ce01061f303406bdf3a23262ccefd93406bdf3a23262ccefdc3406bdf3a232cd
:20e4a00062ccefde3406bdf3a23262fc0104c30001fd0104ce01061f303406ccefe1340646
:20e4c000ccffff3406cc0003bdf3933266ce01061f303406ccefe43406bdf42a3264108353
:20e4e000000010260016ccefea3406bdf3a23262fc0102c30001fd01027ee539cceff734c6
:20e5000006bdf3a23262ce01061f303406bdf3a23262ccf0063406bdf3a23262ccf00934f0
:20e5200006bdf3a23262ccf00f3406bdf3a23262fc0104c30001fd0104ce01061f303406df
:20e54000ccf0123406cc03e83406cc0003bdf3933266ce01061f303406ccf0153406bdf4fe
:20e560002a32641083000010260016ccf01a3406bdf3a23262fc0102c30001fd01027ee5e0
:20e58000beccf0263406bdf3a23262ce01061f303406bdf3a23262ccf0343406bdf3a232c9
:20e5a00062ccf0373406bdf3a23262ccf03c3406bdf3a23262fc0104c30001fd0104ce0138
:20e5c000061f303406ccf03f3406cc00003406cc0003bdf3933266ce01061f303406ccf0ad
:20e5e000423406bdf42a32641083000010260016ccf0443406bdf3a23262fc0102c300016c
:20e60000fd01027ee643ccf04f3406bdf3a23262ce01061f303406bdf3a23262ccf05c3498
:20e6200006bdf3a23262ccf05f3406bdf3a23262ccf0613406bdf3a23262fc0104c30001b1
:20e64000fd0104ce01061f303406ccf0643406cc00ff3406cc0003bdf3933266ce01061f5d
:20e66000303406ccf0673406bdf42a32641083000010260016ccf06a3406bdf3a23262fc41
:20e680000102c30001fd01027ee6c8ccf0763406bdf3a23262ce01061f303406bdf3a23253
:20e6a00062ccf0843406bdf3a23262ccf0873406bdf3a23262ccf08a3406bdf3a23262fcd3
:20e6c0000104c30001fd0104ce01061f303406ccf08d3406cc12343406cc0003bdf39332fe
:20e6e00066ce01061f303406ccf0903406bdf42a32641083000010260016ccf0953406bd38
:20e70000f3a23262fc0102c30001fd01027ee74dccf0a33406bdf3a23262ce01061f303484
:20e7200006bdf3a23262ccf0b33406bdf3a23262ccf0b63406bdf3a23262ccf0bb3406bd5e
:20e74000f3a23262fc0104c30001fd0104ce01061f303406ccf0be3406ccabcd3406cc006d
:20e7600003bdf3933266ce01061f303406ccf0c13406bdf42a32641083000010260016cc8a
:20e78000f0c63406bdf3a23262fc0102c30001fd01027ee7d2ccf0d43406bdf3a23262ce2b
:20e7a00001061f303406bdf3a23262ccf0e43406bdf3a23262ccf0e73406bdf3a23262cc94
:20e7c000f0ec3406bdf3a23262fc0104c30001fd0104ce01061f303406ccf0ef3406ccf077
:20e7e000f23406cc0003bdf3933266ce01061f303406ccf0f83406bdf42a326410830000f3
:20e8000010260016ccf0fe3406bdf3a23262fc0102c30001fd01027ee857ccf10d3406bd91
:20e82000f3a23262ce01061f303406bdf3a23262ccf11e3406bdf3a23262ccf1213406bd9b
:20e84000f3a23262ccf1273406bdf3a23262fc0104c30001fd0104ce01061f303406ccf1a9
:20e860002a3406ccf12d3406cc0003bdf3933266ce01061f303406ccf12e3406bdf42a32d6
:20e88000641083000010260016ccf12f3406bdf3a23262fc0102c30001fd01027ee8dccc58
:20e8a000f13e3406bdf3a23262ce01061f303406bdf3a23262ccf14f3406bdf3a23262cccd
:20e8c000f1523406bdf3a23262ccf1533406bdf3a23262fc0104c30001fd0104ce01061fea
:20e8e000303406ccf1563406cc00413406cc0003bdf3933266ce01061f303406ccf15934c8
:20e9000006bdf42a32641083000010260016ccf15b3406bdf3a23262fc0102c30001fd01a8
:20e92000027ee961ccf1663406bdf3a23262ce01061f303406bdf3a23262ccf1733406bd5f
:20e94000f3a23262ccf1763406bdf3a23262ccf1783406bdf3a23262fc0104c30001fd0123
:20e9600004ce01061f303406ccf17b3406cc00303406cc0003bdf3933266ce01061f30348b
:20e9800006ccf17e3406bdf42a32641083000010260016ccf1803406bdf3a23262fc010250
:20e9a000c30001fd01027ee9e6ccf18b3406bdf3a23262ce01061f303406bdf3a23262ccce
:20e9c000f1983406bdf3a23262ccf19b3406bdf3a23262ccf19d3406bdf3a23262fc01049b
:20e9e000c30001fd0104ce01061f303406ccf1a03406cc002a3406cc0003bdf3933266ceb4
:20ea000001061f303406ccf1a43406bdf42a32641083000010260016ccf1aa3406bdf3a288
:20ea20003262fc0102c30001fd01027eea6bccf1b53406bdf3a23262ce01061f303406bdff
:20ea4000f3a23262ccf1c23406bdf3a23262ccf1c53406bdf3a23262ccf1cb3406bdf3a238
:20ea60003262fc0104c30001fd0104ce01061f303406ccf1ce3406ccffff3406cc0003bd88
:20ea8000f3933266ce01061f303406ccf1d23406bdf42a32641083000010260016ccf1d84c
:20eaa0003406bdf3a23262fc0102c30001fd01027eeaf0ccf1e53406bdf3a23262ce010684
:20eac0001f303406bdf3a23262ccf1f43406bdf3a23262ccf1f73406bdf3a23262ccf1fd68
:20eae0003406bdf3a23262fc0104c30001fd0104ce01061f303406ccf2003406cc00643475
:20eb000006cc0003bdf3933266ce01061f303406ccf2043406bdf42a3264108300001026b1
:20eb20000016ccf20a3406bdf3a23262fc0102c30001fd01027eeb75ccf2153406bdf3a2d7
:20eb40003262ce01061f303406bdf3a23262ccf2223406bdf3a23262ccf2253406bdf3a26e
:20eb60003262ccf22b3406bdf3a23262fc0104c30001fd0104ce01061f303406ccf22e34b3
:20eb800006cc002a3406cc0003bdf3933266ce01061f303406ccf2333406bdf42a3264108b
:20eba00083000010260016ccf2393406bdf3a23262fc0102c30001fd01027eebfaccf24546
:20ebc0003406bdf3a23262ce01061f303406bdf3a23262ccf2533406bdf3a23262ccf2568c
:20ebe0003406bdf3a23262ccf25c3406bdf3a23262fc0104c30001fd0104ce01061f30349c
:20ec000006ccf25f3406ccf2643406cc0003bdf3933266ce01061f303406ccf2673406bd17
:20ec2000f42a32641083000010260016ccf26d3406bdf3a23262fc0102c30001fd01027eb5
:20ec4000ec7fccf2793406bdf3a23262ce01061f303406bdf3a23262ccf2873406bdf3a2dd
:20ec60003262ccf28a3406bdf3a23262ccf2903406bdf3a23262fc0104c30001fd0104ce95
:20ec800001061f303406ccf2933406cc002a3406cc0003bdf3933266ce01061f303406cc55
:20eca000f2983406bdf42a32641083000010260016ccf29e3406bdf3a23262fc0102c30002
:20ecc00001fd01027eed04ccf2a93406bdf3a23262ce01061f303406bdf3a23262ccf2b685
:20ece0003406bdf3a23262ccf2b93406bdf3a23262ccf2bf3406bdf3a23262fc0104c300fc
:20ed000001fd0104ce01061f303406ccf2c23406cc00ff3406cc0003bdf3933266ce010654
:20ed20001f303406ccf2c73406bdf42a32641083000010260016ccf2cd3406bdf3a2326290
:20ed4000fc0102c30001fd01027eed89ccf2d83406bdf3a23262ce01061f303406bdf3a296
:20ed60003262ccf2e53406bdf3a23262ccf2e83406bdf3a23262ccf2ee3406bdf3a23262aa
:20ed8000fc0104c30001fd0104ce01061f303406ccf2f13406cc00033406cc00043406cc86
:20eda00000073406cc0005bdf393326ace01061f303406ccf2fa3406bdf42a32641083000e
:20edc0000010260016ccf3003406bdf3a23262fc0102c30001fd01027eee18ccf30d3406bb
:20ede000bdf3a23262ce01061f303406bdf3a23262ccf31c3406bdf3a23262ccf31f3406d6
:20ee0000bdf3a23262ccf3253406bdf3a23262fc0104c30001fd0104ce01061f303406cc17
:20ee2000f3283406cc00633406cc0003bdf3933266ce01061f303406ccf32e3406bdf42a0a
:20ee400032641083000010260016ccf3343406bdf3a23262fc0102c30001fd01027eee9d5e
:20ee6000ccf33f3406bdf3a23262ce01061f303406bdf3a23262ccf34c3406bdf3a2326205
:20ee8000ccf34f3406bdf3a23262ccf3553406bdf3a23262fc0104c30001fd0104fc010448
:20eea0001083000010270038ccf3583406bdf3a23262fc01043406bde1333262ccf3643422
:20eec00006bdf3a23262fc0102f301043406bde1333262ccf3663406bdf3a232627eeefe01
:20eee000ccf3693406bdf3a23262fc01023406bde1333262ccf3753406bdf3a23262392d72
:20ef00003332373638007430395f7072696e74660a00256400300073702d642d303a4f4bb0
:20ef20000a0073702d642d303a4641494c2800213d003000290a0025640034320073702db8
:20ef4000642d34323a4f4b0a0073702d642d34323a4641494c2800213d00343200290a0060
:20ef60002564002d310073702d642d6e65673a4f4b0a0073702d642d6e65673a4641494cc0
:20ef80002800213d002d3100290a0025640033323736370073702d642d6d61783a4f4b0a03
:20efa0000073702d642d6d61783a4641494c2800213d00333237363700290a002575003088
:20efc0000073702d752d303a4f4b0a0073702d752d303a4641494c2800213d003000290a50
:20efe0000025750036353533350073702d752d6d61783a4f4b0a0073702d752d6d61783a67
:20f000004641494c2800213d00363535333500290a00257500313030300073702d752d31d5
:20f020006b3a4f4b0a0073702d752d316b3a4641494c2800213d003130303000290a002544
:20f040007800300073702d782d303a4f4b0a0073702d782d303a4641494c2800213d003054
:20f0600000290a0025780046460073702d782d66663a4f4b0a0073702d782d66663a464193
:20f08000494c2800213d00464600290a00257800313233340073702d782d313233343a4f27
:20f0a0004b0a0073702d782d313233343a4641494c2800213d003132333400290a00257806
:20f0c00000414243440073702d782d616263643a4f4b0a0073702d782d616263643a464109
:20f0e000494c2800213d004142434400290a0025730068656c6c6f0068656c6c6f00737015
:20f100002d732d68656c6c6f3a4f4b0a0073702d732d68656c6c6f3a4641494c2800213d90
:20f120000068656c6c6f00290a00257300000073702d732d656d7074793a4f4b0a00737050
:20f140002d732d656d7074793a4641494c2800213d0000290a00256300410073702d632d3b
:20f16000413a4f4b0a0073702d632d413a4641494c2800213d004100290a00256300300087
:20f1800073702d632d303a4f4b0a0073702d632d303a4641494c2800213d003000290a00b2
:20f1a0002535640020202034320073702d7735643a4f4b0a0073702d7735643a4641494c57
:20f1c0002800213d00202020343200290a00253564002d202020310073702d77356e65673e
:20f1e0003a4f4b0a0073702d77356e65673a4641494c2800213d002d2020203100290a006e
:20f200002535750020203130300073702d7735753a4f4b0a0073702d7735753a4641494cb8
:20f220002800213d00202031303000290a00252d35640034322020200073702d6c6a356414
:20f240003a4f4b0a0073702d6c6a35643a4641494c2800213d00343220202000290a002557
:20f260002d35730068690068692020200073702d6c6a35733a4f4b0a0073702d6c6a3573bd
:20f280003a4641494c2800213d00686920202000290a002530356400303030343200737067
:20f2a0002d7a35643a4f4b0a0073702d7a35643a4641494c2800213d003030303432002912
:20f2c0000a00253035780030303046460073702d7a35783a4f4b0a0073702d7a35783a463a
:20f2e00041494c2800213d00303030464600290a0025642b25643d256400332b343d37005a
:20f3000073702d6d756c74693a4f4b0a0073702d6d756c74693a4641494c2800213d00338a
:20f320002b343d3700290a006e3d256421006e3d3939210073702d6d69783a4f4b0a007385
:20f34000702d6d69783a4641494c2800213d006e3d39392100290a0053554954453a46412a
:20f36000494c28002f00290a0053554954453a504153532800290a005c5830e532e89c1f7a
:20f3800040340634063410bdf4433264bdf3a232e866395830e5ec8434063410bdf443325f
:20f3a0006439ae62e68027048d0520f839ec62c10a26088d06c60d2002ec62b6c000850212
:20f3c00027f9f7c00139b6c00085012614ccffff39b6c0005f8401398d07c10d2602c60af6
:20f3e00039b6c000850127f9f6c0014f39ee648e00008de4c17f2714c1082710c10a272398
:20f40000ac6224eee7c030018db120e68c000027e1c6088da6c6208da2c6088d9e301f338b
:20f420005f20cf6fc48d881f1039ae62ee64a680a1c0250722094d26f55f39ccffff39ccbf
:20f44000000139ae62ee83af62a6c08125270aae64a780af644d26f139a6c4c620812d2696
:20f4600006ca803341a6c481302602ca30f701005fa6c08030810a24093402860a3debe098
:20f4800020eff70101ae62ec83af621f01a65f3440ee66c6028162272ec608816f2728c614
:20f4a00010817827228175271c8164264f1f104d2a134353c300011f01862da7c0f6010122
:20f4c00027037a0101c60a4f34021f024fbde058cb30c1392302cb0734041f204c8c000091
:20f4e00026e8bdf527e6e02704e7c020f87d01002a03bdf52def6635407ef4498173261636
:20f50000341086ff4ce68026fb3510bdf527e68027dbe7c020f81f89816326021f108601a0
:20f52000bdf527e7c020c67d01002a01393406f60101270eb60100843fe1e42305a7c05af4
:04f5400020f73586f5
:10fff000e000e000e000e000e000e000e000e00001
:00000001FF
