:20e0000010ce7f007f0108bde21520fe3416a661e6633d3406a662e6653debe4e7e4a66305
:20e02000e6643debe4e7e435063264393416a8621f02ece42a048d15ede4ec622a048d0db9
:20e04000ed621f204d35162a0a8d0d1f104353c30001398d031f103934164f5f8e00111c5f
:20e06000fe69636962301f270d594910a3e425efa3e41a0120eb326235901e018c00002763
:20e08000065849301f26fa391e018c000027f84456301f26fa393406ace12e29201e34068f
:20e0a000ace12c2120163406ace12d19200e3406ace12f1120063406ace127094f5f3934d6
:20e0c00006ace127f7cc0001393406ace122f620eb3406ace124ee20e33406ace125e620d1
:20e0e000db3406ace123de20d31083000026cd20d4aec1270710a3c126f76e846ed4ec6260
:20e100001f01cc000abde0d110270011ec621f01cc000abde0533406bde0fe3262ec621f49
:20e1200001cc000abde058c300301d3406bdef56326239327eec648e8000bde0b610270062
:20e140000dcceb753406bdef3f32627ee193ec641f01cc0000bde0a610270013cc002d34e5
:20e1600006bdef563262ec644353c30001ed64ec64ed60ec60108300001027000cec6034c9
:20e1800006bde0fe32627ee193cc00303406bdef563262326239ec62108300001027000c9b
:20e1a000ec623406bde0fe32627ee1b6cc00303406bdef56326239327eec641f01cc001092
:20e1c000bde0d110270011ec641f01cc0004bde0883406bde1b73262ec648400c40fed600d
:20e1e000ec601f01cc000abde0a610270010ec60c300301d3406bdef5632627ee20eec606d
:20e20000c3004183000a1d3406bdef5632623262390001000032e8eecceb7c3406bdef3f52
:20e2200032627ee263cceb893406bdef3f3262cc00003406bde1333262cceb9c3406bdefea
:20e240003f3262cc00003406bde1333262cceba23406bdef3f3262fc0104c30001fd0104a7
:20e260007ee276cceba53406bdef3f3262fc0102c30001fd01027ee2b7ccebb23406bdef8a
:20e280003f3262cc00013406bde1333262ccebc43406bdef3f3262cc00013406bde1333201
:20e2a00062ccebca3406bdef3f3262fc0104c30001fd01047ee2caccebcd3406bdef3f32f6
:20e2c00062fc0102c30001fd01027ee30bccebd93406bdef3f3262cc002a3406bde1333231
:20e2e00062ccebee3406bdef3f3262cc002a3406bde1333262ccebf43406bdef3f3262fc69
:20e300000104c30001fd01047ee31eccebf73406bdef3f3262fc0102c30001fd01027ee328
:20e320005fccec063406bdef3f3262ccfff93406bde1333262ccec183406bdef3f3262cc4f
:20e34000fff93406bde1333262ccec1e3406bdef3f3262fc0104c30001fd01047ee372cc31
:20e36000ec213406bdef3f3262fc0102c30001fd0102cc00002705cc00032003cc000783d4
:20e38000000710270048ccec2d3406bdef3f3262cc00002705cc00032003cc00073406bda5
:20e3a000e1333262ccec3e3406bdef3f3262cc00073406bde1333262ccec443406bdef3f73
:20e3c0003262fc0104c30001fd01047ee3e1ccec473406bdef3f3262fc0102c30001fd0127
:20e3e00002cc00012705cc00092003cc000283000910270048ccec523406bdef3f3262ccc2
:20e4000000012705cc00092003cc00023406bde1333262ccec633406bdef3f3262cc0009c1
:20e420003406bde1333262ccec693406bdef3f3262fc0104c30001fd01047ee450ccec6cc6
:20e440003406bdef3f3262fc0102c30001fd0102cc00002705cc00052003cc0005830005fb
:20e4600010270048ccec773406bdef3f3262cc00002705cc00052003cc00053406bde1336d
:20e480003262ccec883406bdef3f3262cc00053406bde1333262ccec8e3406bdef3f326280
:20e4a000fc0104c30001fd01047ee4bfccec913406bdef3f3262fc0102c30001fd0102cce3
:20e4c00000012705cc00032003cc000783000310270048ccec9c3406bdef3f3262cc00016b
:20e4e0002705cc00032003cc00073406bde1333262ccecad3406bdef3f3262cc0003340665
:20e50000bde1333262ccecb33406bdef3f3262fc0104c30001fd01047ee52eccecb6340672
:20e52000bdef3f3262fc0102c30001fd0102cc00002705cc00052003cc000583000510271d
:20e540000048ccecc13406bdef3f3262cc00002705cc00052003cc00053406bde1333262e5
:20e56000ccecd23406bdef3f3262cc00053406bde1333262ccecd83406bdef3f3262fc01a2
:20e5800004c30001fd01047ee59dccecdb3406bdef3f3262fc0102c30001fd0102cc0000d6
:20e5a0002705ccfff62003cc000a83000a10270048ccece63406bdef3f3262cc000027051a
:20e5c000ccfff62003cc000a3406bde1333262ccecf83406bdef3f3262cc000a3406bde1cb
:20e5e000333262ccecfe3406bdef3f3262fc0104c30001fd01047ee60ccced013406bdef0e
:20e600003f3262fc0102c30001fd0102cc00012705cc000a2003ccfff683000a10270048a5
:20e62000cced0d3406bdef3f3262cc00012705cc000a2003ccfff63406bde1333262cced50
:20e640001f3406bdef3f3262cc000a3406bde1333262cced253406bdef3f3262fc0104c312
:20e660000001fd01047ee67bcced283406bdef3f3262fc0102c30001fd01027ee6bccced82
:20e68000343406bdef3f3262cc00103406bde1333262cced433406bdef3f3262cc0010344d
:20e6a00006bde1333262cced493406bdef3f3262fc0104c30001fd01047ee6cfcced4c3401
:20e6c00006bdef3f3262fc0102c30001fd01027ee710cced553406bdef3f3262cc000934ad
:20e6e00006bde1333262cced663406bdef3f3262cc00093406bde1333262cced6c3406bd47
:20e70000ef3f3262fc0104c30001fd01047ee723cced6f3406bdef3f3262fc0102c3000144
:20e72000fd01027ee764cced7a3406bdef3f3262cc00073406bde1333262cced8c3406bd76
:20e74000ef3f3262cc00073406bde1333262cced923406bdef3f3262fc0104c30001fd01be
:20e76000047ee777cced953406bdef3f3262fc0102c30001fd0102fce21183000110270045
:20e780003ecceda13406bdef3f3262fce2113406bde1333262ccedb13406bdef3f3262ccab
:20e7a00000013406bde1333262ccedb73406bdef3f3262fc0104c30001fd01047ee7d2ccc6
:20e7c000edba3406bdef3f3262fc0102c30001fd0102fce2138300001027003eccedc4347c
:20e7e00006bdef3f3262fce2133406bde1333262ccedd43406bdef3f3262cc00003406bdfb
:20e80000e1333262ccedda3406bdef3f3262fc0104c30001fd01047ee82dcceddd3406bd1d
:20e82000ef3f3262fc0102c30001fd0102cc0063fd0106fc01068300631027003eccede722
:20e840003406bdef3f3262fc01063406bde1333262ccedf73406bdef3f3262cc006334068b
:20e86000bde1333262ccedfd3406bdef3f3262fc0104c30001fd01047ee88eccee00340615
:20e88000bdef3f3262fc0102c30001fd0102cc0001ed60ec608300011027003dccee0a34e0
:20e8a00006bdef3f3262ec603406bde1333262ccee1c3406bdef3f3262cc00013406bde1b4
:20e8c000333262ccee223406bdef3f3262fc0104c30001fd01047ee8ecccee253406bdeffe
:20e8e0003f3262fc0102c30001fd0102cc0000ed60ec608300001027003dccee313406bd44
:20e90000ef3f3262ec603406bde1333262ccee493406bdef3f3262cc00003406bde1333285
:20e9200062ccee4f3406bdef3f3262fc0104c30001fd01047ee94accee523406bdef3f32d8
:20e9400062fc0102c30001fd0102cc0001ed60ec608300011027003dccee643406bdef3ff1
:20e960003262ec603406bde1333262ccee773406bdef3f3262cc00013406bde1333262ccf6
:20e98000ee7d3406bdef3f3262fc0104c30001fd01047ee9a8ccee803406bdef3f3262fc8e
:20e9a0000102c30001fd0102cc006ced60ec6010270016ccee8d3406bdef3f3262fc010273
:20e9c000c30001fd01027ee9dcccee9e3406bdef3f3262fc0104c30001fd0104cc00002765
:20e9e00005cc00092003cc001083001010270048cceeb73406bdef3f3262cc00002705cc3e
:20ea000000092003cc00103406bde1333262cceecf3406bdef3f3262cc00103406bde13326
:20ea20003262cceed53406bdef3f3262fc0104c30001fd01047eea4bcceed83406bdef3fc9
:20ea40003262fc0102c30001fd0102cc00012705ccfffb2003ccfffd1f01cc0000bde0a686
:20ea60002714cc00012705ccfffb2003ccfffd4353c30001200dcc00012705ccfffb200348
:20ea8000ccfffd83000510270073cceeea3406bdef3f3262cc00012705ccfffb2003ccff72
:20eaa000fd1f01cc0000bde0a62714cc00012705ccfffb2003ccfffd4353c30001200dccf2
:20eac00000012705ccfffb2003ccfffd3406bde1333262ccef033406bdef3f3262cc000571
:20eae0003406bde1333262ccef093406bdef3f3262fc0104c30001fd01047eeb10ccef0cf3
:20eb00003406bdef3f3262fc0102c30001fd0102fc01041083000010270038ccef1f340662
:20eb2000bdef3f3262fc01043406bde1333262ccef2b3406bdef3f3262fc0102f3010434ec
:20eb400006bde1333262ccef2d3406bdef3f32627eeb71ccef303406bdef3f3262fc01022c
:20eb60003406bde1333262ccef3c3406bdef3f326232e812392d3332373638007431305f76
:20eb800070726570726f630a006465662d7a65726f3a4641494c28676f743d002c657870d6
:20eba0003d00290a006465662d7a65726f3a4f4b0a006465662d6f6e653a4641494c286768
:20ebc0006f743d002c6578703d00290a006465662d6f6e653a4f4b0a006465662d616e7312
:20ebe0007765723a4641494c28676f743d002c6578703d00290a006465662d616e7377655f
:20ec0000723a4f4b0a006465662d6e65673a4641494c28676f743d002c6578703d00290a20
:20ec2000006465662d6e65673a4f4b0a006d61782d61623a4641494c28676f743d002c6594
:20ec400078703d00290a006d61782d61623a4f4b0a006d61782d62613a4641494c28676fbe
:20ec6000743d002c6578703d00290a006d61782d62613a4f4b0a006d61782d65713a4641dc
:20ec8000494c28676f743d002c6578703d00290a006d61782d65713a4f4b0a006d696e2daf
:20eca00061623a4641494c28676f743d002c6578703d00290a006d696e2d61623a4f4b0a91
:20ecc000006d696e2d65713a4641494c28676f743d002c6578703d00290a006d696e2d6529
:20ece000713a4f4b0a006162732d706f733a4641494c28676f743d002c6578703d00290a22
:20ed0000006162732d706f733a4f4b0a006162732d6e65673a4641494c28676f743d002c92
:20ed20006578703d00290a006162732d6e65673a4f4b0a0073712d343a4641494c28676f02
:20ed4000743d002c6578703d00290a0073712d343a4f4b0a0073712d6e65673a4641494c55
:20ed600028676f743d002c6578703d00290a0073712d6e65673a4f4b0a006964656e742d91
:20ed8000373a4641494c28676f743d002c6578703d00290a006964656e742d373a4f4b0af8
:20eda0000069662d65713a4641494c28676f743d002c6578703d00290a0069662d65713a87
:20edc0004f4b0a0069662d67743a4641494c28676f743d002c6578703d00290a0069662dce
:20ede00067743a4f4b0a0070617374653a4641494c28676f743d002c6578703d00290a004f
:20ee000070617374653a4f4b0a0069666465662d613a4641494c28676f743d002c657870ed
:20ee20003d00290a0069666465662d613a4f4b0a0069666465662d622d756e6465663a46ac
:20ee400041494c28676f743d002c6578703d00290a0069666465662d622d756e6465663a3e
:20ee60004f4b0a0069666e6465662d623a4641494c28676f743d002c6578703d00290a0005
:20ee800069666e6465662d623a4f4b0a006c696e652d6e6f6e7a65726f3a4f4b0a006c6906
:20eea0006e652d6e6f6e7a65726f3a4641494c287a65726f290a006e65737465642d6d6158
:20eec000782d73713a4641494c28676f743d002c6578703d00290a006e65737465642d6d9e
:20eee00061782d73713a4f4b0a006e65737465642d6162732d6e65673a4641494c28676fa9
:20ef0000743d002c6578703d00290a006e65737465642d6162732d6e65673a4f4b0a0053d9
:20ef2000554954453a4641494c28002f00290a0053554954453a504153532800290a00aeb6
:20ef400062e68027048d0520f839ec62c10a26088d06c60d2002ec62b6c000850227f9f7aa
:20ef6000c00139b6c00085012614ccffff39b6c0005f8401398d07c10d2602c60a39b6c0c2
:20ef800000850127f9f6c0014f39ee648e00008de4c17f2714c1082710c10a2723ac622479
:20efa000eee7c030018db120e68c000027e1c6088da6c6208da2c6088d9e301f335f20cfd4
:07efc0006fc48d881f10399a
:10fff000e000e000e000e000e000e000e000e00001
:00000001FF
