:20e0000010ce7f007f0110bde25020fe3416a661e6633d3406a662e6653debe4e7e4a663c2
:20e02000e6643debe4e7e435063264393416a8621f02ece42a048d15ede4ec622a048d0db9
:20e04000ed621f204d35162a0a8d0d1f104353c30001398d031f103934164f5f8e00111c5f
:20e06000fe69636962301f270d594910a3e425efa3e41a0120eb326235901e018c00002763
:20e08000065849301f26fa391e018c000027f84456301f26fa393406ace12e29201e34068f
:20e0a000ace12c2120163406ace12d19200e3406ace12f1120063406ace127094f5f3934d6
:20e0c00006ace127f7cc0001393406ace122f620eb3406ace124ee20e33406ace125e620d1
:20e0e000db3406ace123de20d31083000026cd20d4aec1270710a3c126f76e846ed4ec6260
:20e100001f01cc000abde0d110270011ec621f01cc000abde0533406bde0fe3262ec621f49
:20e1200001cc000abde058c300301d3406bdebe8326239327eec648e8000bde0b6102700d4
:20e140000dcce8f83406bdebd132627ee193ec641f01cc0000bde0a610270013cc002d34d7
:20e1600006bdebe83262ec644353c30001ed64ec64ed60ec60108300001027000cec60343b
:20e1800006bde0fe32627ee193cc00303406bdebe83262326239ec62108300001027000c0d
:20e1a000ec623406bde0fe32627ee1b6cc00303406bdebe8326239327eec641f01cc001004
:20e1c000bde0d110270011ec641f01cc0004bde0883406bde1b73262ec648400c40fed600d
:20e1e000ec601f01cc000abde0a610270010ec60c300301d3406bdebe832627ee20eec60df
:20e20000c3004183000a1d3406bdebe83262326239000afffbfc010cc30001fd010cfc014d
:20e220000c39cc0000fd010c39fc0102c30001fd0102fc010239fc0104bde0e9fd0104fc0a
:20e24000010439fc0106e362fd0106fc01063939327ecce8ff3406bdebd13262bde222bd97
:20e26000e2158300011027003ecce90b3406bdebd13262bde2153406bde1333262cce91b84
:20e280003406bdebd13262cc00013406bde1333262cce9213406bdebd13262fc010ac300e4
:20e2a00001fd010a7ee2bacce9243406bdebd13262fc0108c30001fd0108bde21583000213
:20e2c0001027003ecce92e3406bdebd13262bde2153406bde1333262cce93e3406bdebd1a6
:20e2e0003262cc00023406bde1333262cce9443406bdebd13262fc010ac30001fd010a7e8c
:20e30000e315cce9473406bdebd13262fc0108c30001fd0108bde2158300031027003ecc78
:20e32000e9513406bdebd13262bde2153406bde1333262cce9613406bdebd13262cc0003dd
:20e340003406bde1333262cce9673406bdebd13262fc010ac30001fd010a7ee370cce96af8
:20e360003406bdebd13262fc0108c30001fd0108bde222bde2158300011027003ecce974f0
:20e380003406bdebd13262bde2153406bde1333262cce9863406bdebd13262cc000134065a
:20e3a000bde1333262cce98c3406bdebd13262fc010ac30001fd010a7ee3cecce98f3406f0
:20e3c000bdebd13262fc0108c30001fd0108fce21183000a1027003ecce99b3406bdebd16d
:20e3e0003262fce2113406bde1333262cce9af3406bdebd13262cc000a3406bde1333262db
:20e40000cce9b53406bdebd13262fc010ac30001fd010a7ee429cce9b83406bdebd1326239
:20e42000fc0108c30001fd0108fce21383fffb1027003ecce9c63406bdebd13262fce21377
:20e440003406bde1333262cce9da3406bdebd13262ccfffb3406bde1333262cce9e0340613
:20e46000bdebd13262fc010ac30001fd010a7ee484cce9e33406bdebd13262fc0108c3002f
:20e4800001fd0108bde2298300011027003ecce9f13406bdebd13262bde2293406bde133f4
:20e4a0003262ccea003406bdebd13262cc00013406bde1333262ccea063406bdebd132625c
:20e4c000fc010ac30001fd010a7ee4dfccea093406bdebd13262fc0108c30001fd0108bd96
:20e4e000e2298300021027003eccea123406bdebd13262bde2293406bde1333262ccea21ca
:20e500003406bdebd13262cc00023406bde1333262ccea273406bdebd13262fc010ac30059
:20e5200001fd010a7ee53accea2a3406bdebd13262fc0108c30001fd0108bde229830003f1
:20e540001027003eccea333406bdebd13262bde2293406bde1333262ccea423406bdebd104
:20e560003262cc00033406bde1333262ccea483406bdebd13262fc010ac30001fd010a7e03
:20e58000e595ccea4b3406bdebd13262fc0108c30001fd0108bde2298300041027003ecc5a
:20e5a000ea543406bdebd13262bde2293406bde1333262ccea633406bdebd13262cc00043f
:20e5c0003406bde1333262ccea693406bdebd13262fc010ac30001fd010a7ee5f0ccea6cee
:20e5e0003406bdebd13262fc0108c30001fd0108bde2361083000010270016ccea753406eb
:20e60000bdebd13262fc0108c30001fd01087ee624ccea7f3406bdebd13262fc010ac30050
:20e6200001fd010abde2361083000010260016ccea913406bdebd13262fc0108c30001fdc9
:20e6400001087ee658ccea9b3406bdebd13262fc010ac30001fd010abde236108300001012
:20e66000270016cceab03406bdebd13262fc0108c30001fd01087ee68ccceaba3406bdeb9f
:20e68000d13262fc010ac30001fd010acc000a3406bde243326283000a10270045cceacc31
:20e6a0003406bdebd13262cc000a3406bde24332623406bde1333262cceadd3406bdebd1a8
:20e6c0003262cc000a3406bde1333262cceae33406bdebd13262fc010ac30001fd010a7e00
:20e6e000e6f5cceae63406bdebd13262fc0108c30001fd0108cc00143406bde2433262837a
:20e70000001e10270045cceaf13406bdebd13262cc00143406bde24332623406bde13332a4
:20e7200062cceb023406bdebd13262cc001e3406bde1333262cceb083406bdebd13262fcec
:20e74000010ac30001fd010a7ee75ecceb0b3406bdebd13262fc0108c30001fd0108cc007b
:20e76000053406bde243326283002310270045cceb163406bdebd13262cc00053406bde204
:20e780004332623406bde1333262cceb263406bdebd13262cc00233406bde1333262cceb9a
:20e7a0002c3406bdebd13262fc010ac30001fd010a7ee7c7cceb2f3406bdebd13262fc01bd
:20e7c00008c30001fd0108cc0000fd010efc010e10260016cceb393406bdebd13262fc0104
:20e7e00008c30001fd01087ee7fdcceb473406bdebd13262fc010ac30001fd010acc000100
:20e80000fd010efc010e10270016cceb603406bdebd13262fc0108c30001fd01087ee833ce
:20e82000cceb6d3406bdebd13262fc010ac30001fd010afce211f3e21383000510270041c3
:20e84000cceb823406bdebd13262fce211f3e2133406bde1333262cceb983406bdebd1328e
:20e8600062cc00053406bde1333262cceb9e3406bdebd13262fc010ac30001fd010a7ee8f1
:20e8800094cceba13406bdebd13262fc0108c30001fd0108fc010a1083000010270038cca1
:20e8a000ebb13406bdebd13262fc010a3406bde1333262ccebbd3406bdebd13262fc01080f
:20e8c000f3010a3406bde1333262ccebbf3406bdebd132627ee8f5ccebc23406bdebd13225
:20e8e00062fc01083406bde1333262ccebce3406bdebd132623262392d33323736380074ce
:20e9000031315f7374617469630a006374722d313a4641494c28676f743d002c6578703d42
:20e9200000290a006374722d313a4f4b0a006374722d323a4641494c28676f743d002c65e1
:20e9400078703d00290a006374722d323a4f4b0a006374722d333a4641494c28676f743d2b
:20e96000002c6578703d00290a006374722d333a4f4b0a006374722d7273743a4641494c02
:20e9800028676f743d002c6578703d00290a006374722d7273743a4f4b0a00636f6e73740b
:20e9a0002d74656e3a4641494c28676f743d002c6578703d00290a00636f6e73742d7465c8
:20e9c0006e3a4f4b0a00636f6e73742d6e65673a4641494c28676f743d002c6578703d00a2
:20e9e000290a00636f6e73742d6e65673a4f4b0a0069642d313a4641494c28676f743d0048
:20ea00002c6578703d00290a0069642d313a4f4b0a0069642d323a4641494c28676f743dd3
:20ea2000002c6578703d00290a0069642d323a4f4b0a0069642d333a4641494c28676f74ee
:20ea40003d002c6578703d00290a0069642d333a4f4b0a0069642d343a4641494c28676f03
:20ea6000743d002c6578703d00290a0069642d343a4f4b0a00746f672d313a4f4b0a0074f6
:20ea80006f672d313a4641494c287a65726f290a00746f672d323a4f4b0a00746f672d32a1
:20eaa0003a4641494c286e6f6e7a65726f290a00746f672d333a4f4b0a00746f672d333a2e
:20eac0004641494c287a65726f290a006163632d31303a4641494c28676f743d002c65783c
:20eae000703d00290a006163632d31303a4f4b0a006163632d32303a4641494c28676f7425
:20eb00003d002c6578703d00290a006163632d32303a4f4b0a006163632d353a4641494c5c
:20eb200028676f743d002c6578703d00290a006163632d353a4f4b0a0073666c61672d6f2d
:20eb400066663a4f4b0a0073666c61672d6f66663a4641494c286e6f6e7a65726f290a00da
:20eb600073666c61672d6f6e3a4f4b0a0073666c61672d6f6e3a4641494c287a65726f2922
:20eb80000a00636f6e73742d61726974683a4641494c28676f743d002c6578703d00290a11
:20eba00000636f6e73742d61726974683a4f4b0a0053554954453a4641494c28002f0029ab
:20ebc0000a0053554954453a504153532800290a00ae62e68027048d0520f839ec62c10a38
:20ebe00026088d06c60d2002ec62b6c000850227f9f7c00139b6c00085012614ccffff39ca
:20ec0000b6c0005f8401398d07c10d2602c60a39b6c000850127f9f6c0014f39ee648e0093
:20ec2000008de4c17f2714c1082710c10a2723ac6224eee7c030018db120e68c000027e103
:19ec4000c6088da6c6208da2c6088d9e301f335f20cf6fc48d881f10392c
:10fff000e000e000e000e000e000e000e000e00001
:00000001FF
