:20e0000010ce7f007f0134bde24820fe3416a661e6633d3406a662e6653debe4e7e4a663a6
:20e02000e6643debe4e7e435063264393416a8621f02ece42a048d15ede4ec622a048d0db9
:20e04000ed621f204d35162a0a8d0d1f104353c30001398d031f103934164f5f8e00111c5f
:20e06000fe69636962301f270d594910a3e425efa3e41a0120eb326235901e018c00002763
:20e08000065849301f26fa391e018c000027f84456301f26fa393406ace12e29201e34068f
:20e0a000ace12c2120163406ace12d19200e3406ace12f1120063406ace127094f5f3934d6
:20e0c00006ace127f7cc0001393406ace122f620eb3406ace124ee20e33406ace125e620d1
:20e0e000db3406ace123de20d31083000026cd20d4aec1270710a3c126f76e846ed4ec6260
:20e100001f01cc000abde0d110270011ec621f01cc000abde0533406bde0fe3262ec621f49
:20e1200001cc000abde058c300301d3406bdf0af326239327eec648e8000bde0b610270008
:20e140000dccece93406bdf09832627ee193ec641f01cc0000bde0a610270013cc002d3416
:20e1600006bdf0af3262ec644353c30001ed64ec64ed60ec60108300001027000cec60346f
:20e1800006bde0fe32627ee193cc00303406bdf0af3262326239ec62108300001027000c41
:20e1a000ec623406bde0fe32627ee1b6cc00303406bdf0af326239327eec641f01cc001038
:20e1c000bde0d110270011ec641f01cc0004bde0883406bde1b73262ec648400c40fed600d
:20e1e000ec601f01cc000abde0a610270010ec60c300301d3406bdf0af32627ee20eec6013
:20e20000c3004183000a1d3406bdf0af3262326239ee66ec64edc4ee66cc000233cbec6296
:20e22000edc439ee643440ee64ecf1e3c4ee643406cc000233cbece1e3c4ee623406cc0036
:20e240000233cbece1e3c4393278ccecf03406bdf0983262c6fff70106cc03e8fd0107c667
:20e260009cf70109ccfc18fd010ac601f7010cf601064f8300ff1027003fccecfd3406bd5e
:20e28000f0983262f601064f3406bde1333262cced0e3406bdf0983262cc00ff3406bde1fa
:20e2a000333262cced143406bdf0983262fc0104c30001fd01047ee2cccced173406bdf00d
:20e2c000983262fc0102c30001fd0102fc01078303e81027003ecced223406bdf09832627a
:20e2e000fc01073406bde1333262cced343406bdf0983262cc03e83406bde1333262cced6c
:20e300003a3406bdf0983262fc0104c30001fd01047ee327cced3d3406bdf0983262fc015b
:20e3200002c30001fd0102f601091d83ff9c1027003fcced493406bdf0983262f601091d34
:20e340003406bde1333262cced5a3406bdf0983262ccff9c3406bde1333262cced6034069f
:20e36000bdf0983262fc0104c30001fd01047ee384cced633406bdf0983262fc0102c30027
:20e3800001fd0102fc010a83fc181027003ecced6e3406bdf0983262fc010a3406bde1331d
:20e3a0003262cced803406bdf0983262ccfc183406bde1333262cced863406bdf0983262ac
:20e3c000fc0104c30001fd01047ee3dfcced893406bdf0983262fc0102c30001fd0102f628
:20e3e000010c10270016cced953406bdf0983262fc0102c30001fd01027ee40fcceda034a1
:20e4000006bdf0983262fc0104c30001fd0104c600f7010cf6010c10260016ccedb3340697
:20e42000bdf0983262fc0102c30001fd01027ee444ccedbe3406bdf0983262fc0104c3004c
:20e4400001fd0104ce010d1f303406cc00033406cc00043406bde2113266ce010decc483ea
:20e46000000310270040ccedd43406bdf0983262ce010decc43406bde1333262ccede43486
:20e4800006bdf0983262cc00033406bde1333262ccedea3406bdf0983262fc0104c30001b4
:20e4a000fd01047ee4b9cceded3406bdf0983262fc0102c30001fd0102ce010dcc000233e6
:20e4c000cbecc483000410270045ccedf73406bdf0983262ce010dcc000233cbecc4340669
:20e4e000bde1333262ccee073406bdf0983262cc00043406bde1333262ccee0d3406bdf0c6
:20e50000983262fc0104c30001fd01047ee522ccee103406bdf0983262fc0102c30001fde6
:20e520000102ce010d1f30ed60ee60ecc48300031027003fccee1a3406bdf0983262ee6031
:20e54000ecc43406bde1333262ccee2d3406bdf0983262cc00033406bde1333262ccee3317
:20e560003406bdf0983262fc0104c30001fd01047ee586ccee363406bdf0983262fc0102d6
:20e58000c30001fd0102ee60cc000233cbecc483000410270044ccee433406bdf0983262db
:20e5a000ee60cc000233cbecc43406bde1333262ccee563406bdf0983262cc00043406bd08
:20e5c000e1333262ccee5c3406bdf0983262fc0104c30001fd01047ee5edccee5f3406bd43
:20e5e000f0983262fc0102c30001fd01023362cc000aedc43362cc000233cbcc0014edc42e
:20e60000ce010d1f30340633641f303406bde2233264ed66ec668300251027003dccee6c36
:20e620003406bdf0983262ec663406bde1333262ccee7e3406bdf0983262cc00253406bda3
:20e64000e1333262ccee843406bdf0983262fc0104c30001fd01047ee66dccee873406bdf1
:20e66000f0983262fc0102c30001fd0102ce0111c6ffe7c4ce0111cc000133cbc600e7c44f
:20e68000ce0111cc000233cbc600e7c4ce0111e6c44f8300ff10270041ccee933406bdf056
:20e6a000983262ce0111e6c44f3406bde1333262cceea33406bdf0983262cc00ff3406bd84
:20e6c000e1333262cceea93406bdf0983262fc0104c30001fd01047ee6edcceeac3406bda7
:20e6e000f0983262fc0102c30001fd0102ce0111cc000133cbe6c44f83000010270046cccb
:20e70000eeb63406bdf0983262ce0111cc000133cbe6c44f3406bde1333262cceec6340645
:20e72000bdf0983262cc00003406bde1333262cceecc3406bdf0983262fc0104c30001fd3a
:20e7400001047ee758cceecf3406bdf0983262fc0102c30001fd0102cc0000ce012033cbdf
:20e76000cc0001edc4cc0002ce012033cbcc0002edc4cc0004ce012033cbcc0001edc4ccda
:20e780000006ce012033cbcc0002edc4cc0008ce012033cbcc0001edc4cc000ace012033d0
:20e7a000cbcc0004edc4cc000cce012033cbcc0004edc4cc000ece012033cbcc0004edc47f
:20e7c000cc0000ce012033cbecc483000110270045cceed93406bdf0983262cc0000ce018f
:20e7e0002033cbecc43406bde1333262cceee93406bdf0983262cc00013406bde13332628a
:20e80000cceeef3406bdf0983262fc0104c30001fd01047ee829cceef23406bdf098326227
:20e82000fc0102c30001fd0102cc0002ce012033cbecc483000210270045cceefc3406bdfc
:20e84000f0983262cc0002ce012033cbecc43406bde1333262ccef0d3406bdf0983262cceb
:20e8600000023406bde1333262ccef133406bdf0983262fc0104c30001fd01047ee892cc8b
:20e88000ef163406bdf0983262fc0102c30001fd0102cc0004ce012033cbecc4830001109c
:20e8a000270045ccef213406bdf0983262cc0004ce012033cbecc43406bde1333262ccef36
:20e8c000313406bdf0983262cc00013406bde1333262ccef373406bdf0983262fc0104c3bf
:20e8e0000001fd01047ee8fbccef3a3406bdf0983262fc0102c30001fd0102cc0006ce0148
:20e900002033cbecc483000210270045ccef443406bdf0983262cc0006ce012033cbecc4a7
:20e920003406bde1333262ccef553406bdf0983262cc00023406bde1333262ccef5b340658
:20e94000bdf0983262fc0104c30001fd01047ee964ccef5e3406bdf0983262fc0102c3005e
:20e9600001fd0102cc0008ce012033cbecc483000110270045ccef693406bdf0983262cc22
:20e980000008ce012033cbecc43406bde1333262ccef7b3406bdf0983262cc00013406bd26
:20e9a000e1333262ccef813406bdf0983262fc0104c30001fd01047ee9cdccef843406bd2f
:20e9c000f0983262fc0102c30001fd0102cc000ace012033cbecc483000410270045ccef27
:20e9e000903406bdf0983262cc000ace012033cbecc43406bde1333262ccefa23406bdf01e
:20ea0000983262cc00043406bde1333262ccefa83406bdf0983262fc0104c30001fd01041e
:20ea20007eea36ccefab3406bdf0983262fc0102c30001fd0102cc000cce012033cbecc487
:20ea400083000410270045ccefb73406bdf0983262cc000cce012033cbecc43406bde133ae
:20ea60003262ccefc83406bdf0983262cc00043406bde1333262ccefce3406bdf098326261
:20ea8000fc0104c30001fd01047eea9fccefd13406bdf0983262fc0102c30001fd0102cc7a
:20eaa000000ece012033cbecc483000410270045ccefdc3406bdf0983262cc000ece012035
:20eac00033cbecc43406bde1333262ccefee3406bdf0983262cc00043406bde1333262ccf2
:20eae000eff43406bdf0983262fc0104c30001fd01047eeb08cceff73406bdf0983262fc27
:20eb00000102c30001fd0102ce01141f303406cc002a3406bdf1fc3264ce01181f303406e2
:20eb2000cc002a3406bdf1fc3264ce011c1f303406cc00633406bdf1fc3264ce01141f3016
:20eb40003406ce01181f303406bdf1d13264ed66ec668300001027003dccf0033406bdf0b4
:20eb6000983262ec663406bde1333262ccf0153406bdf0983262cc00003406bde133326229
:20eb8000ccf01b3406bdf0983262fc0104c30001fd01047eeba9ccf01e3406bdf0983262c5
:20eba000fc0102c30001fd0102ce01141f303406ce011c1f303406bdf1d13264ed66ec66f8
:20ebc00083ffff1027003dccf02a3406bdf0983262ec663406bde1333262ccf03c3406bd67
:20ebe000f0983262ccffff3406bde1333262ccf0423406bdf0983262fc0104c30001fd01bc
:20ec0000047eec17ccf0453406bdf0983262fc0102c30001fd0102ce011c1f303406ce0155
:20ec2000141f303406bdf1d13264ed66ec668300011027003dccf0513406bdf0983262ec79
:20ec4000663406bde1333262ccf0633406bdf0983262cc00013406bde1333262ccf06934b8
:20ec600006bdf0983262fc0104c30001fd01047eec85ccf06c3406bdf0983262fc0102c302
:20ec80000001fd0102fc01041083000010270038ccf0783406bdf0983262fc01043406bd31
:20eca000e1333262ccf0843406bdf0983262fc0102f301043406bde1333262ccf086340647
:20ecc000bdf09832627eece6ccf0893406bdf0983262fc01023406bde1333262ccf0953490
:20ece00006bdf09832623268392d3332373638007431325f747970656465660a0075382d20
:20ed000076616c3a4641494c28676f743d002c6578703d00290a0075382d76616c3a4f4bd1
:20ed20000a007531362d76616c3a4641494c28676f743d002c6578703d00290a00753136b3
:20ed40002d76616c3a4f4b0a0073382d76616c3a4641494c28676f743d002c6578703d008f
:20ed6000290a0073382d76616c3a4f4b0a007331362d76616c3a4641494c28676f743d0018
:20ed80002c6578703d00290a007331362d76616c3a4f4b0a00626f6f6c2d743a4f4b0a0037
:20eda000626f6f6c2d743a4641494c287a65726f290a00626f6f6c2d663a4f4b0a00626fa7
:20edc0006f6c2d663a4641494c286e6f6e7a65726f290a007665632d783a4641494c286741
:20ede0006f743d002c6578703d00290a007665632d783a4f4b0a007665632d793a4641495b
:20ee00004c28676f743d002c6578703d00290a007665632d793a4f4b0a00766563707472b8
:20ee20002d783a4641494c28676f743d002c6578703d00290a007665637074722d783a4f7d
:20ee40004b0a007665637074722d793a4641494c28676f743d002c6578703d00290a0076bf
:20ee600065637074722d793a4f4b0a0073756d2d7665633a4641494c28676f743d002c659a
:20ee800078703d00290a0073756d2d7665633a4f4b0a007267622d723a4641494c28676f4e
:20eea000743d002c6578703d00290a007267622d723a4f4b0a007267622d673a4641494cdb
:20eec00028676f743d002c6578703d00290a007267622d673a4f4b0a00737a2d75383a46a6
:20eee00041494c28676f743d002c6578703d00290a00737a2d75383a4f4b0a00737a2d7570
:20ef000031363a4641494c28676f743d002c6578703d00290a00737a2d7531363a4f4b0ac8
:20ef200000737a2d69383a4641494c28676f743d002c6578703d00290a00737a2d69383a33
:20ef40004f4b0a00737a2d6931363a4641494c28676f743d002c6578703d00290a00737a48
:20ef60002d6931363a4f4b0a00737a2d626f6f6c3a4641494c28676f743d002c6578703d35
:20ef800000290a00737a2d626f6f6c3a4f4b0a00737a2d6c6f6e673a4641494c28676f7408
:20efa0003d002c6578703d00290a00737a2d6c6f6e673a4f4b0a00737a2d6933323a4641da
:20efc000494c28676f743d002c6578703d00290a00737a2d6933323a4f4b0a00737a2d76ae
:20efe0006563323a4641494c28676f743d002c6578703d00290a00737a2d766563323a4f16
:20f000004b0a006c6f6e672d65713a4641494c28676f743d002c6578703d00290a006c6f1f
:20f020006e672d65713a4f4b0a006c6f6e672d6c743a4641494c28676f743d002c657870df
:20f040003d00290a006c6f6e672d6c743a4f4b0a006c6f6e672d67743a4641494c28676f99
:20f06000743d002c6578703d00290a006c6f6e672d67743a4f4b0a0053554954453a464115
:20f08000494c28002f00290a0053554954453a504153532800290a00ae62e68027048d05c8
:20f0a00020f839ec62c10a26088d06c60d2002ec62b6c000850227f9f7c00139b6c00085d9
:20f0c000012614ccffff39b6c0005f8401398d07c10d2602c60a39b6c000850127f9f6c0fa
:20f0e000014f39ee648e00008de4c17f2714c1082710c10a2723ac6224eee7c030018db170
:20f1000020e68c000027e1c6088da6c6208da2c6088d9e301f335f20cf6fc48d881f1039c6
:20f12000ae64ee62c6044fa684a2c0a7805a26f7594f39ae64ee62c6044fa684a9c0a78014
:20f140005a26f7594f39ae62c6043a4f66825a26fb5939ae624fc60469805a26fb59398d53
:20f1600059108e00214fae648dec313f27628e0130568de2ee628e01308d5a4d26e7ee6280
:20f180008e01308d9f1a0120dd327c30e4ee668d618d27ae688db15d27078e013033e48d72
:20f1a00096ae688d22270a30e48daa30e48d1826e23264ae64ce013020388e0130c6046fc0
:20f1c000805a26fb39ae628604e68026034a26f939ae64ee62c6043a33c5a682a0c225061d
:20f1e00022085a26f539ccffff39cc000139ae64ee62c604a6c0a7805a26f939ae648dbd67
:09f20000ae64ec62e784a7013959
:10fff000e000e000e000e000e000e000e000e00001
:00000001FF
