:20e0000010ce7f007f010cbde21120fe3416a661e6633d3406a662e6653debe4e7e4a66305
:20e02000e6643debe4e7e435063264393416a8621f02ece42a048d15ede4ec622a048d0db9
:20e04000ed621f204d35162a0a8d0d1f104353c30001398d031f103934164f5f8e00111c5f
:20e06000fe69636962301f270d594910a3e425efa3e41a0120eb326235901e018c00002763
:20e08000065849301f26fa391e018c000027f84456301f26fa393406ace12e29201e34068f
:20e0a000ace12c2120163406ace12d19200e3406ace12f1120063406ace127094f5f3934d6
:20e0c00006ace127f7cc0001393406ace122f620eb3406ace124ee20e33406ace125e620d1
:20e0e000db3406ace123de20d31083000026cd20d4aec1270710a3c126f76e846ed4ec6260
:20e100001f01cc000abde0d110270011ec621f01cc000abde0533406bde0fe3262ec621f49
:20e1200001cc000abde058c300301d3406bdec59326239327eec648e8000bde0b610270062
:20e140000dcce9423406bdec4232627ee193ec641f01cc0000bde0a610270013cc002d341a
:20e1600006bdec593262ec644353c30001ed64ec64ed60ec60108300001027000cec6034c9
:20e1800006bde0fe32627ee193cc00303406bdec593262326239ec62108300001027000c9b
:20e1a000ec623406bde0fe32627ee1b6cc00303406bdec59326239327eec641f01cc001092
:20e1c000bde0d110270011ec641f01cc0004bde0883406bde1b73262ec648400c40fed600d
:20e1e000ec601f01cc000abde0a610270010ec60c300301d3406bdec5932627ee20eec606d
:20e20000c3004183000a1d3406bdec593262326239327ecce9493406bdec423262cc000a76
:20e220003406bdece33262fd0106fc010610270016cce9553406bdec423262fc0102c300ab
:20e2400001fd01027ee25acce9633406bdec423262fc0104c30001fd0104cc00143406bd94
:20e26000ece33262fd0108fc010810270016cce9793406bdec423262fc0102c30001fd013b
:20e28000027ee297cce9873406bdec423262fc0104c30001fd0104fc01081f01fc0106bde4
:20e2a000e09610270016cce99d3406bdec423262fc0102c30001fd01027ee2cfcce9ac3409
:20e2c00006bdec423262fc0104c30001fd0104fc01063406cce9c33406bded983264fc012e
:20e2e000063406cce9c93406bdecca32641083000010260016cce9cf3406bdec423262fc05
:20e300000102c30001fd01027ee346cce9dc3406bdec423262fc01063406bdec423262ccbd
:20e32000e9eb3406bdec423262cce9ee3406bdec423262cce9f43406bdec423262fc010491
:20e34000c30001fd0104fc01083406cce9f73406bded983264fc01083406cce9fe3406bd11
:20e36000ecca32641083000010260016ccea053406bdec423262fc0102c30001fd01027ebd
:20e38000e3bdccea123406bdec423262fc01083406bdec423262ccea213406bdec4232620e
:20e3a000ccea243406bdec423262ccea2b3406bdec423262fc0104c30001fd0104fc010666
:20e3c0003406ccea2e3406bdecca32641083000010260016ccea343406bdec423262fc015d
:20e3e00002c30001fd01027ee425ccea423406bdec423262fc01063406bdec423262cceaad
:20e40000523406bdec423262ccea553406bdec423262ccea5b3406bdec423262fc0104c39f
:20e420000001fd0104fc01083406bded353262cc000a3406bdece33262fd010afc010a10d8
:20e44000270016ccea5e3406bdec423262fc0102c30001fd01027ee46cccea6a3406bdec1e
:20e46000423262fc0104c30001fd0104fc010a3406ccea7e3406bded983264fc010a340637
:20e48000ccea843406bdecca32641083000010260016ccea8a3406bdec423262fc0102c365
:20e4a0000001fd01027ee4e3ccea973406bdec423262fc010a3406bdec423262cceaa634c0
:20e4c00006bdec423262cceaa93406bdec423262cceaaf3406bdec423262fc0104c30001bc
:20e4e000fd0104fc01063406cceab23406bdecca32641083000010260016cceab83406bdee
:20e50000ec423262fc0102c30001fd01027ee54bcceac53406bdec423262fc01063406bd9a
:20e52000ec423262ccead43406bdec423262ccead73406bdec423262cceadd3406bdec42d8
:20e540003262fc0104c30001fd0104fc01063406bded353262fc010a3406bded353262cc30
:20e5600000103406bdece33262fd0106fc010610270016cceae03406bdec423262fc01028f
:20e58000c30001fd01027ee59ccceaef3406bdec423262fc0104c30001fd0104fc0106345c
:20e5a00006cceb063406bded983264fc01063406cceb0c3406bdecca32641083000010267a
:20e5c0000016cceb123406bdec423262fc0102c30001fd01027ee613cceb203406bdec426d
:20e5e0003262fc01063406bdec423262cceb303406bdec423262cceb333406bdec42326288
:20e60000cceb393406bdec423262fc0104c30001fd0104fc01063406bded353262cc00020c
:20e620003406bdece33262fd0106cc00023406bdece33262fd0108cc00023406bdece33288
:20e6400062fd010afc010610270016cceb3c3406bdec423262fc0102c30001fd01027ee62d
:20e6600074cceb453406bdec423262fc0104c30001fd0104fc010810270016cceb56340611
:20e68000bdec423262fc0102c30001fd01027ee6a4cceb5f3406bdec423262fc0104c3009d
:20e6a00001fd0104fc010a10270016cceb703406bdec423262fc0102c30001fd01027ee6fc
:20e6c000d4cceb793406bdec423262fc0104c30001fd0104fc0108be0106bde0bf10270059
:20e6e00016cceb8a3406bdec423262fc0102c30001fd01027ee70acceb943406bdec423236
:20e7000062fc0104c30001fd0104fc010abe0108bde0bf10270016cceba63406bdec4232a5
:20e7200062fc0102c30001fd01027ee740ccebb03406bdec423262fc0104c30001fd010428
:20e74000cc0000fe010633cbc641e7c4cc0001fe010633cbc600e7c4cc0000fe010833cb26
:20e76000c642e7c4cc0001fe010833cbc600e7c4cc0000fe010a33cbc643e7c4cc0001fe51
:20e78000010a33cbc600e7c4fc01063406ccebc23406bdecca32641083000010260016cc5b
:20e7a000ebc43406bdec423262fc0102c30001fd01027ee7f0ccebce3406bdec423262fc9f
:20e7c00001063406bdec423262ccebda3406bdec423262ccebdd3406bdec423262ccebdf4c
:20e7e0003406bdec423262fc0104c30001fd0104fc01083406ccebe23406bdecca3264106e
:20e8000083000010260016ccebe43406bdec423262fc0102c30001fd01027ee858ccebeeaf
:20e820003406bdec423262fc01083406bdec423262ccebfa3406bdec423262ccebfd340609
:20e84000bdec423262ccebff3406bdec423262fc0104c30001fd0104fc010a3406ccec0208
:20e860003406bdecca32641083000010260016ccec043406bdec423262fc0102c30001fd41
:20e8800001027ee8c0ccec0e3406bdec423262fc010a3406bdec423262ccec1a3406bdec5b
:20e8a000423262ccec1d3406bdec423262ccec1f3406bdec423262fc0104c30001fd01049d
:20e8c000fc01083406bded353262fc01063406bded353262fc010a3406bded353262fc0125
:20e8e000041083000010270038ccec223406bdec423262fc01043406bde1333262ccec2ef9
:20e900003406bdec423262fc0102f301043406bde1333262ccec303406bdec4232627ee9a0
:20e920003fccec333406bdec423262fc01023406bde1333262ccec3f3406bdec4232623274
:20e9400062392d3332373638007431335f6d616c6c6f630a006d616c6c6f632d31303a4f9d
:20e960004b0a006d616c6c6f632d31303a4641494c287a65726f290a006d616c6c6f632d26
:20e9800032303a4f4b0a006d616c6c6f632d32303a4641494c287a65726f290a006e6f2db5
:20e9a0006f7665726c61703a4f4b0a006e6f2d6f7665726c61703a4641494c287a65726f3f
:20e9c000290a0068656c6c6f0068656c6c6f0077726974652d70613a4f4b0a00777269740f
:20e9e000652d70613a4641494c2800213d0068656c6c6f00290a00776f726c642100776f62
:20ea0000726c64210077726974652d70623a4f4b0a0077726974652d70623a4641494c28e3
:20ea200000213d00776f726c642100290a0068656c6c6f0070612d696e746163743a4f4b93
:20ea40000a0070612d696e746163743a4641494c2800213d0068656c6c6f00290a00726531
:20ea6000616c6c6f633a4f4b0a007265616c6c6f633a4641494c287a65726f290a00616792
:20ea800061696e00616761696e0070632d77726974653a4f4b0a0070632d77726974653ad0
:20eaa0004641494c2800213d00616761696e00290a0068656c6c6f0070612d7374696c6c47
:20eac0003a4f4b0a0070612d7374696c6c3a4641494c2800213d0068656c6c6f00290a000f
:20eae00061667465722d667265653a4f4b0a0061667465722d667265653a4641494c287a7e
:20eb000065726f290a0066726573680066726573680066726573682d7374723a4f4b0a00d0
:20eb200066726573682d7374723a4641494c2800213d00667265736800290a00736d2d61a2
:20eb40003a4f4b0a00736d2d613a4641494c287a65726f290a00736d2d623a4f4b0a007338
:20eb60006d2d623a4641494c287a65726f290a00736d2d633a4f4b0a00736d2d633a4641a9
:20eb8000494c287a65726f290a00736d2d61623a4f4b0a00736d2d61623a4641494c287a4f
:20eba00065726f290a00736d2d62633a4f4b0a00736d2d62633a4641494c287a65726f29f3
:20ebc0000a004100736d2d70613a4f4b0a00736d2d70613a4641494c2800213d004100290a
:20ebe0000a004200736d2d70623a4f4b0a00736d2d70623a4641494c2800213d00420029e6
:20ec00000a004300736d2d70633a4f4b0a00736d2d70633a4641494c2800213d00430029c1
:20ec20000a0053554954453a4641494c28002f00290a0053554954453a5041535328002914
:20ec40000a00ae62e68027048d0520f839ec62c10a26088d06c60d2002ec62b6c00085020c
:20ec600027f9f7c00139b6c00085012614ccffff39b6c0005f8401398d07c10d2602c60a5d
:20ec800039b6c000850127f9f6c0014f39ee648e00008de4c17f2714c1082710c10a2723ff
:20eca000ac6224eee7c030018db120e68c000027e1c6088da6c6208da2c6088d9e301f33f3
:20ecc0005f20cf6fc48d881f1039ae62ee64a680a1c0250722094d26f55f39ccffff39cc27
:20ece000000139ce010ca6c42729ae414a2604ac62240830031f1033cb20eb1f10a3628386
:20ed0000000323281f02ec6230cb6f036c0310af0420171f40a3628303e834408e0000107c
:20ed2000a3e1230eec6230cb6f03ed41c602e7c430431f1039ae62301d3410ce010ca6c401
:20ed4000271111a3e42708ec4133cb334320ef8601a7c43510ce010ca6c42724ae414a26de
:20ed6000151f1031cba62327154a2608ec24308b300320edaf411f1033cb334320da6fc40b
:20ed800039ae624f5f6d802719c3000120f7ee64a6c026fc335f2002ee64ae62e680e7c077
:03eda00026fa3917
:10fff000e000e000e000e000e000e000e000e00001
:00000001FF
