:20e0000010ce7f007f0126bde21120fe3416a661e6633d3406a662e6653debe4e7e4a663eb
:20e02000e6643debe4e7e435063264393416a8621f02ece42a048d15ede4ec622a048d0db9
:20e04000ed621f204d35162a0a8d0d1f104353c30001398d031f103934164f5f8e00111c5f
:20e06000fe69636962301f270d594910a3e425efa3e41a0120eb326235901e018c00002763
:20e08000065849301f26fa391e018c000027f84456301f26fa393406ace12e29201e34068f
:20e0a000ace12c2120163406ace12d19200e3406ace12f1120063406ace127094f5f3934d6
:20e0c00006ace127f7cc0001393406ace122f620eb3406ace124ee20e33406ace125e620d1
:20e0e000db3406ace123de20d31083000026cd20d4aec1270710a3c126f76e846ed4ec6260
:20e100001f01cc000abde0d110270011ec621f01cc000abde0533406bde0fe3262ec621f49
:20e1200001cc000abde058c300301d3406bdf99b326239327eec648e8000bde0b610270013
:20e140000dccf33e3406bdf98432627ee193ec641f01cc0000bde0a610270013cc002d34c5
:20e1600006bdf99b3262ec644353c30001ed64ec64ed60ec60108300001027000cec60347a
:20e1800006bde0fe32627ee193cc00303406bdf99b3262326239ec62108300001027000c4c
:20e1a000ec623406bde0fe32627ee1b6cc00303406bdf99b326239327eec641f01cc001043
:20e1c000bde0d110270011ec641f01cc0004bde0883406bde1b73262ec648400c40fed600d
:20e1e000ec601f01cc000abde0a610270010ec60c300301d3406bdf99b32627ee20eec601e
:20e20000c3004183000a1d3406bdf99b3262326239ccf3453406bdf9843262cc000a340648
:20e22000bdfa0c326283000a10270045ccf3513406bdf9843262cc000a3406bdfa0c3262ff
:20e240003406bde1333262ccf3633406bdf9843262cc000a3406bde1333262ccf36934061e
:20e26000bdf9843262fc0104c30001fd01047ee284ccf36c3406bdf9843262fc0102c30030
:20e2800001fd0102ccfff63406bdfa0c326283000a10270045ccf3783406bdf9843262cc17
:20e2a000fff63406bdfa0c32623406bde1333262ccf38a3406bdf9843262cc000a3406bd1b
:20e2c000e1333262ccf3903406bdf9843262fc0104c30001fd01047ee2edccf3933406bde2
:20e2e000f9843262fc0102c30001fd0102cc00003406bdfa0c326283000010270045ccf32f
:20e300009f3406bdf9843262cc00003406bdfa0c32623406bde1333262ccf3b23406bdf9f9
:20e32000843262cc00003406bde1333262ccf3b83406bdf9843262fc0104c30001fd010414
:20e340007ee356ccf3bb3406bdf9843262fc0102c30001fd0102cc00033406cc00073406ab
:20e36000bdfa1632648300071027004accf3c83406bdf9843262cc00033406cc000734068a
:20e38000bdfa1632643406bde1333262ccf3d93406bdf9843262cc00073406bde133326269
:20e3a000ccf3df3406bdf9843262fc0104c30001fd01047ee3c9ccf3e23406bdf98432621d
:20e3c000fc0102c30001fd0102cc00093406cc00023406bdfa1632648300091027004acc27
:20e3e000f3ed3406bdf9843262cc00093406cc00023406bdfa1632643406bde1333262cc50
:20e40000f3fe3406bdf9843262cc00093406bde1333262ccf4043406bdf9843262fc0104c2
:20e42000c30001fd01047ee43cccf4073406bdf9843262fc0102c30001fd0102cc000534e1
:20e4400006cc00053406bdfa1632648300051027004accf4123406bdf9843262cc00053460
:20e4600006cc00053406bdfa1632643406bde1333262ccf4233406bdf9843262cc00053499
:20e4800006bde1333262ccf4293406bdf9843262fc0104c30001fd01047ee4afccf42c3428
:20e4a00006bdf9843262fc0102c30001fd0102cc00033406cc00073406bdfa2032648300bf
:20e4c000031027004accf4373406bdf9843262cc00033406cc00073406bdfa2032643406fc
:20e4e000bde1333262ccf4483406bdf9843262cc00033406bde1333262ccf44e3406bdf93b
:20e50000843262fc0104c30001fd01047ee522ccf4513406bdf9843262fc0102c30001fdbe
:20e520000102cc00093406cc00023406bdfa2032648300021027004accf45c3406bdf984be
:20e540003262cc00093406cc00023406bdfa2032643406bde1333262ccf46d3406bdf98463
:20e560003262cc00023406bde1333262ccf4733406bdf9843262fc0104c30001fd01047e1a
:20e58000e595ccf4763406bdf9843262fc0102c30001fd0102cc00053406cc00053406bd2d
:20e5a000fa2032648300051027004accf4813406bdf9843262cc00053406cc00053406bd86
:20e5c000fa2032643406bde1333262ccf4923406bdf9843262cc00053406bde1333262cc56
:20e5e000f4983406bdf9843262fc0104c30001fd01047ee608ccf49b3406bdf9843262fcf5
:20e600000102c30001fd0102cc00003406bdfa29326283000010270045ccf4a63406bdf964
:20e62000843262cc00003406bdfa2932623406bde1333262ccf4b73406bdf9843262cc005e
:20e64000003406bde1333262ccf4bd3406bdf9843262fc0104c30001fd01047ee671ccf43a
:20e66000c03406bdf9843262fc0102c30001fd0102cc00013406bdfa2932628300011027d9
:20e680000045ccf4cb3406bdf9843262cc00013406bdfa2932623406bde1333262ccf4dcec
:20e6a0003406bdf9843262cc00013406bde1333262ccf4e23406bdf9843262fc0104c30078
:20e6c00001fd01047ee6daccf4e53406bdf9843262fc0102c30001fd0102cc00043406bdc2
:20e6e000fa29326283000210270045ccf4f03406bdf9843262cc00043406bdfa29326234f8
:20e7000006bde1333262ccf5013406bdf9843262cc00023406bde1333262ccf5073406bd98
:20e72000f9843262fc0104c30001fd01047ee743ccf50a3406bdf9843262fc0102c30001c3
:20e74000fd0102cc00093406bdfa29326283000310270045ccf5153406bdf9843262cc008a
:20e76000093406bdfa2932623406bde1333262ccf5263406bdf9843262cc00033406bde1ad
:20e78000333262ccf52c3406bdf9843262fc0104c30001fd01047ee7acccf52f3406bdf905
:20e7a000843262fc0102c30001fd0102cc00103406bdfa29326283000410270045ccf53af6
:20e7c0003406bdf9843262cc00103406bdfa2932623406bde1333262ccf54c3406bdf98487
:20e7e0003262cc00043406bde1333262ccf5523406bdf9843262fc0104c30001fd01047eb6
:20e80000e815ccf5553406bdf9843262fc0102c30001fd0102cc00193406bdfa2932628304
:20e82000000510270045ccf5613406bdf9843262cc00193406bdfa2932623406bde133325d
:20e8400062ccf5733406bdf9843262cc00053406bde1333262ccf5793406bdf9843262fc6c
:20e860000104c30001fd01047ee87eccf57c3406bdf9843262fc0102c30001fd0102cc0015
:20e88000643406bdfa29326283000a10270045ccf5883406bdf9843262cc00643406bdfaeb
:20e8a0002932623406bde1333262ccf59b3406bdf9843262cc000a3406bde1333262ccf562
:20e8c000a13406bdf9843262fc0104c30001fd01047ee8e7ccf5a43406bdf9843262fc0111
:20e8e00002c30001fd0102cc00023406bdfa29326283000210270045ccf5b13406bdf984ef
:20e900003262cc00023406bdfa2932623406bde1333262ccf5c23406bdf9843262cc0002ef
:20e920003406bde1333262ccf5c83406bdf9843262fc0104c30001fd01047ee950ccf5cb9d
:20e940003406bdf9843262fc0102c30001fd0102cc000f3406bdfa293262830004102700a5
:20e9600045ccf5d63406bdf9843262cc000f3406bdfa2932623406bde1333262ccf5e834ae
:20e9800006bdf9843262cc00043406bde1333262ccf5ee3406bdf9843262fc0104c30001b8
:20e9a000fd01047ee9b9ccf5f13406bdf9843262fc0102c30001fd0102ce01161f3034064a
:20e9c000cc00003406cc00103406bdfa483266cc0000ce011633cbe6c41d83000010270054
:20e9e00046ccf5fd3406bdf9843262cc0000ce011633cbe6c41d3406bde1333262ccf60e26
:20ea00003406bdf9843262cc00003406bde1333262ccf6143406bdf9843262fc0104c300e1
:20ea200001fd01047eea3accf6173406bdf9843262fc0102c30001fd0102cc000fce0116cd
:20ea400033cbe6c41d83000010270046ccf6223406bdf9843262cc000fce011633cbe6c49d
:20ea60001d3406bde1333262ccf6343406bdf9843262cc00003406bde1333262ccf63a3441
:20ea800006bdf9843262fc0104c30001fd01047eeaa5ccf63d3406bdf9843262fc0102c305
:20eaa0000001fd0102ce01161f303406cc00583406cc00083406bdfa483266cc0000ce0149
:20eac0001633cbe6c41d83005810270046ccf6493406bdf9843262cc0000ce011633cbe65b
:20eae000c41d3406bde1333262ccf65b3406bdf9843262cc00583406bde1333262ccf6618b
:20eb00003406bdf9843262fc0104c30001fd01047eeb26ccf6643406bdf9843262fc01026a
:20eb2000c30001fd0102cc0007ce011633cbe6c41d83005810270046ccf6703406bdf98496
:20eb40003262cc0007ce011633cbe6c41d3406bde1333262ccf6823406bdf9843262cc00ed
:20eb6000583406bde1333262ccf6883406bdf9843262fc0104c30001fd01047eeb91ccf6c9
:20eb80008b3406bdf9843262fc0102c30001fd0102cc0008ce011633cbe6c41d830000100e
:20eba000270046ccf6973406bdf9843262cc0008ce011633cbe6c41d3406bde1333262cc9e
:20ebc000f6a93406bdf9843262cc00003406bde1333262ccf6af3406bdf9843262fc0104a9
:20ebe000c30001fd01047eebfcccf6b23406bdf9843262fc0102c30001fd0102cc0000ce11
:20ec0000010633cbc648e7c4cc0001ce010633cbc669e7c4cc0002ce010633cbc621e7c489
:20ec2000cc0003ce010633cbc600e7c4ce01161f303406ce01061f303406cc00043406bd2e
:20ec4000fa553266cc0000ce011633cbe6c41d83004810270046ccf6be3406bdf984326287
:20ec6000cc0000ce011633cbe6c41d3406bde1333262ccf6cf3406bdf9843262cc0048349e
:20ec800006bde1333262ccf6d53406bdf9843262fc0104c30001fd01047eecafccf6d834bc
:20eca00006bdf9843262fc0102c30001fd0102cc0001ce011633cbe6c41d83006910270023
:20ecc00046ccf6e33406bdf9843262cc0001ce011633cbe6c41d3406bde1333262ccf6f475
:20ece0003406bdf9843262cc00693406bde1333262ccf6fa3406bdf9843262fc0104c300b0
:20ed000001fd01047eed1accf6fd3406bdf9843262fc0102c30001fd0102cc0002ce01162e
:20ed200033cbe6c41d83002110270046ccf7083406bdf9843262cc0002ce011633cbe6c4bf
:20ed40001d3406bde1333262ccf7193406bdf9843262cc00213406bde1333262ccf71f3471
:20ed600006bdf9843262fc0104c30001fd01047eed85ccf7223406bdf9843262fc0102c359
:20ed80000001fd0102cc0003ce011633cbe6c41d83000010270046ccf72d3406bdf9843263
:20eda00062cc0003ce011633cbe6c41d3406bde1333262ccf73e3406bdf9843262cc000004
:20edc0003406bde1333262ccf7443406bdf9843262fc0104c30001fd01047eedf0ccf74759
:20ede0003406bdf9843262fc0102c30001fd0102ccf7523406bdfa6532628300001027008f
:20ee000045ccf7543406bdf9843262ccf7653406bdfa6532623406bde1333262ccf767347f
:20ee200006bdf9843262cc00003406bde1333262ccf76d3406bdf9843262fc0104c3000196
:20ee4000fd01047eee59ccf7703406bdf9843262fc0102c30001fd0102ccf77b3406bdfabe
:20ee600065326283002a10270045ccf77e3406bdf9843262ccf7903406bdfa6532623406b0
:20ee8000bde1333262ccf7933406bdf9843262cc002a3406bde1333262ccf7993406bdf9ce
:20eea000843262fc0104c30001fd01047eeec2ccf79c3406bdf9843262fc0102c30001fd1e
:20eec0000102ccf7a83406bdfa65326283fff910270045ccf7ab3406bdf9843262ccf7beec
:20eee0003406bdfa6532623406bde1333262ccf7c13406bdf9843262ccfff93406bde1332e
:20ef00003262ccf7c73406bdf9843262fc0104c30001fd01047eef2bccf7ca3406bdf9846b
:20ef20003262fc0102c30001fd0102ccf7d73406bdfa6532628303e810270045ccf7dc3439
:20ef400006bdf9843262ccf7f03406bdfa6532623406bde1333262ccf7f53406bdf9843243
:20ef600062cc03e83406bde1333262ccf7fb3406bdf9843262fc0104c30001fd01047eefdf
:20ef800094ccf7fe3406bdf9843262fc0102c30001fd0102cc00613406bdfa9f326283007d
:20efa0004110270045ccf80c3406bdf9843262cc00613406bdfa9f32623406bde1333262cc
:20efc000ccf8203406bdf9843262cc00413406bde1333262ccf8263406bdf9843262fc01aa
:20efe00004c30001fd01047eeffdccf8293406bdf9843262fc0102c30001fd0102cc007adf
:20f000003406bdfa9f326283005a10270045ccf8373406bdf9843262cc007a3406bdfa9f9a
:20f0200032623406bde1333262ccf84b3406bdf9843262cc005a3406bde1333262ccf851ac
:20f040003406bdf9843262fc0104c30001fd01047ef066ccf8543406bdf9843262fc0102ee
:20f06000c30001fd0102cc00413406bdfa9f326283004110270045ccf8623406bdf984328f
:20f0800062cc00413406bdfa9f32623406bde1333262ccf8763406bdf9843262cc004134bb
:20f0a00006bde1333262ccf87c3406bdf9843262fc0104c30001fd01047ef0cfccf87f3422
:20f0c00006bdf9843262fc0102c30001fd0102cc00313406bdfa9f32628300311027004548
:20f0e000ccf88d3406bdf9843262cc00313406bdfa9f32623406bde1333262ccf8a1340658
:20f10000bdf9843262cc00313406bde1333262ccf8a73406bdf9843262fc0104c30001fd50
:20f1200001047ef138ccf8aa3406bdf9843262fc0102c30001fd0102cc00413406bdfab03c
:20f14000326283006110270045ccf8b83406bdf9843262cc00413406bdfab032623406bdfe
:20f16000e1333262ccf8cc3406bdf9843262cc00613406bde1333262ccf8d23406bdf98479
:20f180003262fc0104c30001fd01047ef1a1ccf8d53406bdf9843262fc0102c30001fd01a2
:20f1a00002cc005a3406bdfab0326283007a10270045ccf8e33406bdf9843262cc005a3470
:20f1c00006bdfab032623406bde1333262ccf8f73406bdf9843262cc007a3406bde1333249
:20f1e00062ccf8fd3406bdf9843262fc0104c30001fd01047ef20accf9003406bdf9843238
:20f2000062fc0102c30001fd0102cc00613406bdfab0326283006110270045ccf90e3406fa
:20f22000bdf9843262cc00613406bdfab032623406bde1333262ccf9223406bdf984326210
:20f24000cc00613406bde1333262ccf9283406bdf9843262fc0104c30001fd01047ef27343
:20f26000ccf92b3406bdf9843262fc0102c30001fd0102cc00313406bdfab03262830031ed
:20f2800010270045ccf9393406bdf9843262cc00313406bdfab032623406bde1333262cc4f
:20f2a000f94d3406bdf9843262cc00313406bde1333262ccf9533406bdf9843262fc010443
:20f2c000c30001fd01047ef2dcccf9563406bdf9843262fc0102c30001fd0102fc01041025
:20f2e00083000010270038ccf9643406bdf9843262fc01043406bde1333262ccf9703406dc
:20f30000bdf9843262fc0102f301043406bde1333262ccf9723406bdf98432627ef33dccd0
:20f32000f9753406bdf9843262fc01023406bde1333262ccf9813406bdf9843262392d33d2
:20f3400032373638007431345f7374646c69620a006162732d706f733a4641494c28676f09
:20f36000743d002c6578703d00290a006162732d706f733a4f4b0a006162732d6e65673a89
:20f380004641494c28676f743d002c6578703d00290a006162732d6e65673a4f4b0a0061dd
:20f3a00062732d7a65726f3a4641494c28676f743d002c6578703d00290a006162732d7ac0
:20f3c00065726f3a4f4b0a006d61782d61623a4641494c28676f743d002c6578703d0029ef
:20f3e0000a006d61782d61623a4f4b0a006d61782d62613a4641494c28676f743d002c6523
:20f4000078703d00290a006d61782d62613a4f4b0a006d61782d65713a4641494c28676fe3
:20f42000743d002c6578703d00290a006d61782d65713a4f4b0a006d696e2d61623a464116
:20f44000494c28676f743d002c6578703d00290a006d696e2d61623a4f4b0a006d696e2dfc
:20f4600062613a4641494c28676f743d002c6578703d00290a006d696e2d62613a4f4b0ac9
:20f48000006d696e2d65713a4641494c28676f743d002c6578703d00290a006d696e2d6561
:20f4a000713a4f4b0a00737172742d303a4641494c28676f743d002c6578703d00290a00e8
:20f4c000737172742d303a4f4b0a00737172742d313a4641494c28676f743d002c65787081
:20f4e0003d00290a00737172742d313a4f4b0a00737172742d343a4641494c28676f743d66
:20f50000002c6578703d00290a00737172742d343a4f4b0a00737172742d393a4641494c73
:20f5200028676f743d002c6578703d00290a00737172742d393a4f4b0a00737172742d31fd
:20f54000363a4641494c28676f743d002c6578703d00290a00737172742d31363a4f4b0a4b
:20f5600000737172742d32353a4641494c28676f743d002c6578703d00290a007371727475
:20f580002d32353a4f4b0a00737172742d3130303a4641494c28676f743d002c6578703db6
:20f5a00000290a00737172742d3130303a4f4b0a00737172742d323a4641494c28676f74c1
:20f5c0003d002c6578703d00290a00737172742d323a4f4b0a00737172742d31353a4641e0
:20f5e000494c28676f743d002c6578703d00290a00737172742d31353a4f4b0a006d73655e
:20f60000742d303a4641494c28676f743d002c6578703d00290a006d7365742d303a4f4b41
:20f620000a006d7365742d31353a4641494c28676f743d002c6578703d00290a006d736541
:20f64000742d31353a4f4b0a006d7365742d78303a4641494c28676f743d002c6578703d7c
:20f6600000290a006d7365742d78303a4f4b0a006d7365742d78373a4641494c28676f748e
:20f680003d002c6578703d00290a006d7365742d78373a4f4b0a006d7365742d78383a46bb
:20f6a00041494c28676f743d002c6578703d00290a006d7365742d78383a4f4b0a006d6398
:20f6c00070792d303a4641494c28676f743d002c6578703d00290a006d6370792d303a4f57
:20f6e0004b0a006d6370792d313a4641494c28676f743d002c6578703d00290a006d637070
:20f70000792d313a4f4b0a006d6370792d323a4641494c28676f743d002c6578703d002938
:20f720000a006d6370792d323a4f4b0a006d6370792d333a4641494c28676f743d002c651a
:20f7400078703d00290a006d6370792d333a4f4b0a00300061746f692d303a4641494c28a2
:20f76000676f743d0030002c6578703d00290a0061746f692d303a4f4b0a003432006174c6
:20f780006f692d34323a4641494c28676f743d003432002c6578703d00290a0061746f69fd
:20f7a0002d34323a4f4b0a002d370061746f692d6e65673a4641494c28676f743d002d37f7
:20f7c000002c6578703d00290a0061746f692d6e65673a4f4b0a00313030300061746f69e0
:20f7e0002d313030303a4641494c28676f743d0031303030002c6578703d00290a00617497
:20f800006f692d313030303a4f4b0a00746f75707065722d613a4641494c28676f743d00a2
:20f820002c6578703d00290a00746f75707065722d613a4f4b0a00746f75707065722d7aae
:20f840003a4641494c28676f743d002c6578703d00290a00746f75707065722d7a3a4f4b30
:20f860000a00746f75707065722d413a4641494c28676f743d002c6578703d00290a00749f
:20f880006f75707065722d413a4f4b0a00746f75707065722d313a4641494c28676f743d0f
:20f8a000002c6578703d00290a00746f75707065722d313a4f4b0a00746f6c6f7765722ddb
:20f8c000413a4641494c28676f743d002c6578703d00290a00746f6c6f7765722d413a4ff6
:20f8e0004b0a00746f6c6f7765722d5a3a4641494c28676f743d002c6578703d00290a0032
:20f90000746f6c6f7765722d5a3a4f4b0a00746f6c6f7765722d613a4641494c28676f7414
:20f920003d002c6578703d00290a00746f6c6f7765722d613a4f4b0a00746f6c6f7765721d
:20f940002d313a4641494c28676f743d002c6578703d00290a00746f6c6f7765722d313ab7
:20f960004f4b0a0053554954453a4641494c28002f00290a0053554954453a504153532856
:20f9800000290a00ae62e68027048d0520f839ec62c10a26088d06c60d2002ec62b6c0001d
:20f9a000850227f9f7c00139b6c00085012614ccffff39b6c0005f8401398d07c10d260259
:20f9c000c60a39b6c000850127f9f6c0014f39ee648e00008de4c17f2714c1082710c10a2c
:20f9e0002723ac6224eee7c030018db120e68c000027e1c6088da6c6208da2c6088d9e30ae
:20fa00001f335f20cf6fc48d881f1039ec622a054353c3000139ec6210a3642cf8ec643974
:20fa2000ec6210a3642fee20f48e0100ec621083fe0122118e00001f10bde00c10a36224ef
:20fa400004300120f21f1039ee66ec64ae62e7c0301f26fa39ee6610ae64ae62e6a0e7c041
:20fa6000301f26f839ee62a6c0812027fa810927f68e0000812d34012702335fa6c080307f
:20fa80008109220f3402cc000abde00c1f0135043a20e91f10350126054353c3000139ec4b
:20faa000621083006125081083007a2202c4df39ec621083004125f71083005a22f1ca208e
:01fac000390c
:10fff000e000e000e000e000e000e000e000e00001
:00000001FF
