:20e0000010ce7f007f0106bde21120fe3416a661e6633d3406a662e6653debe4e7e4a6630b
:20e02000e6643debe4e7e435063264393416a8621f02ece42a048d15ede4ec622a048d0db9
:20e04000ed621f204d35162a0a8d0d1f104353c30001398d031f103934164f5f8e00111c5f
:20e06000fe69636962301f270d594910a3e425efa3e41a0120eb326235901e018c00002763
:20e08000065849301f26fa391e018c000027f84456301f26fa393406ace12e29201e34068f
:20e0a000ace12c2120163406ace12d19200e3406ace12f1120063406ace127094f5f3934d6
:20e0c00006ace127f7cc0001393406ace122f620eb3406ace124ee20e33406ace125e620d1
:20e0e000db3406ace123de20d31083000026cd20d4aec1270710a3c126f76e846ed4ec6260
:20e100001f01cc000abde0d110270011ec621f01cc000abde0533406bde0fe3262ec621f49
:20e1200001cc000abde058c300301d3406bdee32326239327eec648e8000bde0b610270087
:20e140000dcce9a23406bdee1b32627ee193ec641f01cc0000bde0a610270013cc002d34df
:20e1600006bdee323262ec644353c30001ed64ec64ed60ec60108300001027000cec6034ee
:20e1800006bde0fe32627ee193cc00303406bdee323262326239ec62108300001027000cc0
:20e1a000ec623406bde0fe32627ee1b6cc00303406bdee32326239327eec641f01cc0010b7
:20e1c000bde0d110270011ec641f01cc0004bde0883406bde1b73262ec648400c40fed600d
:20e1e000ec601f01cc000abde0a610270010ec60c300301d3406bdee3232627ee20eec6092
:20e20000c3004183000a1d3406bdee323262326239cce9a93406bdee1b3262cc00303406b0
:20e22000bdeed932621083000010270016cce9b53406bdee1b3262fc0102c30001fd010225
:20e240007ee256cce9c13406bdee1b3262fc0104c30001fd0104cc00393406bdeed93262e0
:20e260001083000010270016cce9d53406bdee1b3262fc0102c30001fd01027ee291cce937
:20e28000e13406bdee1b3262fc0104c30001fd0104cc00613406bdeed93262108300001020
:20e2a000260016cce9f53406bdee1b3262fc0102c30001fd01027ee2ccccea013406bdee59
:20e2c0001b3262fc0104c30001fd0104cc00203406bdeed932621083000010260016cceaf5
:20e2e000183406bdee1b3262fc0102c30001fd01027ee307ccea253406bdee1b3262fc01db
:20e3000004c30001fd0104cc00613406bdeeb032621083000010270016ccea3d3406bdee25
:20e320001b3262fc0102c30001fd01027ee342ccea493406bdee1b3262fc0104c30001fd73
:20e340000104cc005a3406bdeeb032621083000010270016ccea5d3406bdee1b3262fc01e5
:20e3600002c30001fd01027ee37dccea693406bdee1b3262fc0104c30001fd0104cc003083
:20e380003406bdeeb032621083000010260016ccea7d3406bdee1b3262fc0102c30001fdee
:20e3a00001027ee3b8ccea893406bdee1b3262fc0104c30001fd0104cc00203406bdeeb026
:20e3c00032621083000010260016cceaa03406bdee1b3262fc0102c30001fd01027ee3f3c9
:20e3e000cceaad3406bdee1b3262fc0104c30001fd0104cc00203406bdef0832621083005e
:20e400000010270016cceac53406bdee1b3262fc0102c30001fd01027ee42eccead234068b
:20e42000bdee1b3262fc0104c30001fd0104cc000a3406bdef083262108300001027001683
:20e44000cceae73406bdee1b3262fc0102c30001fd01027ee469cceaf43406bdee1b3262bf
:20e46000fc0104c30001fd0104cc00093406bdef0832621083000010270016cceb093406a4
:20e48000bdee1b3262fc0102c30001fd01027ee4a4cceb163406bdee1b3262fc0104c30034
:20e4a00001fd0104cc00613406bdef0832621083000010260016cceb2b3406bdee1b326255
:20e4c000fc0102c30001fd01027ee4dfcceb373406bdee1b3262fc0104c30001fd0104cc23
:20e4e00000413406bdeebd32621083000010270016cceb4e3406bdee1b3262fc0102c3006a
:20e5000001fd01027ee51acceb5a3406bdee1b3262fc0104c30001fd0104cc005a3406bdf4
:20e52000eebd32621083000010270016cceb6e3406bdee1b3262fc0102c30001fd01027ec2
:20e54000e555cceb7a3406bdee1b3262fc0104c30001fd0104cc00613406bdeebd32621082
:20e5600083000010260016cceb8e3406bdee1b3262fc0102c30001fd01027ee590cceb9aec
:20e580003406bdee1b3262fc0104c30001fd0104cc00303406bdeebd326210830000102625
:20e5a0000016ccebb13406bdee1b3262fc0102c30001fd01027ee5cbccebbd3406bdee1be4
:20e5c0003262fc0104c30001fd0104cc00613406bdeeb832621083000010270016ccebd417
:20e5e0003406bdee1b3262fc0102c30001fd01027ee606ccebe03406bdee1b3262fc01042e
:20e60000c30001fd0104cc007a3406bdeeb832621083000010270016ccebf43406bdee1b32
:20e620003262fc0102c30001fd01027ee641ccec003406bdee1b3262fc0104c30001fd01cf
:20e6400004cc00413406bdeeb832621083000010260016ccec143406bdee1b3262fc01023a
:20e66000c30001fd01027ee67cccec203406bdee1b3262fc0104c30001fd0104cc00303493
:20e6800006bdeeb832621083000010260016ccec373406bdee1b3262fc0102c30001fd015a
:20e6a000027ee6b7ccec433406bdee1b3262fc0104c30001fd0104cc00613406bdeea832fb
:20e6c000621083000010270016ccec5a3406bdee1b3262fc0102c30001fd01027ee6f2cc6d
:20e6e000ec683406bdee1b3262fc0104c30001fd0104cc00303406bdeea8326210830000bb
:20e7000010270016ccec7e3406bdee1b3262fc0102c30001fd01027ee72dccec8c3406bd52
:20e72000ee1b3262fc0104c30001fd0104cc00203406bdeea832621083000010260016ccbd
:20e74000eca23406bdee1b3262fc0102c30001fd01027ee768ccecb13406bdee1b3262fc0e
:20e760000104c30001fd0104cc00213406bdeea832621083000010260016cceccb3406bd67
:20e78000ee1b3262fc0102c30001fd01027ee7a3ccecd93406bdee1b3262fc0104c3000127
:20e7a000fd0104cc00413406bdef0332621083000010270016ccecf23406bdee1b3262fcb3
:20e7c0000102c30001fd01027ee7decced003406bdee1b3262fc0104c30001fd0104cc004f
:20e7e000203406bdef0332621083000010270016cced163406bdee1b3262fc0102c3000176
:20e80000fd01027ee819cced253406bdee1b3262fc0104c30001fd0104cc000a3406bdef84
:20e820000332621083000010260016cced3c3406bdee1b3262fc0102c30001fd01027ee8b0
:20e8400054cced4b3406bdee1b3262fc0104c30001fd0104cc00213406bdeef93262108313
:20e86000000010270016cced653406bdee1b3262fc0102c30001fd01027ee88fcced733481
:20e8800006bdee1b3262fc0104c30001fd0104cc002e3406bdeef93262108300001027001b
:20e8a00016cced893406bdee1b3262fc0102c30001fd01027ee8cacced973406bdee1b32f7
:20e8c00062fc0104c30001fd0104cc00613406bdeef932621083000010260016ccedad34f7
:20e8e00006bdee1b3262fc0102c30001fd01027ee905ccedbb3406bdee1b3262fc0104c3bd
:20e900000001fd0104cc00303406bdeef932621083000010260016ccedd43406bdee1b32e8
:20e9200062fc0102c30001fd01027ee940ccede23406bdee1b3262fc0104c30001fd010415
:20e94000fc01041083000010270038ccedfb3406bdee1b3262fc01043406bde1333262cc00
:20e96000ee073406bdee1b3262fc0102f301043406bde1333262ccee093406bdee1b326221
:20e980007ee9a1ccee0c3406bdee1b3262fc01023406bde1333262ccee183406bdee1b3273
:20e9a00062392d333237363800743134625f63747970650a0069736469672d303a4f4b0a71
:20e9c0000069736469672d303a4641494c287a65726f290a0069736469672d393a4f4b0a05
:20e9e0000069736469672d393a4641494c287a65726f290a0069736469672d613a4f4b0ab4
:20ea00000069736469672d613a4641494c286e6f6e7a65726f290a0069736469672d73707c
:20ea20003a4f4b0a0069736469672d73703a4641494c286e6f6e7a65726f290a00697361df
:20ea40006c702d613a4f4b0a006973616c702d613a4641494c287a65726f290a0069736119
:20ea60006c702d5a3a4f4b0a006973616c702d5a3a4641494c287a65726f290a0069736107
:20ea80006c702d303a4f4b0a006973616c702d303a4641494c286e6f6e7a65726f290a002d
:20eaa0006973616c702d73703a4f4b0a006973616c702d73703a4641494c286e6f6e7a657e
:20eac000726f290a0069737370632d73703a4f4b0a0069737370632d73703a4641494c2862
:20eae0007a65726f290a0069737370632d6e6c3a4f4b0a0069737370632d6e6c3a464149e9
:20eb00004c287a65726f290a0069737370632d74623a4f4b0a0069737370632d74623a46e6
:20eb200041494c287a65726f290a0069737370632d613a4f4b0a0069737370632d613a4626
:20eb400041494c286e6f6e7a65726f290a0069737570722d413a4f4b0a0069737570722d9a
:20eb6000413a4641494c287a65726f290a0069737570722d5a3a4f4b0a0069737570722deb
:20eb80005a3a4641494c287a65726f290a0069737570722d613a4f4b0a0069737570722dab
:20eba000613a4641494c286e6f6e7a65726f290a0069737570722d303a4f4b0a0069737579
:20ebc00070722d303a4641494c286e6f6e7a65726f290a0069736c77722d613a4f4b0a009d
:20ebe00069736c77722d613a4641494c287a65726f290a0069736c77722d7a3a4f4b0a002f
:20ec000069736c77722d7a3a4641494c287a65726f290a0069736c77722d413a4f4b0a002e
:20ec200069736c77722d413a4641494c286e6f6e7a65726f290a0069736c77722d303a4f62
:20ec40004b0a0069736c77722d303a4641494c286e6f6e7a65726f290a006973616c6e7589
:20ec60006d2d613a4f4b0a006973616c6e756d2d613a4641494c287a65726f290a006973e7
:20ec8000616c6e756d2d303a4f4b0a006973616c6e756d2d303a4641494c287a65726f295f
:20eca0000a006973616c6e756d2d73703a4f4b0a006973616c6e756d2d73703a4641494c04
:20ecc000286e6f6e7a65726f290a006973616c6e756d2d213a4f4b0a006973616c6e756db0
:20ece0002d213a4641494c286e6f6e7a65726f290a0069737072696e742d413a4f4b0a00b5
:20ed000069737072696e742d413a4641494c287a65726f290a0069737072696e742d7370f2
:20ed20003a4f4b0a0069737072696e742d73703a4641494c287a65726f290a0069737072ad
:20ed4000696e742d6e6c3a4f4b0a0069737072696e742d6e6c3a4641494c286e6f6e7a65cb
:20ed6000726f290a00697370756e63742d213a4f4b0a00697370756e63742d213a464149ef
:20ed80004c287a65726f290a00697370756e63742d2e3a4f4b0a00697370756e63742d2e6c
:20eda0003a4641494c287a65726f290a00697370756e63742d613a4f4b0a00697370756e41
:20edc00063742d613a4641494c286e6f6e7a65726f290a00697370756e63742d303a4f4bdb
:20ede0000a00697370756e63742d303a4641494c286e6f6e7a65726f290a00535549544560
:20ee00003a4641494c28002f00290a0053554954453a504153532800290a00ae62e680271f
:20ee2000048d0520f839ec62c10a26088d06c60d2002ec62b6c000850227f9f7c00139b60a
:20ee4000c00085012614ccffff39b6c0005f8401398d07c10d2602c60a39b6c000850127e6
:20ee6000f9f6c0014f39ee648e00008de4c17f2714c1082710c10a2723ac6224eee7c03082
:20ee8000018db120e68c000027e1c6088da6c6208da2c6088d9e301f335f20cf6fc48d8872
:20eea0001f1039cc007f203435108d2d27041f1535108d0926f83410cc617a201fcc415a63
:20eec000201acc217e20153510cc41468d1d26decc61668d1626d73410cc3039a163220b35
:20eee000e1632507a6622603c601394f5f39e663c17f27f0cc001f20e3ec6234068da9320c
:18ef00006226e8cc207e20d4e663c12027d6c10927d2c10a27ce20d38e
:10fff000e000e000e000e000e000e000e000e00001
:00000001FF
